{
  "abi": [
    {
      "type": "function",
      "name": "buildIntegrityFunctionPointers",
      "inputs": [],
      "outputs": [
        {
          "name": "",
          "type": "bytes",
          "internalType": "bytes"
        }
      ],
      "stateMutability": "view"
    },
    {
      "type": "function",
      "name": "describedByMetaV1",
      "inputs": [],
      "outputs": [
        {
          "name": "",
          "type": "bytes32",
          "internalType": "bytes32"
        }
      ],
      "stateMutability": "pure"
    },
    {
      "type": "function",
      "name": "parse2",
      "inputs": [
        {
          "name": "data",
          "type": "bytes",
          "internalType": "bytes"
        }
      ],
      "outputs": [
        {
          "name": "",
          "type": "bytes",
          "internalType": "bytes"
        }
      ],
      "stateMutability": "view"
    },
    {
      "type": "function",
      "name": "parsePragma1",
      "inputs": [
        {
          "name": "data",
          "type": "bytes",
          "internalType": "bytes"
        }
      ],
      "outputs": [
        {
          "name": "",
          "type": "tuple",
          "internalType": "struct PragmaV1",
          "components": [
            {
              "name": "usingWordsFrom",
              "type": "address[]",
              "internalType": "address[]"
            }
          ]
        }
      ],
      "stateMutability": "view"
    },
    {
      "type": "function",
      "name": "supportsInterface",
      "inputs": [
        {
          "name": "interfaceId",
          "type": "bytes4",
          "internalType": "bytes4"
        }
      ],
      "outputs": [
        {
          "name": "",
          "type": "bool",
          "internalType": "bool"
        }
      ],
      "stateMutability": "view"
    },
    {
      "type": "error",
      "name": "BadDynamicLength",
      "inputs": [
        {
          "name": "dynamicLength",
          "type": "uint256",
          "internalType": "uint256"
        },
        {
          "name": "standardOpsLength",
          "type": "uint256",
          "internalType": "uint256"
        }
      ]
    },
    {
      "type": "error",
      "name": "BadOpInputsLength",
      "inputs": [
        {
          "name": "opIndex",
          "type": "uint256",
          "internalType": "uint256"
        },
        {
          "name": "calculatedInputs",
          "type": "uint256",
          "internalType": "uint256"
        },
        {
          "name": "bytecodeInputs",
          "type": "uint256",
          "internalType": "uint256"
        }
      ]
    },
    {
      "type": "error",
      "name": "BadOpOutputsLength",
      "inputs": [
        {
          "name": "opIndex",
          "type": "uint256",
          "internalType": "uint256"
        },
        {
          "name": "calculatedOutputs",
          "type": "uint256",
          "internalType": "uint256"
        },
        {
          "name": "bytecodeOutputs",
          "type": "uint256",
          "internalType": "uint256"
        }
      ]
    },
    {
      "type": "error",
      "name": "CallInputsMismatchSource",
      "inputs": [
        {
          "name": "operandInputs",
          "type": "uint256",
          "internalType": "uint256"
        },
        {
          "name": "sourceInputs",
          "type": "uint256",
          "internalType": "uint256"
        }
      ]
    },
    {
      "type": "error",
      "name": "CallOutputsExceedSource",
      "inputs": [
        {
          "name": "sourceOutputs",
          "type": "uint256",
          "internalType": "uint256"
        },
        {
          "name": "outputs",
          "type": "uint256",
          "internalType": "uint256"
        }
      ]
    },
    {
      "type": "error",
      "name": "ExternIntegrityInputsMismatch",
      "inputs": [
        {
          "name": "expected",
          "type": "uint256",
          "internalType": "uint256"
        },
        {
          "name": "actual",
          "type": "uint256",
          "internalType": "uint256"
        }
      ]
    },
    {
      "type": "error",
      "name": "ExternIntegrityOutputsMismatch",
      "inputs": [
        {
          "name": "expected",
          "type": "uint256",
          "internalType": "uint256"
        },
        {
          "name": "actual",
          "type": "uint256",
          "internalType": "uint256"
        }
      ]
    },
    {
      "type": "error",
      "name": "NotAnExternContract",
      "inputs": [
        {
          "name": "extern",
          "type": "address",
          "internalType": "address"
        }
      ]
    },
    {
      "type": "error",
      "name": "OpcodeOutOfRange",
      "inputs": [
        {
          "name": "opIndex",
          "type": "uint256",
          "internalType": "uint256"
        },
        {
          "name": "opcodeIndex",
          "type": "uint256",
          "internalType": "uint256"
        },
        {
          "name": "fsCount",
          "type": "uint256",
          "internalType": "uint256"
        }
      ]
    },
    {
      "type": "error",
      "name": "OutOfBoundsConstantRead",
      "inputs": [
        {
          "name": "opIndex",
          "type": "uint256",
          "internalType": "uint256"
        },
        {
          "name": "constantsLength",
          "type": "uint256",
          "internalType": "uint256"
        },
        {
          "name": "constantRead",
          "type": "uint256",
          "internalType": "uint256"
        }
      ]
    },
    {
      "type": "error",
      "name": "OutOfBoundsStackRead",
      "inputs": [
        {
          "name": "opIndex",
          "type": "uint256",
          "internalType": "uint256"
        },
        {
          "name": "stackTopIndex",
          "type": "uint256",
          "internalType": "uint256"
        },
        {
          "name": "stackRead",
          "type": "uint256",
          "internalType": "uint256"
        }
      ]
    },
    {
      "type": "error",
      "name": "SourceIndexOutOfBounds",
      "inputs": [
        {
          "name": "sourceIndex",
          "type": "uint256",
          "internalType": "uint256"
        },
        {
          "name": "bytecode",
          "type": "bytes",
          "internalType": "bytes"
        }
      ]
    },
    {
      "type": "error",
      "name": "StackAllocationMismatch",
      "inputs": [
        {
          "name": "stackMaxIndex",
          "type": "uint256",
          "internalType": "uint256"
        },
        {
          "name": "bytecodeAllocation",
          "type": "uint256",
          "internalType": "uint256"
        }
      ]
    },
    {
      "type": "error",
      "name": "StackOutputsMismatch",
      "inputs": [
        {
          "name": "stackIndex",
          "type": "uint256",
          "internalType": "uint256"
        },
        {
          "name": "bytecodeOutputs",
          "type": "uint256",
          "internalType": "uint256"
        }
      ]
    },
    {
      "type": "error",
      "name": "StackSizingsNotMonotonic",
      "inputs": [
        {
          "name": "bytecode",
          "type": "bytes",
          "internalType": "bytes"
        },
        {
          "name": "relativeOffset",
          "type": "uint256",
          "internalType": "uint256"
        }
      ]
    },
    {
      "type": "error",
      "name": "StackUnderflow",
      "inputs": [
        {
          "name": "opIndex",
          "type": "uint256",
          "internalType": "uint256"
        },
        {
          "name": "stackIndex",
          "type": "uint256",
          "internalType": "uint256"
        },
        {
          "name": "calculatedInputs",
          "type": "uint256",
          "internalType": "uint256"
        }
      ]
    },
    {
      "type": "error",
      "name": "StackUnderflowHighwater",
      "inputs": [
        {
          "name": "opIndex",
          "type": "uint256",
          "internalType": "uint256"
        },
        {
          "name": "stackIndex",
          "type": "uint256",
          "internalType": "uint256"
        },
        {
          "name": "stackHighwater",
          "type": "uint256",
          "internalType": "uint256"
        }
      ]
    },
    {
      "type": "error",
      "name": "TruncatedBitwiseEncoding",
      "inputs": [
        {
          "name": "startBit",
          "type": "uint256",
          "internalType": "uint256"
        },
        {
          "name": "length",
          "type": "uint256",
          "internalType": "uint256"
        }
      ]
    },
    {
      "type": "error",
      "name": "TruncatedHeader",
      "inputs": [
        {
          "name": "bytecode",
          "type": "bytes",
          "internalType": "bytes"
        }
      ]
    },
    {
      "type": "error",
      "name": "TruncatedHeaderOffsets",
      "inputs": [
        {
          "name": "bytecode",
          "type": "bytes",
          "internalType": "bytes"
        }
      ]
    },
    {
      "type": "error",
      "name": "TruncatedSource",
      "inputs": [
        {
          "name": "bytecode",
          "type": "bytes",
          "internalType": "bytes"
        }
      ]
    },
    {
      "type": "error",
      "name": "UnexpectedSources",
      "inputs": [
        {
          "name": "bytecode",
          "type": "bytes",
          "internalType": "bytes"
        }
      ]
    },
    {
      "type": "error",
      "name": "UnexpectedTrailingOffsetBytes",
      "inputs": [
        {
          "name": "bytecode",
          "type": "bytes",
          "internalType": "bytes"
        }
      ]
    },
    {
      "type": "error",
      "name": "UnsupportedBitwiseShiftAmount",
      "inputs": [
        {
          "name": "shiftAmount",
          "type": "uint256",
          "internalType": "uint256"
        }
      ]
    },
    {
      "type": "error",
      "name": "ZeroLengthBitwiseEncoding",
      "inputs": []
    }
  ],
  "bytecode": {
    "object": "0x6080604052348015600e575f80fd5b50611cb28061001c5f395ff3fe608060405234801561000f575f80fd5b5060043610610064575f3560e01c80636f5aa28d1161004d5780636f5aa28d146100b0578063a3869e14146100de578063b92d7553146100fe575f80fd5b806301ffc9a7146100685780635514ca2014610090575b5f80fd5b61007b610076366004611621565b610106565b60405190151581526020015b60405180910390f35b6100a361009e366004611660565b610282565b60405161008791906116cc565b6040517fc5a28e7d9dcddeae423dae076cbc7510e07229c5aac6e894727caa6ebf1353fa8152602001610087565b6100f16100ec36600461181b565b610347565b60405161008791906118e1565b6100f1610468565b5f7fffffffff0000000000000000000000000000000000000000000000000000000082167f6f5aa28d00000000000000000000000000000000000000000000000000000000148061019857507fffffffff0000000000000000000000000000000000000000000000000000000082167fa3869e1400000000000000000000000000000000000000000000000000000000145b806101e457507fffffffff0000000000000000000000000000000000000000000000000000000082167f5514ca2000000000000000000000000000000000000000000000000000000000145b8061023057507fffffffff0000000000000000000000000000000000000000000000000000000082167fb92d755300000000000000000000000000000000000000000000000000000000145b8061027c57507f01ffc9a7000000000000000000000000000000000000000000000000000000007fffffffff000000000000000000000000000000000000000000000000000000008316145b92915050565b604080516020810182526060815290517f5514ca2000000000000000000000000000000000000000000000000000000000815273088bdb2b554e3cdeda4137beef92ffee1e9f4dbf90635514ca20906102e190869086906004016118f3565b5f60405180830381865afa1580156102fb573d5f803e3d5ffd5b505050506040513d5f823e601f3d9081017fffffffffffffffffffffffffffffffffffffffffffffffffffffffffffffffe01682016040526103409190810190611962565b9392505050565b6040517f7764fd9c0000000000000000000000000000000000000000000000000000000081526060905f90819073088bdb2b554e3cdeda4137beef92ffee1e9f4dbf90637764fd9c9061039e9087906004016118e1565b5f60405180830381865afa1580156103b8573d5f803e3d5ffd5b505050506040513d5f823e601f3d9081017fffffffffffffffffffffffffffffffffffffffffffffffffffffffffffffffe01682016040526103fd9190810190611a41565b915091505f610416838351905160406020909202010190565b60408051602083820181019092528281529192508101610437818686610477565b5f61045b6040518060c0016040528060928152602001611c206092913987876104ba565b5091979650505050505050565b6060610472610879565b905090565b80600182510160200281015b8082101561049e578151855260209485019490910190610483565b50506104b56104aa8390565b848451602001610b54565b505050565b60605f6104c684610b5d565b85519091506020860190600290046104dd86610b77565b8260020267ffffffffffffffff8111156104f9576104f9611731565b6040519080825280601f01601f191660200182016040528015610523576020820181803683370190505b509350602084015f5b8481101561086d575f806105408a84610d94565b915091508184538060018501536002840193505f61055f8b848c610db7565b90505f601861056e8d87610e1e565b0390505f61057c8d87610e4d565b600402820190505b808210156107b757815162ffffff811690601d81901a600f81169160049190911c90601c1a6116178c82106106015760808801516040517fc8344ab1000000000000000000000000000000000000000000000000000000008152600481019190915260248101839052604481018e90526064015b60405180910390fd5b50600281028d015160f01c5f806106168a8885565b9150915085821461066a5760808a01516040517fddf56071000000000000000000000000000000000000000000000000000000008152600481019190915260248101839052604481018790526064016105f8565b8481146106ba5760808a01516040517ffc8b5603000000000000000000000000000000000000000000000000000000008152600481019190915260248101829052604481018690526064016105f8565b895182111561070c5760808a01518a516040517f2cab6bff00000000000000000000000000000000000000000000000000000000815260048101929092526024820152604481018390526064016105f8565b8951829003808b5260408b0151111561076e5760808a01518a516040808d015190517f1bc5ab0f0000000000000000000000000000000000000000000000000000000081526004810193909352602483019190915260448201526064016105f8565b89518101808b5260208b0151101561078857895160208b01525b600181111561079957895160408b01525b50505060808701805160010190525050506004929092019150610584565b6107c18d87610e64565b8360200151146108155782602001516107da8e88610e64565b6040517f4d9c18dc000000000000000000000000000000000000000000000000000000008152600481019290925260248201526044016105f8565b8251841461085c5782516040517f4689f0b30000000000000000000000000000000000000000000000000000000081526004810191909152602481018590526044016105f8565b50506001909301925061052c915050565b50505050509392505050565b60606116175f604990508091505f6040518061094001604052808467ffffffffffffffff1667ffffffffffffffff168152602001610e7c8152602001610ef88152602001610f5b81526020016111b681526020016111bf81526020016111c981526020016111d281526020016111ec81526020016111bf8152602001611291815260200161129181526020016112ec81526020016113b581526020016113c281526020016111bf81526020016111c981526020016113c281526020016111bf81526020016111c981526020016111c981526020016111bf81526020016111bf81526020016111bf81526020016111b681526020016111b681526020016111b681526020016111b681526020016113cc81526020016111bf81526020016113f0815260200161140981526020016111bf81526020016113cc81526020016111bf81526020016111bf81526020016113c281526020016111c981526020016111bf81526020016111bf81526020016111c9815260200161141281526020016111bf81526020016111c9815260200161141281526020016111b681526020016111c981526020016111c981526020016111c981526020016111c981526020016111bf81526020016111c981526020016111c9815260200161141281526020016111b681526020016111b6815260200161141281526020016111b681526020016111b6815260200161141281526020016111b681526020016111bf81526020016111c9815260200161141281526020016113c281526020016113c28152602001611412815260200161141281526020016111b681526020016114128152602001611412815260200161141281526020016111c98152602001611409815250905060608190506049815114610b425780516040517fc8b569010000000000000000000000000000000000000000000000000000000081526004810191909152602481018490526044016105f8565b610b4b8161142b565b94505050505090565b8083835e505050565b5f81515f03610b6d57505f919050565b50602001515f1a90565b5f610b8182610b5d565b90508015610d525781516001600283020190811115610bce57826040517f17f4bc5e0000000000000000000000000000000000000000000000000000000081526004016105f891906118e1565b82516020828501810191850101602160027fffffffffffffffffffffffffffffffffffffffffffffffffffffffffffffffff860102860181019086015b808210610d0e57815160f01c8481016004810185811115610c5957896040517e39ba560000000000000000000000000000000000000000000000000000000081526004016105f891906118e1565b81515f81901a90600181901a90600281901a9060031a80821180610c7c57508281115b15610cb7578d876040517feaf45f4f0000000000000000000000000000000000000000000000000000000081526004016105f8929190611b32565b505050600481028201878114610cfb578b6040517ffbb8027a0000000000000000000000000000000000000000000000000000000081526004016105f891906118e1565b8397506002870396505050505050610c0b565b838314610d4957866040517fde67b29a0000000000000000000000000000000000000000000000000000000081526004016105f891906118e1565b50505050505050565b600182511115610d9057816040517fd013da5d0000000000000000000000000000000000000000000000000000000081526004016105f891906118e1565b5050565b5f805f610da18585610e1e565b51600281901a9660039190911a95509350505050565b610dec6040518060c001604052805f81526020015f81526020015f8152602001606081526020015f8152602001606081525090565b506040805160c081018252838152602081018490529081019290925260608201525f608082015260a081019190915290565b5f80610e2984610b5d565b60020260010190505f610e3c85856114bb565b949091019093016020019392505050565b5f80610e598484610e1e565b515f1a949350505050565b5f80610e708484610e1e565b5160011a949350505050565b81515f90819061ffff8416908110610ed757608085015185516040517feaa16f3300000000000000000000000000000000000000000000000000000000815260048101929092526024820152604481018290526064016105f8565b8460400151811115610eeb57604085018190525b505f946001945092505050565b6060820151515f90819061ffff8416908110610eeb5760808501516060860151516040517feb78945400000000000000000000000000000000000000000000000000000000815260048101929092526024820152604481018290526064016105f8565b6060820151515f90819061ffff8416908110610fbe5760808501516060860151516040517feb78945400000000000000000000000000000000000000000000000000000000815260048101929092526024820152604481018290526064016105f8565b5f85606001518281518110610fd557610fd5611b53565b602002602001015190505f80610fee839060a082901c90565b9150915061101c827f18003f8e00000000000000000000000000000000000000000000000000000000611511565b61106a576040517f23016c8900000000000000000000000000000000000000000000000000000000815273ffffffffffffffffffffffffffffffffffffffff831660048201526024016105f8565b6040517f40c04edc00000000000000000000000000000000000000000000000000000000815260048101829052600f601089901c81166024830181905260148a901c9091166044830181905290915f90819073ffffffffffffffffffffffffffffffffffffffff8716906340c04edc906064016040805180830381865afa1580156110f7573d5f803e3d5ffd5b505050506040513d601f19601f8201168201806040525081019061111b9190611b80565b91509150838214611162576040517f528cc0fb00000000000000000000000000000000000000000000000000000000815260048101859052602481018390526044016105f8565b8281146111a5576040517fc5ff08dc00000000000000000000000000000000000000000000000000000000815260048101849052602481018290526044016105f8565b909b909a5098505050505050505050565b505f9160019150565b5060029160019150565b50600191829150565b5f806111de84846111ec565b506001958695509350505050565b5f8060ff83811690600885901c16808303611233576040517f46f0ca6900000000000000000000000000000000000000000000000000000000815260040160405180910390fd5b6101006112408284611ba2565b1115611282576040517f8abcdd3f00000000000000000000000000000000000000000000000000000000815260048101839052602481018290526044016105f8565b50600295600195509350505050565b5f8061ffff831660ff8111806112a5575080155b156112df576040517fc1be16a1000000000000000000000000000000000000000000000000000000008152600481018290526024016105f8565b5060019485945092505050565b60a08201515f90819061ffff841690600f601486901c811691601087901c909116908490819061131c9086610d94565b91509150818314611363576040517f9199e58e00000000000000000000000000000000000000000000000000000000815260048101849052602481018390526044016105f8565b838110156113a7576040517fff13710800000000000000000000000000000000000000000000000000000000815260048101829052602481018590526044016105f8565b509791965090945050505050565b60101c600f169160019150565b5060039160019150565b5f80600f601084901c16806113e25760016113e4565b805b95600195509350505050565b5f80600f601084901c16600281116113e25760026113e4565b506002915f9150565b5f80600f601084901c16600181116113e25760026113e4565b60605f825160020267ffffffffffffffff81111561144b5761144b611731565b6040519080825280601f01601f191660200182016040528015611475576020820181803683370190505b50905061ffff80196020850160208651028101600285015b818310156114af5780518351861690851617815260209092019160020161148d565b50939695505050505050565b5f6114c583610b5d565b82106115015781836040517ffcfaeff10000000000000000000000000000000000000000000000000000000081526004016105f8929190611bda565b50600202016003015161ffff1690565b5f61151b8361152c565b8015610340575061034083836115a6565b5f611557827f01ffc9a7000000000000000000000000000000000000000000000000000000006115a6565b1561159f575f80611588847fffffffff000000000000000000000000000000000000000000000000000000006115ca565b91509150818015611597575080155b949350505050565b505f919050565b5f805f6115b385856115ca565b915091508180156115c15750805b95945050505050565b7f01ffc9a7000000000000000000000000000000000000000000000000000000005f818152600483905290819060208260248188617530fa92505f511515601f3d11169150509250929050565b61161f611bf2565b565b5f60208284031215611631575f80fd5b81357fffffffff0000000000000000000000000000000000000000000000000000000081168114610340575f80fd5b5f8060208385031215611671575f80fd5b823567ffffffffffffffff80821115611688575f80fd5b818501915085601f83011261169b575f80fd5b8135818111156116a9575f80fd5b8660208285010111156116ba575f80fd5b60209290920196919550909350505050565b602080825282518282018290528051604084018190525f9291820190839060608601905b8083101561172657835173ffffffffffffffffffffffffffffffffffffffff1682529284019260019290920191908401906116f0565b509695505050505050565b7f4e487b71000000000000000000000000000000000000000000000000000000005f52604160045260245ffd5b6040516020810167ffffffffffffffff8111828210171561178157611781611731565b60405290565b604051601f82017fffffffffffffffffffffffffffffffffffffffffffffffffffffffffffffffe016810167ffffffffffffffff811182821017156117ce576117ce611731565b604052919050565b5f67ffffffffffffffff8211156117ef576117ef611731565b50601f017fffffffffffffffffffffffffffffffffffffffffffffffffffffffffffffffe01660200190565b5f6020828403121561182b575f80fd5b813567ffffffffffffffff811115611841575f80fd5b8201601f81018413611851575f80fd5b803561186461185f826117d6565b611787565b818152856020838501011115611878575f80fd5b816020840160208301375f91810160200191909152949350505050565b5f81518084528060208401602086015e5f6020828601015260207fffffffffffffffffffffffffffffffffffffffffffffffffffffffffffffffe0601f83011685010191505092915050565b602081525f6103406020830184611895565b60208152816020820152818360408301375f818301604090810191909152601f9092017fffffffffffffffffffffffffffffffffffffffffffffffffffffffffffffffe0160101919050565b5f67ffffffffffffffff82111561195857611958611731565b5060051b60200190565b5f6020808385031215611973575f80fd5b825167ffffffffffffffff8082111561198a575f80fd5b818501915082828703121561199d575f80fd5b6119a561175e565b8251828111156119b3575f80fd5b80840193505086601f8401126119c7575f80fd5b825191506119d761185f8361193f565b82815260059290921b830184019184810190888411156119f5575f80fd5b938501935b83851015611a3457845173ffffffffffffffffffffffffffffffffffffffff81168114611a25575f80fd5b825293850193908501906119fa565b8252509695505050505050565b5f8060408385031215611a52575f80fd5b825167ffffffffffffffff80821115611a69575f80fd5b818501915085601f830112611a7c575f80fd5b81516020611a8c61185f836117d6565b8281528882848701011115611a9f575f80fd5b828286018383015e5f81840183015287820151909650935082841115611ac3575f80fd5b838701935087601f850112611ad6575f80fd5b83519250611ae661185f8461193f565b83815260059390931b8401810192818101925088841115611b05575f80fd5b938101935b83851015611b2357845183529381019391810191611b0a565b80955050505050509250929050565b604081525f611b446040830185611895565b90508260208301529392505050565b7f4e487b71000000000000000000000000000000000000000000000000000000005f52603260045260245ffd5b5f8060408385031215611b91575f80fd5b505080516020909101519092909150565b8082018082111561027c577f4e487b71000000000000000000000000000000000000000000000000000000005f52601160045260245ffd5b828152604060208201525f6115976040830184611895565b7f4e487b71000000000000000000000000000000000000000000000000000000005f52605160045260245ffdfe0e7c0ef80f5b11b611bf11c911d211ec11bf1291129112ec13b513c211bf11c913c211bf11c911c911bf11bf11bf11b611b611b611b613cc11bf13f0140911bf13cc11bf11bf13c211c911bf11bf11c9141211bf11c9141211b611c911c911c911c911bf11c911c9141211b611b6141211b611b6141211b611bf11c9141213c213c21412141211b614121412141211c91409"
  }
}