{
  "abi": [
    {
      "type": "function",
      "name": "buildLiteralParserFunctionPointers",
      "inputs": [],
      "outputs": [
        {
          "name": "",
          "type": "bytes",
          "internalType": "bytes"
        }
      ],
      "stateMutability": "pure"
    },
    {
      "type": "function",
      "name": "buildOperandHandlerFunctionPointers",
      "inputs": [],
      "outputs": [
        {
          "name": "",
          "type": "bytes",
          "internalType": "bytes"
        }
      ],
      "stateMutability": "pure"
    },
    {
      "type": "function",
      "name": "parsePragma1",
      "inputs": [
        {
          "name": "data",
          "type": "bytes",
          "internalType": "bytes"
        }
      ],
      "outputs": [
        {
          "name": "",
          "type": "tuple",
          "internalType": "struct PragmaV1",
          "components": [
            {
              "name": "usingWordsFrom",
              "type": "address[]",
              "internalType": "address[]"
            }
          ]
        }
      ],
      "stateMutability": "view"
    },
    {
      "type": "function",
      "name": "supportsInterface",
      "inputs": [
        {
          "name": "interfaceId",
          "type": "bytes4",
          "internalType": "bytes4"
        }
      ],
      "outputs": [
        {
          "name": "",
          "type": "bool",
          "internalType": "bool"
        }
      ],
      "stateMutability": "view"
    },
    {
      "type": "function",
      "name": "unsafeParse",
      "inputs": [
        {
          "name": "data",
          "type": "bytes",
          "internalType": "bytes"
        }
      ],
      "outputs": [
        {
          "name": "",
          "type": "bytes",
          "internalType": "bytes"
        },
        {
          "name": "",
          "type": "bytes32[]",
          "internalType": "bytes32[]"
        }
      ],
      "stateMutability": "view"
    },
    {
      "type": "error",
      "name": "BadDynamicLength",
      "inputs": [
        {
          "name": "dynamicLength",
          "type": "uint256",
          "internalType": "uint256"
        },
        {
          "name": "standardOpsLength",
          "type": "uint256",
          "internalType": "uint256"
        }
      ]
    },
    {
      "type": "error",
      "name": "BadSubParserResult",
      "inputs": [
        {
          "name": "bytecode",
          "type": "bytes",
          "internalType": "bytes"
        }
      ]
    },
    {
      "type": "error",
      "name": "CoefficientOverflow",
      "inputs": [
        {
          "name": "signedCoefficient",
          "type": "int256",
          "internalType": "int256"
        },
        {
          "name": "exponent",
          "type": "int256",
          "internalType": "int256"
        }
      ]
    },
    {
      "type": "error",
      "name": "DanglingSource",
      "inputs": []
    },
    {
      "type": "error",
      "name": "DuplicateLHSItem",
      "inputs": [
        {
          "name": "offset",
          "type": "uint256",
          "internalType": "uint256"
        }
      ]
    },
    {
      "type": "error",
      "name": "ExcessLHSItems",
      "inputs": [
        {
          "name": "offset",
          "type": "uint256",
          "internalType": "uint256"
        }
      ]
    },
    {
      "type": "error",
      "name": "ExcessRHSItems",
      "inputs": [
        {
          "name": "offset",
          "type": "uint256",
          "internalType": "uint256"
        }
      ]
    },
    {
      "type": "error",
      "name": "ExpectedLeftParen",
      "inputs": [
        {
          "name": "offset",
          "type": "uint256",
          "internalType": "uint256"
        }
      ]
    },
    {
      "type": "error",
      "name": "ExpectedOperand",
      "inputs": []
    },
    {
      "type": "error",
      "name": "ExponentOverflow",
      "inputs": [
        {
          "name": "signedCoefficient",
          "type": "int256",
          "internalType": "int256"
        },
        {
          "name": "exponent",
          "type": "int256",
          "internalType": "int256"
        }
      ]
    },
    {
      "type": "error",
      "name": "FixedDecimalOverflow",
      "inputs": [
        {
          "name": "signedCoefficient",
          "type": "int256",
          "internalType": "int256"
        },
        {
          "name": "exponent",
          "type": "int256",
          "internalType": "int256"
        },
        {
          "name": "decimals",
          "type": "uint8",
          "internalType": "uint8"
        }
      ]
    },
    {
      "type": "error",
      "name": "HexLiteralOverflow",
      "inputs": [
        {
          "name": "offset",
          "type": "uint256",
          "internalType": "uint256"
        }
      ]
    },
    {
      "type": "error",
      "name": "InvalidSubParser",
      "inputs": [
        {
          "name": "offset",
          "type": "uint256",
          "internalType": "uint256"
        }
      ]
    },
    {
      "type": "error",
      "name": "LHSItemCountOverflow",
      "inputs": [
        {
          "name": "offset",
          "type": "uint256",
          "internalType": "uint256"
        }
      ]
    },
    {
      "type": "error",
      "name": "LineRHSItemsOverflow",
      "inputs": []
    },
    {
      "type": "error",
      "name": "LossyConversionFromFloat",
      "inputs": [
        {
          "name": "signedCoefficient",
          "type": "int256",
          "internalType": "int256"
        },
        {
          "name": "exponent",
          "type": "int256",
          "internalType": "int256"
        }
      ]
    },
    {
      "type": "error",
      "name": "MalformedCommentStart",
      "inputs": [
        {
          "name": "offset",
          "type": "uint256",
          "internalType": "uint256"
        }
      ]
    },
    {
      "type": "error",
      "name": "MalformedHexLiteral",
      "inputs": [
        {
          "name": "offset",
          "type": "uint256",
          "internalType": "uint256"
        }
      ]
    },
    {
      "type": "error",
      "name": "MaxSources",
      "inputs": []
    },
    {
      "type": "error",
      "name": "MissingFinalSemi",
      "inputs": [
        {
          "name": "offset",
          "type": "uint256",
          "internalType": "uint256"
        }
      ]
    },
    {
      "type": "error",
      "name": "NegativeFixedDecimalConversion",
      "inputs": [
        {
          "name": "signedCoefficient",
          "type": "int256",
          "internalType": "int256"
        },
        {
          "name": "exponent",
          "type": "int256",
          "internalType": "int256"
        }
      ]
    },
    {
      "type": "error",
      "name": "NoWhitespaceAfterUsingWordsFrom",
      "inputs": [
        {
          "name": "offset",
          "type": "uint256",
          "internalType": "uint256"
        }
      ]
    },
    {
      "type": "error",
      "name": "NotAcceptingInputs",
      "inputs": [
        {
          "name": "offset",
          "type": "uint256",
          "internalType": "uint256"
        }
      ]
    },
    {
      "type": "error",
      "name": "OddLengthHexLiteral",
      "inputs": [
        {
          "name": "offset",
          "type": "uint256",
          "internalType": "uint256"
        }
      ]
    },
    {
      "type": "error",
      "name": "OpcodeIOOverflow",
      "inputs": [
        {
          "name": "offset",
          "type": "uint256",
          "internalType": "uint256"
        }
      ]
    },
    {
      "type": "error",
      "name": "OperandOverflow",
      "inputs": []
    },
    {
      "type": "error",
      "name": "OperandValuesOverflow",
      "inputs": [
        {
          "name": "offset",
          "type": "uint256",
          "internalType": "uint256"
        }
      ]
    },
    {
      "type": "error",
      "name": "ParenInputOverflow",
      "inputs": []
    },
    {
      "type": "error",
      "name": "ParenOverflow",
      "inputs": []
    },
    {
      "type": "error",
      "name": "ParseMemoryOverflow",
      "inputs": [
        {
          "name": "freeMemoryPointer",
          "type": "uint256",
          "internalType": "uint256"
        }
      ]
    },
    {
      "type": "error",
      "name": "ParseStackOverflow",
      "inputs": []
    },
    {
      "type": "error",
      "name": "ParseStackUnderflow",
      "inputs": []
    },
    {
      "type": "error",
      "name": "ParserOutOfBounds",
      "inputs": []
    },
    {
      "type": "error",
      "name": "SourceIndexOutOfBounds",
      "inputs": [
        {
          "name": "sourceIndex",
          "type": "uint256",
          "internalType": "uint256"
        },
        {
          "name": "bytecode",
          "type": "bytes",
          "internalType": "bytes"
        }
      ]
    },
    {
      "type": "error",
      "name": "SourceItemOpsOverflow",
      "inputs": []
    },
    {
      "type": "error",
      "name": "SourceTotalOpsOverflow",
      "inputs": []
    },
    {
      "type": "error",
      "name": "StringTooLong",
      "inputs": [
        {
          "name": "offset",
          "type": "uint256",
          "internalType": "uint256"
        }
      ]
    },
    {
      "type": "error",
      "name": "SubParseLiteralDispatchLengthOverflow",
      "inputs": [
        {
          "name": "dispatchLength",
          "type": "uint256",
          "internalType": "uint256"
        }
      ]
    },
    {
      "type": "error",
      "name": "SubParseableMissingDispatch",
      "inputs": [
        {
          "name": "offset",
          "type": "uint256",
          "internalType": "uint256"
        }
      ]
    },
    {
      "type": "error",
      "name": "UnclosedComment",
      "inputs": [
        {
          "name": "offset",
          "type": "uint256",
          "internalType": "uint256"
        }
      ]
    },
    {
      "type": "error",
      "name": "UnclosedLeftParen",
      "inputs": [
        {
          "name": "offset",
          "type": "uint256",
          "internalType": "uint256"
        }
      ]
    },
    {
      "type": "error",
      "name": "UnclosedOperand",
      "inputs": [
        {
          "name": "offset",
          "type": "uint256",
          "internalType": "uint256"
        }
      ]
    },
    {
      "type": "error",
      "name": "UnclosedStringLiteral",
      "inputs": [
        {
          "name": "offset",
          "type": "uint256",
          "internalType": "uint256"
        }
      ]
    },
    {
      "type": "error",
      "name": "UnclosedSubParseableLiteral",
      "inputs": [
        {
          "name": "offset",
          "type": "uint256",
          "internalType": "uint256"
        }
      ]
    },
    {
      "type": "error",
      "name": "UnexpectedComment",
      "inputs": [
        {
          "name": "offset",
          "type": "uint256",
          "internalType": "uint256"
        }
      ]
    },
    {
      "type": "error",
      "name": "UnexpectedLHSChar",
      "inputs": [
        {
          "name": "offset",
          "type": "uint256",
          "internalType": "uint256"
        }
      ]
    },
    {
      "type": "error",
      "name": "UnexpectedOperand",
      "inputs": []
    },
    {
      "type": "error",
      "name": "UnexpectedOperandValue",
      "inputs": []
    },
    {
      "type": "error",
      "name": "UnexpectedRHSChar",
      "inputs": [
        {
          "name": "offset",
          "type": "uint256",
          "internalType": "uint256"
        }
      ]
    },
    {
      "type": "error",
      "name": "UnexpectedRightParen",
      "inputs": [
        {
          "name": "offset",
          "type": "uint256",
          "internalType": "uint256"
        }
      ]
    },
    {
      "type": "error",
      "name": "UnknownWord",
      "inputs": [
        {
          "name": "word",
          "type": "string",
          "internalType": "string"
        }
      ]
    },
    {
      "type": "error",
      "name": "UnsupportedLiteralType",
      "inputs": [
        {
          "name": "offset",
          "type": "uint256",
          "internalType": "uint256"
        }
      ]
    },
    {
      "type": "error",
      "name": "UppercaseHexPrefix",
      "inputs": [
        {
          "name": "offset",
          "type": "uint256",
          "internalType": "uint256"
        }
      ]
    },
    {
      "type": "error",
      "name": "WordSize",
      "inputs": [
        {
          "name": "word",
          "type": "string",
          "internalType": "string"
        }
      ]
    },
    {
      "type": "error",
      "name": "ZeroLengthHexLiteral",
      "inputs": [
        {
          "name": "offset",
          "type": "uint256",
          "internalType": "uint256"
        }
      ]
    },
    {
      "type": "error",
      "name": "ZeroStringStartPointer",
      "inputs": []
    }
  ],
  "bytecode": {
    "object": "0x6080604052348015600e575f80fd5b506154ab8061001c5f395ff3fe608060405234801561000f575f80fd5b5060043610610064575f3560e01c80637764fd9c1161004d5780637764fd9c146100b0578063ccf44775146100d1578063d6d8c9a8146100e6575f80fd5b806301ffc9a7146100685780635514ca2014610090575b5f80fd5b61007b610076366004614d16565b6100ee565b60405190151581526020015b60405180910390f35b6100a361009e366004614e16565b610186565b6040516100879190614e90565b6100c36100be366004614e16565b61023e565b604051610087929190614f41565b6100d961025e565b6040516100879190614f96565b6100d961026d565b5f7fffffffff0000000000000000000000000000000000000000000000000000000082167f1a2c8edd00000000000000000000000000000000000000000000000000000000148061018057507f01ffc9a7000000000000000000000000000000000000000000000000000000007fffffffff000000000000000000000000000000000000000000000000000000008316145b92915050565b6040805160208101909152606081525f6101e3836101a2610277565b6101aa61029a565b60408051808201909152600881527f1ca11fed202d208a00000000000000000000000000000000000000000000000060208201526102ba565b90505f6020840190505f6101fa8580510160200190565b90506102078383836104ac565b915061021483838361050e565b9150604051806020016040528061022a856106db565b90529350505050610239610739565b919050565b606080610255610250846101a2610277565b61077e565b91509150915091565b60606102686108fb565b905090565b6060610268610948565b6060604051806101a0016040528061016781526020016152b26101679139905090565b60606040518060c001604052806092815260200161541960929139905090565b6103476040518061026001604052805f81526020015f81526020015f81526020015f81526020015f81526020015f81526020015f80191681526020015f81526020015f81526020015f81526020015f81526020015f81526020015f80191681526020016060815260200160608152602001606081526020015f815260200160608152602001606081525090565b5f6040518061026001604052805f81526020015f81526020015f81526020015f81526020015f81526020015f81526020015f801b81526020015f8152602001600481526020015f81526020015f81526020015f81526020015f801b8152602001848152602001858152602001600467ffffffffffffffff8111156103cd576103cd614d55565b6040519080825280602002602001820160405280156103f6578160200160208202803683370190505b5081525f602080830182905260408084018b905260609384018a90528051601f017fffffffffffffffffffffffffffffffffffffffffffffffffffffffffffffffe016828152808301825283517fffffffffffffffffffffffffffffffffffffffffffffffffffffffffffff00001681178452855290840182905283018190529082018190526080820181905260a082018190526101208201819052610140820181905261020082015290505b95945050505050565b5f5b8183101561050457825160015f9190911a1b6401000026008116156104df576104d8858585610c11565b93506104fe565b658000000000008116156104f8576104d8858585610c55565b50610504565b506104ae565b50815b9392505050565b815160408051808201909152601081527f7573696e672d776f7264732d66726f6d0000000000000000000000000000000060208201525f919061055090614fa8565b7fffffffffffffffffffffffffffffffff000000000000000000000000000000008216146105815783915050610507565b5060108301925081831061061a5761022084015183037fffffffffffffffffffffffffffffffffffffffffffffffffffffffffffffffe0017f53c102422473590ce12511beab7637e1c33b596a7d58a80ea98463ad78950000175b6040517fe3e4992d00000000000000000000000000000000000000000000000000000000815260040161061191815260200190565b60405180910390fd5b825160015f91821a1b90640100002600821690036106835761022085015184037fffffffffffffffffffffffffffffffffffffffffffffffffffffffffffffffe0017f53c102422473590ce12511beab7637e1c33b596a7d58a80ea98463ad78950000176105dc565b836001019350505b818310156105045761069e8484846104ac565b925081831015610504575f806106b5868686610e83565b9096509092509050816106c9575050610504565b6106d4868683611035565b505061068b565b60c08101516040516060919073ffffffffffffffffffffffffffffffffffffffff602082015f5b841561072357848316825260a09490941c5193602090910190600101610702565b8352604052610731826110f4565b509392505050565b60405162010000811061077b576040517f766c065f00000000000000000000000000000000000000000000000000000000815260048101829052602401610611565b50565b6060805f8361022001515111156108d0575f61079f84610220015160200190565b90505f6107b485610220015180510160200190565b90506107c18583836104ac565b91506107ce85838361050e565b91505b80821015610805576107e48583836104ac565b91506107f1858383611142565b91506107fe858383611545565b91506107d1565b80821461083e576040517f7d565df600000000000000000000000000000000000000000000000000000000815260040160405180910390fd5b610100850151600816156108cd5761022085015182037fffffffffffffffffffffffffffffffffffffffffffffffffffffffffffffffe0017f53c102422473590ce12511beab7637e1c33b596a7d58a80ea98463ad78950000176040517ff06f54cf00000000000000000000000000000000000000000000000000000000815260040161061191815260200190565b50505b5f806108e56108de86611b04565b8690611c39565b915091506108f1610739565b9094909350915050565b6040805160a0810182526004808252611ca16020830152611fed9282019290925261202d60608281019190915261208a608083015291908190805b61093f81612273565b94505050505090565b6060614d0c5f604990508091505f6040518061094001604052808467ffffffffffffffff1667ffffffffffffffff1681526020016123038152602001612303815260200161230381526020016123cf81526020016124e381526020016124e381526020016123cf81526020016123cf81526020016124e381526020016123038152602001612303815260200161230381526020016124e381526020016124e381526020016124e381526020016124e381526020016124e381526020016124e381526020016124e381526020016124e381526020016124e381526020016124e381526020016124e381526020016124e381526020016124e381526020016124e381526020016124e381526020016124e381526020016124e381526020016124e381526020016124e381526020016124e381526020016124e381526020016124e381526020016124e381526020016124e381526020016124e381526020016124e381526020016124e381526020016124e381526020016124e381526020016124e381526020016124e381526020016124e381526020016124e381526020016124e381526020016124e381526020016124e381526020016124e381526020016124e381526020016124e381526020016124e381526020016124e381526020016124e381526020016124e381526020016124e381526020016124e381526020016124e381526020016124e381526020016124e381526020016124e381526020016124e381526020016124e381526020016124e381526020016124e381526020016124e381526020016124e381526020016124e381526020016124e381526020016124e381526020016124e381526020016124e381526020016124e38152509050606081905060498151146109365780516040517fc8b56901000000000000000000000000000000000000000000000000000000008152600481019190915260248101849052604401610611565b610100830180517ffffffffffffffffffffffffffffffffffffffffffffffffffffffffffffffffe1690525f610c4d8383640100002600612525565b949350505050565b6101008301805160011790525f60048301821015610cef5761022084015183037fffffffffffffffffffffffffffffffffffffffffffffffffffffffffffffffe0017f53c102422473590ce12511beab7637e1c33b596a7d58a80ea98463ad78950000175b6040517f25a7646800000000000000000000000000000000000000000000000000000000815260040161061191815260200190565b825160f01c612f2a8114610d7e5761022085015184037fffffffffffffffffffffffffffffffffffffffffffffffffffffffffffffffe0017f53c102422473590ce12511beab7637e1c33b596a7d58a80ea98463ad78950000176040517f3e47169c00000000000000000000000000000000000000000000000000000000815260040161061191815260200190565b6003840193505f5b83851015610e235784515f1a7fffffffffffffffffffffffffffffffffffffffffffffffffffffffffffffffd18101610e17577fffffffffffffffffffffffffffffffffffffffffffffffffffffffffffffffff86015160f01c7fffffffffffffffffffffffffffffffffffffffffffffffffffffffffffffd5d18101610e1557505050600193840193610e23565b505b85600101955050610d86565b80610e795761022086015185037fffffffffffffffffffffffffffffffffffffffffffffffffffffffffffffffe0017f53c102422473590ce12511beab7637e1c33b596a7d58a80ea98463ad7895000017610cba565b5092949350505050565b81515f90819081908190600181831a1b6703ff200000000000811615610faa5786610eaf89600161501a565b1015610fa157600182811a1b7ffffffffffffffffffffffffffffffffffeffffffffffffffffff00000000000082821701610eec575f9350610f9b565b7ffffffffffffffffffffffffffffffffffffffffffeffffffffff00000000000082821701610f96576102208a015189037fffffffffffffffffffffffffffffffffffffffffffffffffffffffffffffffe0017f53c102422473590ce12511beab7637e1c33b596a7d58a80ea98463ad78950000176040517f75c28ff900000000000000000000000000000000000000000000000000000000815260040161061191815260200190565b600193505b50610fef565b60019250610fef565b640400000000811615610fc05760029250610fef565b6b080000000000000000000000811615610fdd5760039250610fef565b505f945086935084925061102c915050565b505f905061101d88888861101583876101a09190910151600291820201015161ffff1690565b63ffffffff16565b90975060019550879450925050505b93509350939050565b73ffffffffffffffffffffffffffffffffffffffff8111156110d25761022083015182037fffffffffffffffffffffffffffffffffffffffffffffffffffffffffffffffe0017f53c102422473590ce12511beab7637e1c33b596a7d58a80ea98463ad78950000176040517f9d7e517e00000000000000000000000000000000000000000000000000000000815260040161061191815260200190565b60c09092018051604080516020810190915290815260a01b9290921790915250565b60208101602082510282015b8082101561113d5781518151835281526020909101907fffffffffffffffffffffffffffffffffffffffffffffffffffffffffffffffe001611100565b505050565b5f5b818310156105045782515f90600190821a1b6f07fffffe8000000000000000000000008116156113bf57610100860151600116156111fe5761022086015185037fffffffffffffffffffffffffffffffffffffffffffffffffffffffffffffffe0017f53c102422473590ce12511beab7637e1c33b596a7d58a80ea98463ad78950000175b6040517f5520a51700000000000000000000000000000000000000000000000000000000815260040161061191815260200190565b6f07fffffe0000000000000000000000008116156112d15761123185856f07fffffe0000000003ff20000000000061254e565b90955091505f611241878461261d565b50905080156112cb5761022087015186037fffffffffffffffffffffffffffffffffffffffffffffffffffffffffffffffe0017f53c102422473590ce12511beab7637e1c33b596a7d58a80ea98463ad78950000176040517f53e6feba00000000000000000000000000000000000000000000000000000000815260040161061191815260200190565b506112f2565b6112ef60018601856f07fffffe0000000003ff200000000000612525565b94505b856040015160ff1660ff148061130f57508560a0015160ff1660ff145b156113955761022086015185037fffffffffffffffffffffffffffffffffffffffffffffffffffffffffffffffe0017f53c102422473590ce12511beab7637e1c33b596a7d58a80ea98463ad78950000176040517f3820634100000000000000000000000000000000000000000000000000000000815260040161061191815260200190565b604086018051600190810190915260a087018051909101905261010086018051600917905261153e565b640100002600811615611411576113df6001860185640100002600612525565b610100870180517ffffffffffffffffffffffffffffffffffffffffffffffffffffffffffffffffe169052945061153e565b67040000000000000081161561145d575050610100840180516008177ffffffffffffffffffffffffffffffffffffffffffffffffffffffffffffffffe16905260019290920191610504565b658000000000008116156114ed5761022086015185037fffffffffffffffffffffffffffffffffffffffffffffffffffffffffffffffe0017f53c102422473590ce12511beab7637e1c33b596a7d58a80ea98463ad78950000175b6040517fedad0c5800000000000000000000000000000000000000000000000000000000815260040161061191815260200190565b61022086015185037fffffffffffffffffffffffffffffffffffffffffffffffffffffffffffffffe0017f53c102422473590ce12511beab7637e1c33b596a7d58a80ea98463ad78950000176111c9565b5050611144565b5f5b818310156105045782515f90600190821a1b6f07fffffe00000000000000000000000081161561176557610100860151600116156116015761022086015185037fffffffffffffffffffffffffffffffffffffffffffffffffffffffffffffffe0017f53c102422473590ce12511beab7637e1c33b596a7d58a80ea98463ad78950000175b6040517f4e803df600000000000000000000000000000000000000000000000000000000815260040161061191815260200190565b8461161d81866f07fffffe0000000003ff20000000000061254e565b80945081975050505f8061163689610240015186612698565b9150915081156116775761164b89898961276c565b97505f6116588a836129f7565b90506116658a8383612a1d565b50610100890180516002179052611751565b6116818986612c02565b909250905081156116a557611697895f83612a1d565b6116a089612c7c565b611751565b5f6060848a03600581016116ba8d8d8d61276c565b9b508c6101e0015151602002602001810190505f60059050604051935060208201840160405282818501528184528394506117028860056116fb8760200190565b0185612ce2565b5050506101e08b01518051600101906117359061172f836117268680510160200190565b90602002900390565b83612ceb565b506117428b60ff84612a1d565b50506101008901805160021790525b505050610100860180516001179052611afd565b61010086015160021615611887576501000000000081165f036118035761022086015185037fffffffffffffffffffffffffffffffffffffffffffffffffffffffffffffffe0017f53c102422473590ce12511beab7637e1c33b596a7d58a80ea98463ad78950000176040517f23b5c6ea00000000000000000000000000000000000000000000000000000000815260040161061191815260200190565b606086810180515f1a6003019190829053603b82111561184f576040517f6232f2d900000000000000000000000000000000000000000000000000000000815260040160405180910390fd5b5050610100860180517ffffffffffffffffffffffffffffffffffffffffffffffffffffffffffffffffc169052600190940193611afd565b65020000000000811615611963576060868101515f90811a91908290036119295761022088015187037fffffffffffffffffffffffffffffffffffffffffffffffffffffffffffffffe0017f53c102422473590ce12511beab7637e1c33b596a7d58a80ea98463ad78950000176040517f7f9db54200000000000000000000000000000000000000000000000000000000815260040161061191815260200190565b808801600383039250828153826004820101515f1a8360028301015160f01c600101535061195688612c7c565b5050600190940193611afd565b6401000026008116156119b5576119836001860185640100002600612525565b610100870180517ffffffffffffffffffffffffffffffffffffffffffffffffffffffffffffffffe1690529450611afd565b6b0800000003ff2004000000008116156119f0576119d4868686612cf7565b94506119df86612c7c565b610100860180516001179052611afd565b65100000000000811615611a1557611a088686612e21565b5050600190920191610504565b670800000000000000811615611a4d57611a2f8686612e21565b611a3886613279565b50506004610100850152600190920191610504565b65800000000000811615611aac5761022086015185037fffffffffffffffffffffffffffffffffffffffffffffffffffffffffffffffe0017f53c102422473590ce12511beab7637e1c33b596a7d58a80ea98463ad78950000176114b8565b61022086015185037fffffffffffffffffffffffffffffffffffffffffffffffffffffffffffffffe0017f53c102422473590ce12511beab7637e1c33b596a7d58a80ea98463ad78950000176115cc565b5050611547565b60e08101518151516060919060f082901c9060208114611b50576040517f858f2dcf00000000000000000000000000000000000000000000000000000000815260040160405180910390fd5b604051935060208401601083045f8183535060016008850483018101928391015f80805b88811015611bad5789811c61ffff81165163ffff0000601092831b16811760e01b8786015284019360f08390031b929092179101611b74565b50825117909152878203017fffffffffffffffffffffffffffffffffffffffffffffffffffffffffffffffe08181018952908801601f01166040525f5b82811015611c2d576002810288016003015161ffff90811683018051602060f082901c019260e09190911c1690611c22838284612ce2565b505050600101611bea565b50505050505050919050565b6060805f611c46846135a7565b90505f5b81811015611c89575f611c5d86836135c1565b60040190505f611c6d87846135f0565b60040282019050611c7f888383613607565b5050600101611c4a565b5083611c94866138c7565b92509250505b9250929050565b5f80808080611cb188888861393c565b985090925090508181036040811115611d455761022089015183037fffffffffffffffffffffffffffffffffffffffffffffffffffffffffffffffe0017f53c102422473590ce12511beab7637e1c33b596a7d58a80ea98463ad78950000176040517fff2f594900000000000000000000000000000000000000000000000000000000815260040161061191815260200190565b805f03611dcd5761022089015183037fffffffffffffffffffffffffffffffffffffffffffffffffffffffffffffffe0017f53c102422473590ce12511beab7637e1c33b596a7d58a80ea98463ad78950000176040517fc75cd50900000000000000000000000000000000000000000000000000000000815260040161061191815260200190565b60028106600103611e595761022089015183037fffffffffffffffffffffffffffffffffffffffffffffffffffffffffffffffe0017f53c102422473590ce12511beab7637e1c33b596a7d58a80ea98463ad78950000176040517fd76d9b5700000000000000000000000000000000000000000000000000000000815260040161061191815260200190565b6001820397505f5b838910611fdc5788515f90811a906001821b906703ff000000000000821615611ead57507fffffffffffffffffffffffffffffffffffffffffffffffffffffffffffffffd08201611fa6565b6c7e000000000000000000000000821615611eeb57507fffffffffffffffffffffffffffffffffffffffffffffffffffffffffffffffa98201611fa6565b687e0000000000000000821615611f2557507fffffffffffffffffffffffffffffffffffffffffffffffffffffffffffffffc98201611fa6565b6102208d01518c037fffffffffffffffffffffffffffffffffffffffffffffffffffffffffffffffe0017f53c102422473590ce12511beab7637e1c33b596a7d58a80ea98463ad78950000176040517f69f1e3e600000000000000000000000000000000000000000000000000000000815260040161061191815260200190565b7fffffffffffffffffffffffffffffffffffffffffffffffffffffffffffffffff909b019a831b96909617955050600401611e61565b50509350909150505b935093915050565b5f805f805f80611ffd888861398c565b92965090945092509050612012898486613e2b565b8261201d8383613eaf565b9550955050505050935093915050565b5f80808061203c878787613f01565b7fffffffffffffffffffffffffffffffffffffffffffffffffffffffffffffffe08301805184840382529199509294509092505f9161207a816140bb565b9190529698969750505050505050565b6001909101905f80836120ae81856fffffffffdffffffffffffffeffffd9ff612525565b9450848181036121395761022087015186037fffffffffffffffffffffffffffffffffffffffffffffffffffffffffffffffe0017f53c102422473590ce12511beab7637e1c33b596a7d58a80ea98463ad78950000176040517ff73a1aa800000000000000000000000000000000000000000000000000000000815260040161061191815260200190565b612144878787610c11565b95508561216281876fffffffffdfffffffffffffffffffffff612525565b9650868681106121ee5761022089015188037fffffffffffffffffffffffffffffffffffffffffffffffffffffffffffffffe0017f53c102422473590ce12511beab7637e1c33b596a7d58a80ea98463ad78950000175b6040517fc4b1913500000000000000000000000000000000000000000000000000000000815260040161061191815260200190565b875160015f91821a1b906b2000000000000000000000008216900361225e576102208a015189037fffffffffffffffffffffffffffffffffffffffffffffffffffffffffffffffe0017f53c102422473590ce12511beab7637e1c33b596a7d58a80ea98463ad78950000176121b9565b506001909701968761201d8a868686866140e7565b60605f825160020267ffffffffffffffff81111561229357612293614d55565b6040519080825280601f01601f1916602001820160405280156122bd576020820181803683370190505b50905061ffff80196020850160208651028101600285015b818310156122f7578051835186169085161781526020909201916002016122d5565b50939695505050505050565b5f815160010361238e575060208101517bffffffffffffffffffffffffffffffffffffffffffffffffffffffff8116601b0b60e082901d5f6123468383836142ab565b905061ffff811115612384576040517f7938075c00000000000000000000000000000000000000000000000000000000815260040160405180910390fd5b9250610239915050565b81515f0361239d57505f919050565b6040517f1ac6690800000000000000000000000000000000000000000000000000000000815260040160405180910390fd5b5f81516002036124a757602082015160408301517bffffffffffffffffffffffffffffffffffffffffffffffffffffffff8216601b0b60e083901d5f6124168383836142ab565b7bffffffffffffffffffffffffffffffffffffffffffffffffffffffff8516601b0b935060e085901d925090505f61244f8484836142ab565b905060ff821180612460575060ff81115b15612497576040517f7938075c00000000000000000000000000000000000000000000000000000000815260040160405180910390fd5b60081b1794506102399350505050565b60028251101561239d576040517ff16066b000000000000000000000000000000000000000000000000000000000815260040160405180910390fd5b5f81515f1461251e576040517f9f16b02000000000000000000000000000000000000000000000000000000000815260040160405180910390fd5b505f919050565b5f5b5f82600186515f1a1b1611838510161561254657600184019350612527565b509192915050565b5f8080600181878703602081116125655780612568565b60205b915050875192505b8519600184841a1b1615818310161561258e57600182019150612570565b9681019660208290036008810293841c90931b9261261057604080516020810185905201604080517fffffffffffffffffffffffffffffffffffffffffffffffffffffffffffffffe0818403018152908290527fe47fe8b700000000000000000000000000000000000000000000000000000000825261061191600401614f96565b5095969095509350505050565b5f806126298484612c02565b909250905081611c9a5750610120830180515f93845260209384902060408051928352948201855293909401517fffffffffffffffffffffffffffffffffffffffffffffffffffffffff00000000909316601084901b62ff00001617909317909252909160ff90911660010190565b600182810180515f928392600560ff93909316602102870192830192909101835b8183101561275d5760018301516021909301805190935f90819060ff1681806126e2838e614307565b915091508186165f03612704575f809b509b5050505050505050505050611c9a565b5f87612714600185038916614332565b016004028b015195505062ffffff90811693508416830391506127489050575060019750601c1a9550611c9a945050505050565b61275183614332565b840193505050506126b9565b505f9788975095505050505050565b81516101e08401515f80825291600190831a1b907ffffffffffffffffffffffffffffffffffffffffffffffffff0000000000000008201610e79576127b08561505a565b610100870180517ffffffffffffffffffffffffffffffffffffffffffffffffffffffffffffffffe169052805190955060015f91821a1b9250805b8587101561299557865160015f9190911a1b935064010000260084161561281e57612817888888610c11565b96506127eb565b674000000000000000841615612842576128378761505a565b965060019050612995565b6001886101000151165f0361291357600482036128da5761022088015187037fffffffffffffffffffffffffffffffffffffffffffffffffffffffffffffffe0017f53c102422473590ce12511beab7637e1c33b596a7d58a80ea98463ad78950000176040517f8c9fdbb300000000000000000000000000000000000000000000000000000000815260040161061191815260200190565b5f6128e689898961440a565b60208581028701018190526101008b0180516001179052909850905061290b8361505a565b9250506127eb565b61022088015187037fffffffffffffffffffffffffffffffffffffffffffffffffffffffffffffffe0017f53c102422473590ce12511beab7637e1c33b596a7d58a80ea98463ad78950000175b6040517f722cd24a00000000000000000000000000000000000000000000000000000000815260040161061191815260200190565b806129eb5761022088015187037fffffffffffffffffffffffffffffffffffffffffffffffffffffffffffffffe0017f53c102422473590ce12511beab7637e1c33b596a7d58a80ea98463ad7895000017612960565b50905250919392505050565b6101c08201516002828102820101516101e08401515f9261ffff90921691906104a39083565b612a2683614432565b610100830180517ffffffffffffffffffffffffffffffffffffffffffffffffffffffffffffffffb1660081790526020808401515f90811a8501602101805190911a60ff811492919060018101825350508115612aaf576040517f8092d1ea00000000000000000000000000000000000000000000000000000000815260040160405180910390fd5b5050825180516060808601515f90811a87016061018051939461ffff8616949093921a60ff81149291600886048503601c0191600181018253505f60038201537fffffffffffffffffffffffffffffffffffffffffffffffffffffffffffffffe30180517fffffffffffffffffffffffffffffffffffffffffffffffffffffffffffff00001690911790528115612b72576040517f3abd0c5e00000000000000000000000000000000000000000000000000000000815260040160405180910390fd5b5050602090920183821b176018820185901b178083529160e0829003612bfa5760408051601083901b6020908117601f9092017fffffffffffffffffffffffffffffffffffffffffffffffffffffffffffffffe016918252810190915281517fffffffffffffffffffffffffffffffffffffffffffffffffffffffffffff0000168117825286525b505050505050565b6101208201516101408301515f8381526020808220919384939290911c91600160ff84161b80821615612c675761ffff83165b8015612c65578360201c8503612c58576001965061ffff8460101c169550612c65565b51925061ffff8316612c35565b505b17610140909601959095525090939092509050565b6060818101515f90811a919082900361113d57602083810180515f1a600101919082815350603e8210612cdb576040517fe826b5f600000000000000000000000000000000000000000000000000000000815260040160405180910390fd5b5050505050565b8083835e505050565b6020810283835e505050565b5f8080612d05868686610e83565b9096509250905080612d935761022086015185037fffffffffffffffffffffffffffffffffffffffffffffffffffffffffffffffe0017f53c102422473590ce12511beab7637e1c33b596a7d58a80ea98463ad78950000175b6040517fb0e4e5b300000000000000000000000000000000000000000000000000000000815260040161061191815260200190565b5f80612d9e846144be565b6101808901511615612ddf5761016088015160101c5b8015801590612dc1575082155b15612ddd57602081015190519085149250600190910190612db4565b505b61016088015161ffff16612e05600184612df95782612dfd565b8383035b8b9190612a1d565b5081612e1557612e1588856144d5565b50949695505050505050565b6060828101515f1a908115612eb15761022084015183037fffffffffffffffffffffffffffffffffffffffffffffffffffffffffffffffe0017f53c102422473590ce12511beab7637e1c33b596a7d58a80ea98463ad78950000176040517f6fb11cdc00000000000000000000000000000000000000000000000000000000815260040161061191815260200190565b5050612ebc82614432565b61010082018051600416600890811790915260a0830151602084015160ff8083169360f89290921c9290911c1681035f819003612fe6576004856101000151165f03612f835761022085015184037fffffffffffffffffffffffffffffffffffffffffffffffffffffffffffffffe0017f53c102422473590ce12511beab7637e1c33b596a7d58a80ea98463ad78950000176040517fab1d3ea700000000000000000000000000000000000000000000000000000000815260040161061191815260200190565b90820190603e8210612fc1576040517fe826b5f600000000000000000000000000000000000000000000000000000000815260040160405180910390fd5b60f882901b6020860152610200850151612fdb9084614527565b610200860152613101565b600181111561310157808310156130785761022085015184037fffffffffffffffffffffffffffffffffffffffffffffffffffffffffffffffe0017f53c102422473590ce12511beab7637e1c33b596a7d58a80ea98463ad78950000176040517f78ef278200000000000000000000000000000000000000000000000000000000815260040161061191815260200190565b808311156131015761022085015184037fffffffffffffffffffffffffffffffffffffffffffffffffffffffffffffffe0017f53c102422473590ce12511beab7637e1c33b596a7d58a80ea98463ad78950000176040517f43168e6800000000000000000000000000000000000000000000000000000000815260040161061191815260200190565b8082036001016020601083028101905b818110156132655760a08801516020848a0181015191831c61ffff16915f1a9060015b8281116132535760208406601c0361314d57925160f01c925b83516102008d015160019190911a9061316690826145ab565b6102008e01525f828514801561317c5750896001145b613187576001613189565b8b5b6102008f015190915061319c90826145f1565b6102008f0152600f8111806131b15750600f82115b15613237576102208e01518d037fffffffffffffffffffffffffffffffffffffffffffffffffffffffffffffffe0017f53c102422473590ce12511beab7637e1c33b596a7d58a80ea98463ad78950000176040517f7ea1869f00000000000000000000000000000000000000000000000000000000815260040161061191815260200190565b818160041b176001870153505060049390930192600101613134565b50506001909401935050601001613111565b5050505060081b60a0909301929092525050565b60e081015160208083015160f083811c925f9290921a60010191908390036132cd576040517fa806284100000000000000000000000000000000000000000000000000000000815260040160405180910390fd5b610200850151855180515f928392909160219060101c61ffff165b80156132ff57805190925060101c61ffff166132e8565b506040518a82018051919650601c8401939160049160248901915f90811a805b8d8310156133e45760048202860195506004878a03045b8082111561335457965161ffff16601c810199509690036007613336565b506004810298899003805186529894909401938103865b60078211156133b0575160101c61ffff1680518652601c909501947ffffffffffffffffffffffffffffffffffffffffffffffffffffffffffffffff99091019061336b565b81156133cb575160101c61ffff168051865260048202909501945b50505060019182018051909291909101905f1a8061331f565b50505082895250600488810180517fffffffffffffffffffffffffffffffffffffffffffffffffffffffff00000000167fffffffffffffffffffffffffffffffffffffffffffffffffffffffffffffffff9290940491909101601881901b8817939093179052601f017fffffffffffffffffffffffffffffffffffffffffffffffffffffffffffffffe01660405260ff1094505083156134b0576040517fe972437e00000000000000000000000000000000000000000000000000000000815260040160405180910390fd5b6134bd6001808a1b615091565b891685891b60f06134cf8b601061501a565b901b171760e08b01526101008a0180517ffffffffffffffffffffffffffffffffffffffffffffffffffffffffffffffff7169052604080516020601f9091017fffffffffffffffffffffffffffffffffffffffffffffffffffffffffffffffe01681815280820183525f80517fffffffffffffffffffffffffffffffffffffffffffffffffffffffffffff00001682178152908d52908c01819052908b0181905260608b0181905260808b0181905260a08b018190526101208b018190526101408b018190526102008b015250505050505050505050565b5f81515f036135b757505f919050565b50602001515f1a90565b5f806135cc846135a7565b60020260010190505f6135df8585614664565b949091019093016020019392505050565b5f806135fc84846135c1565b515f1a949350505050565b8082101561113d5781517fffffffffffffffffffffffffffffffffffffffffffffffffffffffffffffff0160f882901c016138415760c08401515b801561383f5760a081901c5161016086015161ffff60e085901c1660208101805160089390931b62ffff0016600187901a1760e81b7cffffffffffffffffffffffffffffffffffffffffffffffffffffffffff909316929092179091526040517f570c7a630000000000000000000000000000000000000000000000000000000081529192915f908190819073ffffffffffffffffffffffffffffffffffffffff86169063570c7a63906136fa908790600401614f96565b5f60405180830381865afa158015613714573d5f803e3d5ffd5b505050506040513d5f823e601f3d9081017fffffffffffffffffffffffffffffffffffffffffffffffffffffffffffffffe01682016040526137599190810190615130565b92509250925082156138355781516004146137a257816040517fbe2d187d0000000000000000000000000000000000000000000000000000000081526004016106119190614f96565b60208201517fffffffff00000000000000000000000000000000000000000000000000000000167bffffffffffffffffffffffffffffffffffffffffffffffffffffffff88161789525f5b815181101561382a5761382282828151811061380b5761380b6151dd565b60200260200101518c6144d590919063ffffffff16565b6001016137ed565b50505050505061383f565b5050505050613642565b505b5081517fffffffffffffffffffffffffffffffffffffffffffffffffffffffffffffff0160f882901c016138bb57606061ffff8260e01c1690505f6003820152600581019050806040517faedfba2f0000000000000000000000000000000000000000000000000000000081526004016106119190614f96565b50600482019150613607565b6101608101516040805161ffff8316808252602080820283019081019093529092909160109190911c90835b808211156139335760208301518252915161ffff16917fffffffffffffffffffffffffffffffffffffffffffffffffffffffffffffffe0909101906138f3565b50505050919050565b5f80808061394b86600261501a565b9050806c7e0000007e03ff0000000000005b86821081600184515f1a1b161515161561397c5760018201915061395d565b5090979096508695509350505050565b5f8281806139a1838665200000000000612525565b925085831415836139bb81886703ff000000000000612525565b94508085036139f557507f34bd20690000000000000000000000000000000000000000000000000000000094505f9250829150613e229050565b5f80613a018a886146ba565b90925090507fffffffff00000000000000000000000000000000000000000000000000000000821615613a3f575095505f9350839250613e22915050565b86519095506540000000000060015f9290921a9190911b161515888710169150508015613cce57506001909301925f84613a8281896703ff000000000000612525565b9550808603613abd57507f7bfa48af0000000000000000000000000000000000000000000000000000000095505f9350839250613e22915050565b855b7fffffffffffffffffffffffffffffffffffffffffffffffffffffffffffffffff81018051908a1160015f9290921a9190911b660100000000000016151516600103613b2c577fffffffffffffffffffffffffffffffffffffffffffffffffffffffffffffffff01613abf565b818114613b83575f80613b3f84846146ba565b90925090507fffffffff00000000000000000000000000000000000000000000000000000000821615613b7f575097505f9550859450613e229350505050565b9350505b5f831215613bbe57507f7bfa48af0000000000000000000000000000000000000000000000000000000096505f9450849350613e2292505050565b8315613bca57825f0392505b80820394505f851315613c0a57507f013b2aaa0000000000000000000000000000000000000000000000000000000096505f9450849350613e2292505050565b855f03613c1957829550613ccb565b5f8590036043811115613c5a57507f32b8b8be0000000000000000000000000000000000000000000000000000000097505f9550859450613e229350505050565b600a0a8681025f88838381613c7157613c7161502d565b0514159050601b82900b8214158180613c875750805b15613cc357507f32b8b8be000000000000000000000000000000000000000000000000000000009a505f9850889750613e229650505050505050565b505084019650505b50505b84516c2000000020000000000000000060015f9290921a9190911b161515878610168015613e135760019095019485613d0e818a65200000000000612525565b965086613d24818b6703ff000000000000612525565b9750808803613d6157507f013b2aaa0000000000000000000000000000000000000000000000000000000097505f9550859450613e229350505050565b505f80613d6e838a6146ba565b90925090507fffffffff00000000000000000000000000000000000000000000000000000000821615613dae575097505f9550859450613e229350505050565b9250508482015f83138015613dc257508581125b80613dd657505f83128015613dd657508581135b15613e0f57507fd556b1110000000000000000000000000000000000000000000000000000000097505f9550859450613e229350505050565b9450505b845f03613e1e575f93505b5050505b92959194509250565b7fffffffff0000000000000000000000000000000000000000000000000000000081161561113d576102208301515f9083037fffffffffffffffffffffffffffffffffffffffffffffffffffffffffffffffe0017f53c102422473590ce12511beab7637e1c33b596a7d58a80ea98463ad78950000179050815f528060045260245ffd5b5f805f613ebc85856147e4565b9150915080610731576040517f22c9f7bb0000000000000000000000000000000000000000000000000000000081526004810186905260248101859052604401610611565b5f80806001850181806f7ffffffffffffffffffffffb0000000081807fffffffffffffffffffffffffffffffffffffffffffffffffffffffffffffffff8b8b0301602080821015613f4f5750805b875193505b84600185851a1b1615158184101615613f7257600183019250613f54565b505080602003613ffd576102208c01518b037fffffffffffffffffffffffffffffffffffffffffffffffffffffffffffffffe0017f53c102422473590ce12511beab7637e1c33b596a7d58a80ea98463ad78950000176040517f30515bda00000000000000000000000000000000000000000000000000000000815260040161061191815260200190565b85810180519095505f1a6001811b64040000000016158061401d5750858b145b156140a3576102208d015186037fffffffffffffffffffffffffffffffffffffffffffffffffffffffffffffffe0017f53c102422473590ce12511beab7637e1c33b596a7d58a80ea98463ad78950000176040517f04022fbf00000000000000000000000000000000000000000000000000000000815260040161061191815260200190565b50949b939a505060018a019850919650505050505050565b5f80601f90505f60e09050818451168082175f528060208601600183016020035e50505f519392505050565b5f60608186860361ffff81111561412d576040517fb6da789c00000000000000000000000000000000000000000000000000000000815260048101829052602401610611565b604080516041888803848101838101929092017fffffffffffffffffffffffffffffffffffffffffffffffffffffffffffffffe01690935260028281018590520181529350602284019250614183898484612ce2565b6141908783850183612ce2565b50505060c08701515b801561425a5760a081901c516040517fc6c0cbb60000000000000000000000000000000000000000000000000000000081529091905f90819073ffffffffffffffffffffffffffffffffffffffff84169063c6c0cbb6906141fe908890600401614f96565b6040805180830381865afa158015614218573d5f803e3d5ffd5b505050506040513d601f19601f8201168201806040525081019061423c919061520a565b9150915081156142525794506104a39350505050565b505050614199565b61022088015187037fffffffffffffffffffffffffffffffffffffffffffffffffffffffffffffffe0017f53c102422473590ce12511beab7637e1c33b596a7d58a80ea98463ad7895000017612d5e565b5f805f6142b98686866148ea565b91509150806142fe576040517f05e476780000000000000000000000000000000000000000000000000000000081526004810187905260248101869052604401610611565b50949350505050565b5f80825f528360205360215f2090506001815f1a1b915062ffffff8116611c9a575060019250929050565b5f7fffffffffffffffffffffffffffffffffffffffffffffffffffffffffffffffff82036143635750610100919050565b507f0f0f0f0f0f0f0f0f0f0f0f0f0f0f0f0f0f0f0f0f0f0f0f0f0f0f0f0f0f0f0f0f7f5555555555555555555555555555555555555555555555555555555555555555600183901c16909103600281901c7f3333333333333333333333333333333333333333333333333333333333333333908116911601600481901c01167f01010101010101010101010101010101010101010101010101010101010101010260f81c90565b5f805f805f61441a888888610e83565b925092509250821561425a579093509150611fe59050565b8051602080830180515f90811a8086016021015160a0939190831a6144845785518488018051600861ffff909316929092046020038801601e83901a840360010160100290811b909217905260f01092505b50508015612cdb576040517f5b1a42d600000000000000000000000000000000000000000000000000000000815260040160405180910390fd5b5f6144cb61010083615234565b6001901b92915050565b6101608201805160408051808201909152601091821c808252602082018590528351600161ffff909116019282901b92909217909252614514836144be565b6101809094018051909417909352505050565b5f61453283836145f1565b925060ff600884901c8116830190811115614579576040517fe826b5f600000000000000000000000000000000000000000000000000000000815260040160405180910390fd5b7fffffffffffffffffffffffffffffffffffffffffffffffffffffffffffff00ff841660089190911b17905092915050565b5f60ff8316828110156145ea576040517f23b49a2a00000000000000000000000000000000000000000000000000000000815260040160405180910390fd5b5050900390565b5f60ff808416830190600885901c811690601086901c90831115614641576040517fe826b5f600000000000000000000000000000000000000000000000000000000815260040160405180910390fd5b8083111561464c5750815b601081901b600883901b841717935050505092915050565b5f61466e836135a7565b82106146aa5781836040517ffcfaeff100000000000000000000000000000000000000000000000000000000815260040161061192919061526c565b50600202016003015161ffff1690565b81515f90819065200000000000600191831a9190911b161515838510168085019082806146e78488614af1565b90925090507fffffffff00000000000000000000000000000000000000000000000000000000821615614722575093505f9250611c9a915050565b825f03614785577f7fffffffffffffffffffffffffffffffffffffffffffffffffffffffffffffff8111614756575f614778565b7f0fdc2635000000000000000000000000000000000000000000000000000000005b95509350611c9a92505050565b7f800000000000000000000000000000000000000000000000000000000000000081116147b2575f6147d4565b7f0fdc2635000000000000000000000000000000000000000000000000000000005b95505f0393505050509250929050565b5f601b83900b8314838382614848577d90e40fbeea1d3a4abc8955e946fe31cdcf66f634e100000000000000000086051561482857620186a0860595506005850194505b8586601b0b1461484357600a86059550846001019450614828565b61485e565b855f0361485e57505f925060019150611c9a9050565b848560030b146148ba575f85121561487e57505f9250829150611c9a9050565b6040517fd556b1110000000000000000000000000000000000000000000000000000000081526004810183905260248101829052604401610611565b50507bffffffffffffffffffffffffffffffffffffffffffffffffffffffff841660e084901b1791509250929050565b5f805f851215614930576040517f4a7d166b0000000000000000000000000000000000000000000000000000000081526004810186905260248101859052604401610611565b845f0361494257505f90506001611fe5565b8460ff841685018581121561498d576040517fd556b1110000000000000000000000000000000000000000000000000000000081526004810188905260248101879052604401610611565b5f805f8312156149f7577fffffffffffffffffffffffffffffffffffffffffffffffffffffffffffffffb38312156149ce575f809550955050505050611fe5565b825f03600a0a91508184816149e5576149e561502d565b0495505084029091149150611fe59050565b5f831315614ae157604d831315614a4d576040517fc849483b000000000000000000000000000000000000000000000000000000008152600481018a90526024810189905260ff88166044820152606401610611565b82600a0a9150817fffffffffffffffffffffffffffffffffffffffffffffffffffffffffffffffff81614a8257614a8261502d565b04841115614acf576040517fc849483b000000000000000000000000000000000000000000000000000000008152600481018a90526024810189905260ff88166044820152606401610611565b5091909102925060019150611fe59050565b8360019550955050505050611fe5565b5f80828410614b2457507f34bd20690000000000000000000000000000000000000000000000000000000090505f611c9a565b835f03614b5d576040517fda6966d400000000000000000000000000000000000000000000000000000000815260040160405180910390fd5b60305f7fffffffffffffffffffffffffffffffffffffffffffffffffffffffffffffffff8501815b878210158015614b955750604d83105b15614bd857815160018401937fffffffffffffffffffffffffffffffffffffffffffffffffffffffffffffffff90930192600a0a5f9190911a8590030201614b85565b878210614cfe5781515f1a8490036001811115614c2057507f0fdc26350000000000000000000000000000000000000000000000000000000095505f9450611c9a9350505050565b600a84900a8102828101831115614c6357507f0fdc26350000000000000000000000000000000000000000000000000000000096505f9550611c9a945050505050565b9190910190507fffffffffffffffffffffffffffffffffffffffffffffffffffffffffffffffff909101905b878210614cfe5781515f1a60308114614cd357507f0fdc26350000000000000000000000000000000000000000000000000000000095505f9450611c9a9350505050565b507fffffffffffffffffffffffffffffffffffffffffffffffffffffffffffffffff90910190614c8f565b5f9890975095505050505050565b614d14615284565b565b5f60208284031215614d26575f80fd5b81357fffffffff0000000000000000000000000000000000000000000000000000000081168114610507575f80fd5b7f4e487b71000000000000000000000000000000000000000000000000000000005f52604160045260245ffd5b604051601f82017fffffffffffffffffffffffffffffffffffffffffffffffffffffffffffffffe016810167ffffffffffffffff81118282101715614dc957614dc9614d55565b604052919050565b5f67ffffffffffffffff821115614dea57614dea614d55565b50601f017fffffffffffffffffffffffffffffffffffffffffffffffffffffffffffffffe01660200190565b5f60208284031215614e26575f80fd5b813567ffffffffffffffff811115614e3c575f80fd5b8201601f81018413614e4c575f80fd5b8035614e5f614e5a82614dd1565b614d82565b818152856020838501011115614e73575f80fd5b816020840160208301375f91810160200191909152949350505050565b602080825282518282018290528051604084018190525f9291820190839060608601905b80831015614eea57835173ffffffffffffffffffffffffffffffffffffffff168252928401926001929092019190840190614eb4565b509695505050505050565b5f81518084528060208401602086015e5f6020828601015260207fffffffffffffffffffffffffffffffffffffffffffffffffffffffffffffffe0601f83011685010191505092915050565b604081525f614f536040830185614ef5565b8281036020848101919091528451808352858201928201905f5b81811015614f8957845183529383019391830191600101614f6d565b5090979650505050505050565b602081525f6105076020830184614ef5565b80516020808301519190811015614fe7577fffffffffffffffffffffffffffffffffffffffffffffffffffffffffffffffff8160200360031b1b821691505b50919050565b7f4e487b71000000000000000000000000000000000000000000000000000000005f52601160045260245ffd5b8082018082111561018057610180614fed565b7f4e487b71000000000000000000000000000000000000000000000000000000005f52601260045260245ffd5b5f7fffffffffffffffffffffffffffffffffffffffffffffffffffffffffffffffff820361508a5761508a614fed565b5060010190565b8181038181111561018057610180614fed565b80518015158114610239575f80fd5b5f82601f8301126150c2575f80fd5b8151602067ffffffffffffffff8211156150de576150de614d55565b8160051b6150ed828201614d82565b9283528481018201928281019087851115615106575f80fd5b83870192505b848310156151255782518252918301919083019061510c565b979650505050505050565b5f805f60608486031215615142575f80fd5b61514b846150a4565b9250602084015167ffffffffffffffff80821115615167575f80fd5b818601915086601f83011261517a575f80fd5b8151615188614e5a82614dd1565b81815288602083860101111561519c575f80fd5b8160208501602083015e5f60208383010152809550505060408601519150808211156151c6575f80fd5b506151d3868287016150b3565b9150509250925092565b7f4e487b71000000000000000000000000000000000000000000000000000000005f52603260045260245ffd5b5f806040838503121561521b575f80fd5b615224836150a4565b9150602083015190509250929050565b5f82615267577f4e487b71000000000000000000000000000000000000000000000000000000005f52601260045260245ffd5b500690565b828152604060208201525f610c4d6040830184614ef5565b7f4e487b71000000000000000000000000000000000000000000000000000000005f52605160045260245ffdfe0288400100420b0280046b0641220186adb8a044003012020f2a881521281ac8811a000000000000000000080000000000100000000000000002000000000000000000290ea98a3a10f9c53927bda61c6395ad0e9fb4a8075dbeaf2d313e9e09b06d681dfe49062ce21ac13f83a6cc2ad2d2123422c3e0052f369e1f27267220a0a68d2f3576963b82189e475d217b131120880f24f4a8242f1af54041f7290afa3e8638acf3d13397e9fd00443a453c406bb548b9059d25a3cd1e11d0c3260b15eb4d16fc94274527bc412baf2cc2321b8f630dca9efe413ce35f1400684846c291e3435d68b13e5f9a151eb98c15239cd9c10c1f698235c8d3843d08d579273459d41a2c9ff617a5b2cd15c0031810f621af127ba34c26bb6c4137b2ad3d1b73563d0210215f36aa563921098e690457fb180376e752066a470128f11de101fcc60522de7ddd183d3d6d4296c37031cba2872e7b3af5304eee7219a8093544082b5f0801f5a523032303230323cf24e324e323cf23cf24e323032303230324e324e324e324e324e324e324e324e324e324e324e324e324e324e324e324e324e324e324e324e324e324e324e324e324e324e324e324e324e324e324e324e324e324e324e324e324e324e324e324e324e324e324e324e324e324e324e324e324e324e324e324e324e324e324e324e324e324e324e324e324e3"
  }
}