{
  "abi": [
    {
      "type": "constructor",
      "inputs": [],
      "stateMutability": "nonpayable"
    },
    {
      "type": "function",
      "name": "buildOpcodeFunctionPointers",
      "inputs": [],
      "outputs": [
        {
          "name": "",
          "type": "bytes",
          "internalType": "bytes"
        }
      ],
      "stateMutability": "view"
    },
    {
      "type": "function",
      "name": "eval4",
      "inputs": [
        {
          "name": "eval",
          "type": "tuple",
          "internalType": "struct EvalV4",
          "components": [
            {
              "name": "store",
              "type": "address",
              "internalType": "contract IInterpreterStoreV3"
            },
            {
              "name": "namespace",
              "type": "uint256",
              "internalType": "FullyQualifiedNamespace"
            },
            {
              "name": "bytecode",
              "type": "bytes",
              "internalType": "bytes"
            },
            {
              "name": "sourceIndex",
              "type": "uint256",
              "internalType": "SourceIndexV2"
            },
            {
              "name": "context",
              "type": "bytes32[][]",
              "internalType": "bytes32[][]"
            },
            {
              "name": "inputs",
              "type": "bytes32[]",
              "internalType": "StackItem[]"
            },
            {
              "name": "stateOverlay",
              "type": "bytes32[]",
              "internalType": "bytes32[]"
            }
          ]
        }
      ],
      "outputs": [
        {
          "name": "",
          "type": "bytes32[]",
          "internalType": "StackItem[]"
        },
        {
          "name": "",
          "type": "bytes32[]",
          "internalType": "bytes32[]"
        }
      ],
      "stateMutability": "view"
    },
    {
      "type": "function",
      "name": "supportsInterface",
      "inputs": [
        {
          "name": "interfaceId",
          "type": "bytes4",
          "internalType": "bytes4"
        }
      ],
      "outputs": [
        {
          "name": "",
          "type": "bool",
          "internalType": "bool"
        }
      ],
      "stateMutability": "view"
    },
    {
      "type": "error",
      "name": "BadDynamicLength",
      "inputs": [
        {
          "name": "dynamicLength",
          "type": "uint256",
          "internalType": "uint256"
        },
        {
          "name": "standardOpsLength",
          "type": "uint256",
          "internalType": "uint256"
        }
      ]
    },
    {
      "type": "error",
      "name": "BadOutputsLength",
      "inputs": [
        {
          "name": "expectedLength",
          "type": "uint256",
          "internalType": "uint256"
        },
        {
          "name": "actualLength",
          "type": "uint256",
          "internalType": "uint256"
        }
      ]
    },
    {
      "type": "error",
      "name": "CoefficientOverflow",
      "inputs": [
        {
          "name": "signedCoefficient",
          "type": "int256",
          "internalType": "int256"
        },
        {
          "name": "exponent",
          "type": "int256",
          "internalType": "int256"
        }
      ]
    },
    {
      "type": "error",
      "name": "DivisionByZero",
      "inputs": [
        {
          "name": "signedCoefficient",
          "type": "int256",
          "internalType": "int256"
        },
        {
          "name": "exponent",
          "type": "int256",
          "internalType": "int256"
        }
      ]
    },
    {
      "type": "error",
      "name": "ExponentOverflow",
      "inputs": [
        {
          "name": "signedCoefficient",
          "type": "int256",
          "internalType": "int256"
        },
        {
          "name": "exponent",
          "type": "int256",
          "internalType": "int256"
        }
      ]
    },
    {
      "type": "error",
      "name": "ExponentUnderflow",
      "inputs": [
        {
          "name": "signedCoefficient",
          "type": "int256",
          "internalType": "int256"
        },
        {
          "name": "exponent",
          "type": "int256",
          "internalType": "int256"
        }
      ]
    },
    {
      "type": "error",
      "name": "InputsLengthMismatch",
      "inputs": [
        {
          "name": "expected",
          "type": "uint256",
          "internalType": "uint256"
        },
        {
          "name": "actual",
          "type": "uint256",
          "internalType": "uint256"
        }
      ]
    },
    {
      "type": "error",
      "name": "Log10Negative",
      "inputs": [
        {
          "name": "signedCoefficient",
          "type": "int256",
          "internalType": "int256"
        },
        {
          "name": "exponent",
          "type": "int256",
          "internalType": "int256"
        }
      ]
    },
    {
      "type": "error",
      "name": "Log10Zero",
      "inputs": []
    },
    {
      "type": "error",
      "name": "LossyConversionToFloat",
      "inputs": [
        {
          "name": "signedCoefficient",
          "type": "int256",
          "internalType": "int256"
        },
        {
          "name": "exponent",
          "type": "int256",
          "internalType": "int256"
        }
      ]
    },
    {
      "type": "error",
      "name": "MaximizeOverflow",
      "inputs": [
        {
          "name": "signedCoefficient",
          "type": "int256",
          "internalType": "int256"
        },
        {
          "name": "exponent",
          "type": "int256",
          "internalType": "int256"
        }
      ]
    },
    {
      "type": "error",
      "name": "MemoryKVOverflow",
      "inputs": [
        {
          "name": "pointer",
          "type": "uint256",
          "internalType": "uint256"
        }
      ]
    },
    {
      "type": "error",
      "name": "MulDivOverflow",
      "inputs": [
        {
          "name": "x",
          "type": "uint256",
          "internalType": "uint256"
        },
        {
          "name": "y",
          "type": "uint256",
          "internalType": "uint256"
        },
        {
          "name": "denominator",
          "type": "uint256",
          "internalType": "uint256"
        }
      ]
    },
    {
      "type": "error",
      "name": "NotAnAddress",
      "inputs": [
        {
          "name": "value",
          "type": "bytes32",
          "internalType": "bytes32"
        }
      ]
    },
    {
      "type": "error",
      "name": "OddSetLength",
      "inputs": [
        {
          "name": "length",
          "type": "uint256",
          "internalType": "uint256"
        }
      ]
    },
    {
      "type": "error",
      "name": "PowNegativeBase",
      "inputs": [
        {
          "name": "signedCoefficient",
          "type": "int256",
          "internalType": "int256"
        },
        {
          "name": "exponent",
          "type": "int256",
          "internalType": "int256"
        }
      ]
    },
    {
      "type": "error",
      "name": "SourceIndexOutOfBounds",
      "inputs": [
        {
          "name": "sourceIndex",
          "type": "uint256",
          "internalType": "uint256"
        },
        {
          "name": "bytecode",
          "type": "bytes",
          "internalType": "bytes"
        }
      ]
    },
    {
      "type": "error",
      "name": "TOFUTokenDecimalsNotDeployed",
      "inputs": [
        {
          "name": "expectedAddress",
          "type": "address",
          "internalType": "address"
        }
      ]
    },
    {
      "type": "error",
      "name": "WithTargetExponentOverflow",
      "inputs": [
        {
          "name": "signedCoefficient",
          "type": "int256",
          "internalType": "int256"
        },
        {
          "name": "exponent",
          "type": "int256",
          "internalType": "int256"
        },
        {
          "name": "targetExponent",
          "type": "int256",
          "internalType": "int256"
        }
      ]
    },
    {
      "type": "error",
      "name": "ZeroFunctionPointers",
      "inputs": []
    },
    {
      "type": "error",
      "name": "ZeroNegativePower",
      "inputs": [
        {
          "name": "b",
          "type": "bytes32",
          "internalType": "Float"
        }
      ]
    }
  ],
  "bytecode": {
    "object": "0x608060405234801561000f575f80fd5b5061001861003d565b515f0361003857604051632413c92160e01b815260040160405180910390fd5b61005d565b60606040518060c0016040528060928152602001615dd760929139905090565b615d6d8061006a5f395ff3fe608060405234801561000f575f80fd5b506004361061003f575f3560e01c806301ffc9a714610043578063514b5d4f1461006b578063d04dfe2314610080575b5f80fd5b6100566100513660046154fe565b6100a1565b60405190151581526020015b60405180910390f35b610073610185565b6040516100629190615589565b61009361008e36600461559b565b610194565b60405161006292919061560c565b5f7fffffffff0000000000000000000000000000000000000000000000000000000082167fd04dfe2300000000000000000000000000000000000000000000000000000000148061013357507fffffffff0000000000000000000000000000000000000000000000000000000082167f514b5d4f00000000000000000000000000000000000000000000000000000000145b8061017f57507f01ffc9a7000000000000000000000000000000000000000000000000000000007fffffffff000000000000000000000000000000000000000000000000000000008316145b92915050565b606061018f610390565b905090565b6060805f61021b84830135602086018035906101b09088615685565b6101bd60808901896156a0565b6101c6916157a3565b6101ce610645565b6101db60408b018b615866565b8080601f0160208091040260200160405190810160405280939291908181526020018383808284375f920191909152509297969594939250506106659050565b9050600261022c60c08601866156a0565b6102379291506158f4565b156102895761024960c08501856156a0565b6040517f01c71f3d000000000000000000000000000000000000000000000000000000008152610280925060040190815260200190565b60405180910390fd5b5f5b61029860c08601866156a0565b905081101561031b576060820151610304906102b760c08801886156a0565b848181106102c7576102c7615907565b90506020020135878060c001906102de91906156a0565b6102e9866001615961565b8181106102f8576102f8615907565b905060200201356107b0565b6060830152610314600282615961565b905061028b565b5061038661032c60a08601866156a0565b808060200260200160405190810160405280939291908181526020018383602002808284375f92019190915250859392507fffffffffffffffffffffffffffffffffffffffffffffffffffffffffffffffff915050610886565b9250925050915091565b6040805161094081018252604980825261098560208301526109d492820192909252610a16606082810191909152610bd76080830152610c5760a0830152610c6960c0830152610c8160e0830152610cc3610100830152610d18610120830152610d2a610140830152610d3c610160830152610d4e610180830152610df36101a0830152610e306101c0830152610ffc6101e08301526111666102008301526112536102208301526113f561024083018190526115446102608401526116166102808401526116dc6102a084015261182b6102c08401526102e083015261191961030083015261194861032083018190526103408301526119776103608301526119a6610380830152611a2e6103a0830152611a426103c0830152611b2f6103e0830152611b93610400830152611bab610420830152611c26610440830152611c3e610460830152611c56610480830152611c8f6104a0830152611cb96104c0830152611cd16104e0830152611ce9610500830152611cf6610520830152611df1610540830152611e13610560830152611e20610580830152611ed86105a0830152611f276105c0830152611f6a6105e0830152611f8e610600830152611f9b610620830152611fa861064083015261204161066083015261208a6106808301526120976106a08301526121166106c08301526121656106e08301526121b461070083015261220161072083015261225061074083015261229f6107608301526123576107808301526123a66107a08301526123d26107c08301526123f46107e08301526124ac6108008301526124ed6108208301526125146108408301526125616108608301526125ae6108808301526125fd6108a083015261264a6108c08301526126976108e08301526126e46109008301526127d5610920830152919081908061063c81612807565b94505050505090565b60606040518060c0016040528060928152602001615cdb60929139905090565b6106c660405180610120016040528060608152602001606081526020015f81526020015f81526020015f81526020015f73ffffffffffffffffffffffffffffffffffffffff1681526020016060815260200160608152602001606081525090565b602087810180516040600191820184028b018181015182515f91821a808252948501870281019093526041808301968381019593600285020190910191908401905b8381101561074657875160f01c83015160408051600192831a8082528301602090810290910191829052908452600290990198929092019101610708565b505050506040518061012001604052808281526020018481526020018b81526020015f81526020018a81526020018973ffffffffffffffffffffffffffffffffffffffff168152602001888152602001838152602001878152509450505050509695505050505050565b5f82815260208120600f900660100284811c61ffff1690815b82156107e357825186146107e357604083015192506107c9565b821580156108315760405193506060840160405286845285602085015281604085015260028860f01c0161ffff60f01b1989168160f01b1798505061ffff831b19881684841b179750610838565b8560208501525b50505061ffff81111561087a576040517fcadaf56d00000000000000000000000000000000000000000000000000000000815260048101829052602401610280565b849150505b9392505050565b6060805f8061089d8760e00151886040015161288b565b915091505f80885f01518960400151815181106108bc576108bc615907565b60200260200101519150819050838851146109105787516040517fd628439f000000000000000000000000000000000000000000000000000000008152610280918691600401918252602082015260400190565b875115610935575f60208951028203915060208901905061093381838b516128ae565b505b610945898a6040015183856128ba565b90505f8388106109555783610957565b875b90506060602083039050818152806109728c60600151612b4b565b975097505050505050505b935093915050565b604083015183516020600192830181029091015161ffff8516909201029003517fffffffffffffffffffffffffffffffffffffffffffffffffffffffffffffffe0909101908152809392505050565b60208084015161ffff841660010190910201517fffffffffffffffffffffffffffffffffffffffffffffffffffffffffffffffe0909101908152809392505050565b602083015180515f9161ffff851691600f601087901c811692601488901c9091169185919085908110610a4b57610a4b615907565b602002602001015190505f80610a64839060a082901c90565b7fffffffffffffffffffffffffffffffffffffffffffffffffffffffffffffffe08a0180518882526040517f58c07152000000000000000000000000000000000000000000000000000000008152939550919350915f9073ffffffffffffffffffffffffffffffffffffffff8616906358c0715290610ae99087908790600401615974565b5f60405180830381865afa158015610b03573d5f803e3d5ffd5b505050506040513d5f823e601f3d9081017fffffffffffffffffffffffffffffffffffffffffffffffffffffffffffffffe0168201604052610b489190810190615994565b905080518714610b915780516040517fc3385cb0000000000000000000000000000000000000000000000000000000008152610280918991600401918252602082015260400190565b818352602088028b019a50602081016020880281015b80821015610bc45760208d039c5081518d52602082019150610ba7565b509a9d9c50505050505050505050505050565b60c083015180515f9160ff85811692600887901c90911691849184908110610c0157610c01615907565b60200260200101518281518110610c1a57610c1a615907565b60209081029190910101517fffffffffffffffffffffffffffffffffffffffffffffffffffffffffffffffe0909501948552509295945050505050565b60208101805182511681529392505050565b80515f90610c7681612dbe565b835250909392505050565b80516001600884901c60ff9081169190911b7fffffffffffffffffffffffffffffffffffffffffffffffffffffffffffffffff0193161c919091168152919050565b805160209091018051600160ff600886901c81169190911b7fffffffffffffffffffffffffffffffffffffffffffffffffffffffffffffffff01941684811b199091169390921690911b919091178152919050565b60208101805182511781529392505050565b805161ffff83161b8152809392505050565b805161ffff83161c8152809392505050565b8251600161ffff841690810160209081028301515f93600f601088901c811693601489901c90911692908190850288015b80891015610d9c5760208203915088518252602089019850610d7f565b5060408a01805190879052610db38b8284866128ba565b60408c0182905260208602998a9003999092508201895b81841015610de2578351815260209384019301610dca565b50989b9a5050505050505050505050565b60109190911c600f166020028082207fffffffffffffffffffffffffffffffffffffffffffffffffffffffffffffffe09190920101908152919050565b805160208201516040909201805190925f929173ffffffffffffffffffffffffffffffffffffffff83168314610e95576040517f479ef3f700000000000000000000000000000000000000000000000000000000815260048101849052602401610280565b73ffffffffffffffffffffffffffffffffffffffff82168214610ee7576040517f479ef3f700000000000000000000000000000000000000000000000000000000815260048101839052602401610280565b73ffffffffffffffffffffffffffffffffffffffff81168114610f39576040517f479ef3f700000000000000000000000000000000000000000000000000000000815260048101829052602401610280565b6040517fdd62ed3e00000000000000000000000000000000000000000000000000000000815273ffffffffffffffffffffffffffffffffffffffff838116600483015282811660248301525f919085169063dd62ed3e90604401602060405180830381865afa158015610fae573d5f803e3d5ffd5b505050506040513d601f19601f82011682018060405250810190610fd29190615a15565b90505f610fde85612e96565b90505f610feb8383612f3f565b508852509598975050505050505050565b80516020909101805190915f9173ffffffffffffffffffffffffffffffffffffffff8216821461105b576040517f479ef3f700000000000000000000000000000000000000000000000000000000815260048101839052602401610280565b73ffffffffffffffffffffffffffffffffffffffff811681146110ad576040517f479ef3f700000000000000000000000000000000000000000000000000000000815260048101829052602401610280565b6040517f70a0823100000000000000000000000000000000000000000000000000000000815273ffffffffffffffffffffffffffffffffffffffff82811660048301525f91908416906370a0823190602401602060405180830381865afa15801561111a573d5f803e3d5ffd5b505050506040513d601f19601f8201168201806040525081019061113e9190615a15565b90505f61114a84612e96565b90505f6111578383612f80565b87525094979650505050505050565b80515f9073ffffffffffffffffffffffffffffffffffffffff811681146111bc576040517f479ef3f700000000000000000000000000000000000000000000000000000000815260048101829052602401610280565b5f815f1c73ffffffffffffffffffffffffffffffffffffffff166318160ddd6040518163ffffffff1660e01b8152600401602060405180830381865afa158015611208573d5f803e3d5ffd5b505050506040513d601f19601f8201168201806040525081019061122c9190615a15565b90505f61123883612e96565b90505f6112458383612f80565b865250939695505050505050565b805160208201516040909201805190925f929173ffffffffffffffffffffffffffffffffffffffff831683146112b8576040517f479ef3f700000000000000000000000000000000000000000000000000000000815260048101849052602401610280565b73ffffffffffffffffffffffffffffffffffffffff8216821461130a576040517f479ef3f700000000000000000000000000000000000000000000000000000000815260048101839052602401610280565b73ffffffffffffffffffffffffffffffffffffffff8116811461135c576040517f479ef3f700000000000000000000000000000000000000000000000000000000815260048101829052602401610280565b6040517fdd62ed3e00000000000000000000000000000000000000000000000000000000815273ffffffffffffffffffffffffffffffffffffffff838116600483015282811660248301525f919085169063dd62ed3e90604401602060405180830381865afa1580156113d1573d5f803e3d5ffd5b505050506040513d601f19601f820116820180604052508101906112459190615a15565b80516020909101805190915f9173ffffffffffffffffffffffffffffffffffffffff82168214611454576040517f479ef3f700000000000000000000000000000000000000000000000000000000815260048101839052602401610280565b73ffffffffffffffffffffffffffffffffffffffff811681146114a6576040517f479ef3f700000000000000000000000000000000000000000000000000000000815260048101829052602401610280565b6040517f70a0823100000000000000000000000000000000000000000000000000000000815273ffffffffffffffffffffffffffffffffffffffff82811660048301525f91908416906370a0823190602401602060405180830381865afa158015611513573d5f803e3d5ffd5b505050506040513d601f19601f820116820180604052508101906115379190615a15565b8552509295945050505050565b80515f9073ffffffffffffffffffffffffffffffffffffffff8116811461159a576040517f479ef3f700000000000000000000000000000000000000000000000000000000815260048101829052602401610280565b5f815f1c73ffffffffffffffffffffffffffffffffffffffff166318160ddd6040518163ffffffff1660e01b8152600401602060405180830381865afa1580156115e6573d5f803e3d5ffd5b505050506040513d601f19601f8201168201806040525081019061160a9190615a15565b84525091949350505050565b80515f9073ffffffffffffffffffffffffffffffffffffffff8116811461166c576040517f479ef3f700000000000000000000000000000000000000000000000000000000815260048101829052602401610280565b5f815f1c73ffffffffffffffffffffffffffffffffffffffff16638da5cb5b6040518163ffffffff1660e01b8152600401602060405180830381865afa1580156116b8573d5f803e3d5ffd5b505050506040513d601f19601f8201168201806040525081019061160a9190615a2c565b80516020909101805190915f9173ffffffffffffffffffffffffffffffffffffffff8216821461173b576040517f479ef3f700000000000000000000000000000000000000000000000000000000815260048101839052602401610280565b73ffffffffffffffffffffffffffffffffffffffff8116811461178d576040517f479ef3f700000000000000000000000000000000000000000000000000000000815260048101829052602401610280565b6040517f70a0823100000000000000000000000000000000000000000000000000000000815273ffffffffffffffffffffffffffffffffffffffff82811660048301525f91908416906370a0823190602401602060405180830381865afa1580156117fa573d5f803e3d5ffd5b505050506040513d601f19601f8201168201806040525081019061181e9190615a15565b90505f611245825f612f80565b80516020909101805190915f9173ffffffffffffffffffffffffffffffffffffffff8216821461188a576040517f479ef3f700000000000000000000000000000000000000000000000000000000815260048101839052602401610280565b6040517f6352211e000000000000000000000000000000000000000000000000000000008152600481018290525f9073ffffffffffffffffffffffffffffffffffffffff841690636352211e90602401602060405180830381865afa1580156118f5573d5f803e3d5ffd5b505050506040513d601f19601f820116820180604052508101906115379190615a2c565b437fffffffffffffffffffffffffffffffffffffffffffffffffffffffffffffffe09190910190815292915050565b427fffffffffffffffffffffffffffffffffffffffffffffffffffffffffffffffe09190910190815292915050565b467fffffffffffffffffffffffffffffffffffffffffffffffffffffffffffffffe09190910190815292915050565b7fffffffffffffffffffffffffffffffffffffffffffffffffffffffffffffffe06020600f601085901c1602828101918201925f928391905b80821015611a2257815192507bffffffffffffffffffffffffffffffffffffffffffffffffffffffff831615611a1757828652611a22565b8160200191506119df565b50939695505050505050565b805160209091018051909114815292915050565b5f805f80805f80600f8960101c169350600284069250879150602083850302820190506020831502810397508215611a7957805194505b5f5b81831015611ac45750815195507bffffffffffffffffffffffffffffffffffffffffffffffffffffffff86161580611ab95760208301518952611ac4565b826040019250611a7b565b8015611b2057604080518082019091525f6020820152600887901c601f88168083019190915281525b6040517f08c379a00000000000000000000000000000000000000000000000000000000081526004016102809190615589565b50969998505050505050505050565b805160208201516040909201915f91907bffffffffffffffffffffffffffffffffffffffffffffffffffffffff8216611b8957604080518082019091525f6020820152600882901c601f8316808301919091528152611aed565b5091949350505050565b80516020909101805190915f91826115378383612fa4565b7fffffffffffffffffffffffffffffffffffffffffffffffffffffffffffffffe06020600f601085901c1602828101918201925f928391905b80821015611a2257815192507bffffffffffffffffffffffffffffffffffffffffffffffffffffffff8316611c1b575f8652611a22565b816020019150611be4565b80516020909101805190915f91826115378383612ff2565b80516020909101805190915f91826115378383613041565b805160407bffffffffffffffffffffffffffffffffffffffffffffffffffffffff90911615156020028203810151910190815292915050565b80515f90817bffffffffffffffffffffffffffffffffffffffffffffffffffffffff82161561160a565b80516020909101805190915f91826115378383613091565b80516020909101805190915f918261153783836130e0565b80515f90610c7681613130565b805160208201516040909201915f91907bffffffffffffffffffffffffffffffffffffffffffffffffffffffff808316601b90810b9160e085811d9291851690910b9084901d611d488484848461317b565b9094509250600f60108a901c1660025b81811015611dae5789516020909a019996507bffffffffffffffffffffffffffffffffffffffffffffffffffffffff8716601b0b935060e087901d9250611da18686868661317b565b9096509450600101611d58565b5050611dba84846132b1565b507fffffffffffffffffffffffffffffffffffffffffffffffffffffffffffffffe098909801978852509598975050505050505050565b80516020909101805190915f9161160a6002611e0d84846133b7565b90613419565b80515f90610c768161345e565b805160208201516040909201915f91907bffffffffffffffffffffffffffffffffffffffffffffffffffffffff808316601b90810b9160e085811d9291851690910b9084901d611e728484848461351a565b9094509250600f60108a901c1660025b81811015611dae5789516020909a019996507bffffffffffffffffffffffffffffffffffffffffffffffffffffffff8716601b0b935060e087901d9250611ecb8686868661351a565b9096509450600101611e82565b7fffffffbe19cfc6ef4f44cf88f14500d013df534fcaad48fca1d5ca47bea26fcc7fffffffffffffffffffffffffffffffffffffffffffffffffffffffffffffffe09190910190815292915050565b80515f90610c767fffffffbe19cfc6ef4f44cf88f14500d013df534fcaad48fca1d5ca47bea26fcc8273c51a14251b0dcf0ae24a96b7153991378938f5f5613b35565b80515f90610c7660028273c51a14251b0dcf0ae24a96b7153991378938f5f5613b35565b80515f90610c7681613d8f565b80515f90610c7681613e35565b80516020909101805190915f9182611fc08382613091565b90505f611fcd8382613091565b90505f61202b7fffffffff0000000000000000000000000000000000000000000000000000000573c51a14251b0dcf0ae24a96b7153991378938f5f561202461201588613130565b61201e8a613130565b90613e80565b9190613b35565b9050811515831515146112455761115781613ec5565b80515f90612058816120528161345e565b90613ef7565b90507bffffffffffffffffffffffffffffffffffffffffffffffffffffffff8116612081575060015b82525092915050565b80515f90610c7681613f3c565b805160208201516040909201915f91906120b18282613f6e565b9150600f601086901c1660025b818110156120e457855160209096019592506120da8484613f6e565b93506001016120be565b5050507fffffffffffffffffffffffffffffffffffffffffffffffffffffffffffffffe0929092019182525092915050565b7f80000000ffffffffffffffffffffffffffffffffffffffffffffffffffffffff7fffffffffffffffffffffffffffffffffffffffffffffffffffffffffffffffe09190910190815292915050565b7f7fffffff7fffffffffffffffffffffffffffffffffffffffffffffffffffffff7fffffffffffffffffffffffffffffffffffffffffffffffffffffffffffffffe09190910190815292915050565b805160208201516040909201915f91906121ce8282613f8a565b9150600f601086901c1660025b818110156120e457855160209096019592506121f78484613f8a565b93506001016121db565b7f7fffffff800000000000000000000000000000000000000000000000000000007fffffffffffffffffffffffffffffffffffffffffffffffffffffffffffffffe09190910190815292915050565b7f80000000000000000000000000000000000000000000000000000000000000017fffffffffffffffffffffffffffffffffffffffffffffffffffffffffffffffe09190910190815292915050565b805160208201516040909201915f91907bffffffffffffffffffffffffffffffffffffffffffffffffffffffff808316601b90810b9160e085811d9291851690910b9084901d6122f184848484613f95565b9094509250600f60108a901c1660025b81811015611dae5789516020909a019996507bffffffffffffffffffffffffffffffffffffffffffffffffffffffff8716601b0b935060e087901d925061234a86868686613f95565b9096509450600101612301565b7fffffffbe1dd4c9e873614f593bba9c6007d9a7ac8d03a4b6c700a65cb537a1b47fffffffffffffffffffffffffffffffffffffffffffffffffffffffffffffffe09190910190815292915050565b80516020909101805190915f9161160a828273c51a14251b0dcf0ae24a96b7153991378938f5f5613b35565b80515f90610c768173c51a14251b0dcf0ae24a96b7153991378938f5f56140b4565b805160208201516040909201915f91907bffffffffffffffffffffffffffffffffffffffffffffffffffffffff808316601b90810b9160e085811d9291851690910b9084901d612446848484846140e0565b9094509250600f60108a901c1660025b81811015611dae5789516020909a019996507bffffffffffffffffffffffffffffffffffffffffffffffffffffffff8716601b0b935060e087901d925061249f868686866140e0565b9096509450600101612456565b805160208201516040909201805190925f92916115376124e68273c51a14251b0dcf0ae24a96b7153991378938f5f56120248660016133b7565b8490613e80565b805160208201516040909201805190925f929161153761250d8383613e80565b84906133b7565b805160208201516040909201915f919061252e8183615961565b9150600f601086901c1660025b818110156120e457855160209096019592506125578385615961565b935060010161253b565b805160208201516040909201915f919061257b8183615a47565b9150600f601086901c1660025b818110156120e457855160209096019592506125a48385615a47565b9350600101612588565b7fffffffffffffffffffffffffffffffffffffffffffffffffffffffffffffffff7fffffffffffffffffffffffffffffffffffffffffffffffffffffffffffffffe09190910190815292915050565b805160208201516040909201915f91906126178183615a5a565b9150600f601086901c1660025b818110156120e457855160209096019592506126408385615a5a565b9350600101612624565b805160208201516040909201915f91906126648183615b8f565b9150600f601086901c1660025b818110156120e4578551602090960195925061268d8385615b8f565b9350600101612671565b805160208201516040909201915f91906126b18183615b9a565b9150600f601086901c1660025b818110156120e457855160209096019592506126da8385615b9a565b93506001016126be565b805160608401515f9190829081906126fc908461410a565b91509150815f036127c65760a087015160808801516040517f295f36d70000000000000000000000000000000000000000000000000000000081526004810191909152602481018590525f9173ffffffffffffffffffffffffffffffffffffffff169063295f36d790604401602060405180830381865afa158015612783573d5f803e3d5ffd5b505050506040513d601f19601f820116820180604052508101906127a79190615a15565b60608901519091506127ba9085836107b0565b606089015285526127ca565b8085525b509295945050505050565b8051602082015160608501516040909301925f9291906127f69083836107b0565b606087015250829150509392505050565b60605f825160020267ffffffffffffffff81111561282757612827615704565b6040519080825280601f01601f191660200182016040528015612851576020820181803683370190505b50905061ffff80196020850160208651028101600285015b81831015611a2257805183518616908516178152602090920191600201612869565b5f805f6128988585614151565b51600281901a9660039190911a95509350505050565b6020810283835e505050565b5f80856040015190505f805f805f60028b6101000151516128db9190615a47565b60e08c01516101008d0151602080830151600261ffff9b909b168b8102850160219081015160f01c5f93841a9d909d029095019b909b019384015160258086019b50600791831a9182169182900360040290950190940198509296500193509091506154f690805b86881015612ac55787519050600284825f1a060285015160f01c925062ffffff8160e01c1691506129798e838e8663ffffffff16565b9b506002848260041a060285015160f01c925062ffffff8160c01c1691506129a68e838e8663ffffffff16565b9b506002848260081a060285015160f01c925062ffffff8160a01c1691506129d38e838e8663ffffffff16565b9b5060028482600c1a060285015160f01c925062ffffff8160801c169150612a008e838e8663ffffffff16565b9b506002848260101a060285015160f01c925062ffffff8160601c169150612a2d8e838e8663ffffffff16565b9b506002848260141a060285015160f01c925062ffffff8160401c169150612a5a8e838e8663ffffffff16565b9b506002848260181a060285015160f01c925062ffffff8160201c169150612a878e838e8663ffffffff16565b9b5060028482601c1a060285015160f01c925062ffffff81169150612ab18e838e8663ffffffff16565b9b50612abe602089615961565b9750612943565b612ad0601c89615b9a565b9750612add866004615a5a565b612ae79089615961565b96505b86881015612b2d5750508551601c81901a83900660020284015160f01c915062ffffff811690612b198e838e86565b9b50612b26600489615961565b9750612aea565b612b398d8a8e8e614180565b50999c9b505050505050505050505050565b6040805160f083901c602081810283010190925290815261ffff63ffffffff67ffffffffffffffff6fffffffffffffffffffffffffffffffff612bb7565b5f5b8215612bb157825182526020830151602083015260408301519250604082019150612b8b565b50919050565b602085018660101b60901c8015612ca7578060401c8015612c25578060201c8015612be957612be68185612b89565b93505b508086168015612c23578060101c8015612c0a57612c078186612b89565b94505b508088168015612c2157612c1e8186612b89565b94505b505b505b508084168015612ca5578060201c8015612c69578060101c8015612c5057612c4d8186612b89565b94505b508088168015612c6757612c648186612b89565b94505b505b508086168015612ca3578060101c8015612c8a57612c878186612b89565b94505b508088168015612ca157612c9e8186612b89565b94505b505b505b505b508682168015612db3578060401c8015612d31578060201c8015612cf5578060101c8015612cdc57612cd98186612b89565b94505b508088168015612cf357612cf08186612b89565b94505b505b508086168015612d2f578060101c8015612d1657612d138186612b89565b94505b508088168015612d2d57612d2a8186612b89565b94505b505b505b508084168015612db1578060201c8015612d75578060101c8015612d5c57612d598186612b89565b94505b508088168015612d7357612d708186612b89565b94505b505b508086168015612daf578060101c8015612d9657612d938186612b89565b94505b508088168015612dad57612daa8186612b89565b94505b505b505b505b505050505050919050565b5f7fffffffffffffffffffffffffffffffffffffffffffffffffffffffffffffffff8203612def5750610100919050565b507f0f0f0f0f0f0f0f0f0f0f0f0f0f0f0f0f0f0f0f0f0f0f0f0f0f0f0f0f0f0f0f0f7f5555555555555555555555555555555555555555555555555555555555555555600183901c16909103600281901c7f3333333333333333333333333333333333333333333333333333333333333333908116911601600481901c01167f01010101010101010101010101010101010101010101010101010101010101010260f81c90565b5f612e9f614213565b6040517ff5c36eaf00000000000000000000000000000000000000000000000000000000815273ffffffffffffffffffffffffffffffffffffffff8316600482015273200e12d10bb0c5e4a17e7018f0f1161919bb93899063f5c36eaf90602401602060405180830381865afa158015612f1b573d5f803e3d5ffd5b505050506040513d601f19601f8201168201806040525081019061017f9190615bad565b5f805f805f612f4e87876142b9565b9250925092505f80612f6085856132b1565b9150915081838015612f6f5750815b9650965050505050505b9250929050565b5f805f612f8d8585614315565b91509150612f9b8282614377565b95945050505050565b5f7bffffffffffffffffffffffffffffffffffffffffffffffffffffffff838116601b90810b9160e086811d9291861690910b9085901d612fe7848484846143d1565b979650505050505050565b5f7bffffffffffffffffffffffffffffffffffffffffffffffffffffffff838116601b90810b9160e086811d9291861690910b9085901d613035848484846143e8565b12979650505050505050565b5f7bffffffffffffffffffffffffffffffffffffffffffffffffffffffff838116601b90810b9160e086811d9291861690910b9085901d613084848484846143e8565b1315979650505050505050565b5f7bffffffffffffffffffffffffffffffffffffffffffffffffffffffff838116601b90810b9160e086811d9291861690910b9085901d6130d4848484846143e8565b13979650505050505050565b5f7bffffffffffffffffffffffffffffffffffffffffffffffffffffffff838116601b90810b9160e086811d9291861690910b9085901d613123848484846143e8565b1215979650505050505050565b5f7bffffffffffffffffffffffffffffffffffffffffffffffffffffffff8216601b0b60e083901d828212156131705761316a82826144bc565b90925090505b5f612f9b838361455f565b5f80851584151780156131a757865f0361319b57848492509250506132a8565b868692509250506132a8565b6131b187876145bd565b90975095506131c085856145bd565b9095509350858413156131d4579395929492935b838603604c8111156131ed5787879350935050506132a8565b80600a0a86816131ff576131ff6158c7565b0595505086850180881860ff90811c151589881890911c1516801561329a57877f7fffffffffffffffffffffffffffffffffffffffffffffffffffffffffffffff03613281576040517fd556b111000000000000000000000000000000000000000000000000000000008152600481018a905260248101899052604401610280565b600a96879005969098058601976001979097019661329e565b8198505b5050868692509250505b94509492505050565b5f601b83900b8314838382613315577d90e40fbeea1d3a4abc8955e946fe31cdcf66f634e10000000000000000008605156132f557620186a0860595506005850194505b8586601b0b1461331057600a860595508460010194506132f5565b61332b565b855f0361332b57505f925060019150612f799050565b848560030b14613387575f85121561334b57505f9250829150612f799050565b6040517fd556b1110000000000000000000000000000000000000000000000000000000081526004810183905260248101829052604401610280565b50507bffffffffffffffffffffffffffffffffffffffffffffffffffffffff841660e084901b1791509250929050565b5f7bffffffffffffffffffffffffffffffffffffffffffffffffffffffff838116601b90810b9160e086811d9291861690910b9085901d84806133fc8686868661317b565b915091505f61340b838361455f565b9a9950505050505050505050565b5f7bffffffffffffffffffffffffffffffffffffffffffffffffffffffff838116601b90810b9160e086811d9291861690910b9085901d84806133fc8686868661351a565b5f7bffffffffffffffffffffffffffffffffffffffffffffffffffffffff8216601b0b60e083901d82811261349557509192915050565b5f806134a18484614613565b91509150805f036134b6575093949350505050565b5f81131561350f5761350a82847f161bcca7119915b50764b4abe86529797775a5f17195100000000000000000007fffffffffffffffffffffffffffffffffffffffffffffffffffffffffffffffb461317b565b935091505b5f612fe7838561455f565b5f80835f0361355f576040517f7a97930f0000000000000000000000000000000000000000000000000000000081526004810187905260248101869052604401610280565b855f0361357057505f9050806132a8565b5f805f8061357e8a8a61467b565b919b509950915061358f888861467b565b919950975090505f6135a08b61491c565b90505f6135ac8a61491c565b90507f161bcca7119915b50764b4abe86529797775a5f1719510000000000000000000604c818310156139c957841561360a57507f0235fadd81c2822bb3f07877973d50f28bf22a31be8ee80000000000000000009050604b613988565b6f4b3b4ca85a86c47a098a22400000000083101561373657678ac7230489e8000083101561369a576402540be40083101561366857620186a08310156136585750620186a090506005613911565b506402540be4009050600a613911565b655af3107a40008310156136875750655af3107a40009050600e613911565b50678ac7230489e8000090506013613911565b6b204fce5e3e250261100000008310156136ec5769152d02c7e14af68000008310156136d5575069152d02c7e14af680000090506017613911565b506b204fce5e3e250261100000009050601c613911565b6d314dc6448d9338c15b0a0000000083101561371b57506d314dc6448d9338c15b0a0000000090506021613911565b506f4b3b4ca85a86c47a098a22400000000090506026613911565b780197d4df19d605767337e9f14d3eec8920e40000000000000083101561382e5773af298d050e4395d69670b12b7f410000000000008310156137c9577172cb5bd86321e38cb6ce6682e800000000008310156137aa57507172cb5bd86321e38cb6ce6682e800000000009050602b613911565b5073af298d050e4395d69670b12b7f4100000000000090506030613911565b76010b46c6cdd6e3e0828f4db456ff0c8ea000000000000083101561380a575076010b46c6cdd6e3e0828f4db456ff0c8ea000000000000090506035613911565b50780197d4df19d605767337e9f14d3eec8920e4000000000000009050603a613911565b7c03b58e88c75313ec9d329eaaa18fb92f75215b171000000000000000008310156138c4577a026e4d30eccc3215dd8f3157d27e23acbdcfe6800000000000000083101561389c57507a026e4d30eccc3215dd8f3157d27e23acbdcfe680000000000000009050603f613911565b507c03b58e88c75313ec9d329eaaa18fb92f75215b1710000000000000000090506044613911565b7e05a8e89d75252446eb5d5d5b1cc5edf20a1a059e10ca00000000000000000083101561391157507e05a8e89d75252446eb5d5d5b1cc5edf20a1a059e10ca000000000000000000905060495b81831161394557600a820491507fffffffffffffffffffffffffffffffffffffffffffffffffffffffffffffffff01613911565b815f03613988576040517f05e51ecb000000000000000000000000000000000000000000000000000000008152600481018d9052602481018c9052604401610280565b856139c9576040517f05e51ecb000000000000000000000000000000000000000000000000000000008152600481018f9052602481018e9052604401610280565b807f8000000000000000000000000000000000000000000000000000000000000000018d126139fc57808d039c50613a6f565b7f80000000000000000000000000000000000000000000000000000000000000009c90038c015f811315613a6f57807f7fffffffffffffffffffffffffffffffffffffffffffffffffffffffffffffff038b13613a5c57998a0199613a6f565b5f809950995050505050505050506132a8565b5f808e128015613a7e57505f8c135b15613abb577f80000000000000000000000000000000000000000000000000000000000000008e01808d13613ab3575f613ab7565b808d035b9150505b8b818f01039750613ad88f8e613ad288878961497d565b8b614a62565b90995097505f811315613b2257604c811315613b02575f809a509a505050505050505050506132a8565b80600a0a8981613b1457613b146158c7565b059850885f03613b22575f97505b509698509496506132a895505050505050565b5f7bffffffffffffffffffffffffffffffffffffffffffffffffffffffff848116601b0b9060e086901d908516613b7257506001915061087f9050565b5f8213613c0b57815f03613bcf57613b8a855f613091565b15613bc4576040517f8be8297200000000000000000000000000000000000000000000000000000000815260048101869052602401610280565b505f915061087f9050565b6040517fcceba0f10000000000000000000000000000000000000000000000000000000081526004810183905260248101829052604401610280565b613c16856001612fa4565b8015613c275750613c27865f612ff2565b15613c3657859250505061087f565b613c40855f613091565b15613c6957613c60613c5187613f3c565b613c5a87613ec5565b86613b35565b9250505061087f565b7bffffffffffffffffffffffffffffffffffffffffffffffffffffffff8516601b0b60e086901d5f80613c9c8484614613565b915091505f613cac83855f614b69565b905060015f8080613ce38f7bffffffffffffffffffffffffffffffffffffffffffffffffffffffff8116601b0b9160e09190911d90565b915091505b60018510613d2a5784600116600103613d0d57613d0784848484613f95565b90945092505b600185901c9450613d2082828484613f95565b9092509050613ce8565b5f80613d378f8e8e614c80565b91509150613d4782828a8d613f95565b9092509050613d578f8383614fb5565b9092509050613d6882828888613f95565b90925090505f613d78838361455f565b9e5050505050505050505050505050509392505050565b5f7bffffffffffffffffffffffffffffffffffffffffffffffffffffffff8216601b0b60e083901d828112613dc657509192915050565b5f80613dd28484614613565b915091505f84128015613de457508015155b1561350f5761350a82847f161bcca7119915b50764b4abe86529797775a5f17195100000000000000000007fffffffffffffffffffffffffffffffffffffffffffffffffffffffffffffffb46140e0565b5f7bffffffffffffffffffffffffffffffffffffffffffffffffffffffff8216601b0b60e083901d82613e688383614613565b9150505f613e76828461455f565b9695505050505050565b5f7bffffffffffffffffffffffffffffffffffffffffffffffffffffffff838116601b90810b9160e086811d9291861690910b9085901d84806133fc86868686613f95565b5f7bffffffffffffffffffffffffffffffffffffffffffffffffffffffff8216601b0b60e083901d61316a82826144bc565b5f7bffffffffffffffffffffffffffffffffffffffffffffffffffffffff838116601b90810b9160e086811d9291861690910b9085901d84806133fc868686866140e0565b5f7bffffffffffffffffffffffffffffffffffffffffffffffffffffffff8216601b0b60e083901d61316a8282615126565b5f613f798383612ff2565b613f83578161087f565b5090919050565b5f613f798383613091565b5f8085158415178015613fad575f92505f91506140aa565b613fb78487615bcd565b91505f613fc38861491c565b90505f613fcf8761491c565b90505f613fdc838361517f565b5090505f6f0785ee10d5da46d900f436a000000000821115614011576f0785ee10d5da46d900f436a000000000820491506025015b670de0b6b3a764000082111561403257670de0b6b3a7640000820491506012015b633b9aca0082111561404b57633b9aca00820491506009015b61271082111561406057612710820491506004015b811561407457600a82049150600101614060565b61407e8187615bcd565b95506140a08b8a61409a878761409587600a615b8f565b61497d565b89614a62565b9097509550505050505b5094509492505050565b5f61087f837fffffffff0000000000000000000000000000000000000000000000000000000584613b35565b5f806140ec84846144bc565b90945092506140fd8686868661317b565b9150915094509492505050565b5f80825f526010600f60205f20060261ffff85821c165b8015614148578051850361413f576001935060208101519250614148565b60400151614121565b50509250929050565b5f8061415c846151ba565b60020260010190505f61416f85856151d4565b949091019093016020019392505050565b7fffffffffffffffffffffffffffffffffffffffffffffffffffffffffffffffe08201805163ffff0000601087901b1661ffff86161782527f312f5ae588c6ff62cd3f006af06cd48c98d7321649db7d8b2c396a81a204655591905f808686036004017ffffffffffffffffffffffffffffffffffffffffffffffffffffffffffffffffc8801865afa5090525050505050565b73200e12d10bb0c5e4a17e7018f0f1161919bb93893b158061426a575073200e12d10bb0c5e4a17e7018f0f1161919bb93893f7f1de7d717526cba131d684e312dedbf0852adef9cced9e36798ae4937f7145d4114155b156142b7576040517f73e6d7b300000000000000000000000000000000000000000000000000000000815273200e12d10bb0c5e4a17e7018f0f1161919bb93896004820152602401610280565b565b5f808060ff841681037f7fffffffffffffffffffffffffffffffffffffffffffffffffffffffffffffff86111561430457600a860460018201600a88065f149350935093505061430e565b8593509150600190505b9250925092565b5f805f805f61432487876142b9565b9250925092508061436b576040517fc47179660000000000000000000000000000000000000000000000000000000081526004810184905260248101839052604401610280565b50909590945092505050565b5f805f61438485856132b1565b91509150806143c9576040517f22c9f7bb0000000000000000000000000000000000000000000000000000000081526004810186905260248101859052604401610280565b509392505050565b5f6143de858585856143e8565b1495945050505050565b5f808515841517818712828612181785841417801561440d57868592509250506132a8565b505f85841315614421575092949193919260015b8386035f8112604c8213178015614454578215614446575f89945094505050506132a8565b885f945094505050506132a8565b600a82900a8981028a82828161446c5761446c6158c7565b0514614498578415614488575f8b9650965050505050506132a8565b8a5f9650965050505050506132a8565b84156144ad5788965094506132a89350505050565b95508794506132a89350505050565b5f807f80000000000000000000000000000000000000000000000000000000000000008403614555577f7fffffffffffffffffffffffffffffffffffffffffffffffffffffffffffffff8303614548576040517fd556b1110000000000000000000000000000000000000000000000000000000081526004810185905260248101849052604401610280565b600a840593508260010192505b50505f9190910391565b5f805f61456c85856132b1565b915091508015801561457c575081155b156143c9576040517f8eba4d070000000000000000000000000000000000000000000000000000000081526004810186905260248101859052604401610280565b5f805f805f6145cc878761467b565b9250925092508061436b576040517f05e51ecb0000000000000000000000000000000000000000000000000000000081526004810188905260248101879052604401610280565b5f805f831261462657508290505f612f79565b7fffffffffffffffffffffffffffffffffffffffffffffffffffffffffffffffb483121561465857505f905082612f79565b5f839003600a0a80858161466e5761466e6158c7565b0794859003959350505050565b5f805f845f0361469357505f9150819050600161430e565b7f0235fadd81c2822bb3f07877973d50f28bf22a31be8ee800000000000000000085055f036148a7576f4b3b4ca85a86c47a098a22400000000085051580156146fc57507f80000000000000000000000000000000000000000000000000000000000000268412155b1561471d576f4b3b4ca85a86c47a098a224000000000850294506026840393505b7728c87cb5c89a2571ebfdcb54864ada834a00000000000000850515801561476557507f80000000000000000000000000000000000000000000000000000000000000138412155b1561477e57678ac7230489e80000850294506013840393505b7b097edd871cfda3a5697758bf0e3cbb5ac5741c64000000000000000085051580156147ca57507f800000000000000000000000000000000000000000000000000000000000000a8412155b156147e0576402540be40085029450600a840393505b7e3899162693736ac531a5a58f1fbb4b746504382ca7e4000000000000000000850515801561482f57507f80000000000000000000000000000000000000000000000000000000000000028412155b15614845576064850294506002840393506147e0565b7f0235fadd81c2822bb3f07877973d50f28bf22a31be8ee8000000000000000000850515801561489557507f80000000000000000000000000000000000000000000000000000000000000018412155b156148a757600a850294506001840393505b600a808602908105861480156148dd57507f80000000000000000000000000000000000000000000000000000000000000018512155b156148ec578095506001850394505b50939492935050507f0235fadd81c2822bb3f07877973d50f28bf22a31be8ee80000000000000000008305151590565b5f80821215614979577f8000000000000000000000000000000000000000000000000000000000000000820361497357507f8000000000000000000000000000000000000000000000000000000000000000919050565b505f0390565b5090565b5f805f61498a868661517f565b91509150815f036149ae578381816149a4576149a46158c7565b049250505061087f565b8382106149f8576040517f6c59da12000000000000000000000000000000000000000000000000000000008152600481018790526024810186905260448101859052606401610280565b5f84868809600186198101871696879004966002600389028118808a02820302808a02820302808a02820302808a02820302808a02820302808a02909103025f82900382900490920185841190960395909502919093039390930492909217029150509392505050565b5f805f8587181215614b2c577f7fffffffffffffffffffffffffffffffffffffffffffffffffffffffffffffff841115614b1957614ac17f7fffffffffffffffffffffffffffffffffffffffffffffffffffffffffffffff6001615961565b8403614af157507f80000000000000000000000000000000000000000000000000000000000000009050816132a8565b614afc600a85615a47565b614b0590615bf4565b614b10846001615bcd565b915091506132a8565b614b2284615bf4565b83915091506132a8565b7f7fffffffffffffffffffffffffffffffffffffffffffffffffffffffffffffff841115614b5f57614b05600a85615a47565b50829050816132a8565b5f818303614b7857508261087f565b82821315614bbb57828203604c811380614b9257505f8113155b15614ba0575f91505061087f565b80600a0a8581614bb257614bb26158c7565b0591505061087f565b818303604c811380614bcd57505f8113155b15614c15576040517f1d5d6d10000000000000000000000000000000000000000000000000000000008152600481018690526024810185905260448101849052606401610280565b600a81900a85810286828281614c2d57614c2d6158c7565b0514614c76576040517f1d5d6d10000000000000000000000000000000000000000000000000000000008152600481018890526024810187905260448101869052606401610280565b925061087f915050565b5f808383614c8e82826145bd565b90965094505f8613614d0f57855f03614cd3576040517f561fc7b500000000000000000000000000000000000000000000000000000000815260040160405180910390fd5b6040517f5d3fd4db0000000000000000000000000000000000000000000000000000000081526004810183905260248101829052604401610280565b5050837f161bcca7119915b50764b4abe86529797775a5f171951000000000000000000003614d4d57614d4383604c615bcd565b5f9150915061097d565b7f161bcca7119915b50764b4abe86529797775a5f171951000000000000000000084121580614d9c577fffffffffffffffffffffffffffffffffffffffffffffffffffffffffffffffb5614dbe565b7fffffffffffffffffffffffffffffffffffffffffffffffffffffffffffffffb45b5f0b8412614f79575f805f805f85614dd757604b614dda565b604c5b614de4908a615bcd565b90505f8087614e11577d90e40fbeea1d3a4abc8955e946fe31cdcf66f634e1000000000000000000614e32565b7e05a8e89d75252446eb5d5d5b1cc5edf20a1a059e10ca0000000000000000005b7effffffffffffffffffffffffffffffffffffffffffffffffffffffffffffff169050808c81614e6457614e646158c7565b05818102955090850193507ffffffffffffffffffffffffffffffffffffffffffffffffffffffffffffffc18019050614e9d8c8261522a565b7d90e40fbeea1d3a4abc8955e946fe31cdcf66f634e10000000000000000000295508594508a8414614f29576123278114614f0457614edf8c8260010161522a565b7d90e40fbeea1d3a4abc8955e946fe31cdcf66f634e100000000000000000002614f26565b7f161bcca7119915b50764b4abe86529797775a5f17195100000000000000000005b94505b50614f59838b848c89897fffffffffffffffffffffffffffffffffffffffffffffffffffffffffffffffb46152b1565b909a509850614f6a8a8a835f61317b565b9750975050505050505061097d565b614f838585615126565b9095509350614f93868686614c80565b9095509350614fa285856144bc565b925092505061097d565b50935093915050565b5f805f841215614ff157614fc984846144bc565b9094509250614fd9858585614fb5565b9094509250614fe88484615126565b9150915061097d565b5f80614ffd8686614613565b9092509050845f8080615010858561534e565b9194509250905061270d612710615028600182615c24565b851461503f576150398d868661543d565b90925090505b83156150ca575f615051866001615bcd565b90505b808485830281615066576150666158c7565b051461507d57600a84059350600a88059750615054565b6150be61508a8588615c4a565b896150958785615c4a565b8f87877ffffffffffffffffffffffffffffffffffffffffffffffffffffffffffffffffc6152b1565b909d509b506150f19050565b819b507ffffffffffffffffffffffffffffffffffffffffffffffffffffffffffffffffc9a505b50505050508661510284835f614b69565b61510d886001615bcd565b6151179190615bcd565b94509450505050935093915050565b5f806151747f161bcca7119915b50764b4abe86529797775a5f17195100000000000000000007fffffffffffffffffffffffffffffffffffffffffffffffffffffffffffffffb4868661351a565b915091509250929050565b5f807fffffffffffffffffffffffffffffffffffffffffffffffffffffffffffffffff83850993909202808410938190039390930393915050565b5f81515f036151ca57505f919050565b50602001515f1a90565b5f6151de836151ba565b821061521a5781836040517ffcfaeff1000000000000000000000000000000000000000000000000000000008152600401610280929190615c95565b50600202016003015161ffff1690565b5f80615239600a612328615a47565b615244906002615a5a565b61524f906001615961565b90505f61525f600a612328615a47565b90506002600a8504026001015f8052600281601e883c505f51617fff8116935061800081161561528e57918101915b505f80526001600a8506600a6064870402018301601f873c50505f510192915050565b5f808888036152c4575083905081615342565b5f805f806152d48c8b8f8d6140e0565b915091505f806152e68a8a8d8c6140e0565b915091506152f684848484613f95565b8096508197505050505050505f806153108b8b8f8d6140e0565b915091505f806153228686868661351a565b915091505f8061533484848f8e61317b565b909a50985050505050505050505b97509795505050505050565b5f805f837ffffffffffffffffffffffffffffffffffffffffffffffffffffffffffffffffc0361538657508391505f9050600161430e565b7ffffffffffffffffffffffffffffffffffffffffffffffffffffffffffffffffc841215615414577fffffffffffffffffffffffffffffffffffffffffffffffffffffffffffffffb08412156153e557505f915050821515600161430e565b5f846004015f03600a0a90505f818781615401576154016158c7565b059450508084028614159250905061430e565b5f841261542957505f9150819050600161430e565b50505060048101600a0a82025f600161430e565b5f8080606461544f600a612328615a47565b61545c600a612328615a47565b615467906002615a5a565b615472906001615961565b61547c9190615961565b6154869190615961565b90506154ca565b5f8052600280600a8504028301601e833c5f80516107d0840193505f80526001600a8606600a6064880402018501601f853c5f5101949350505050565b6154d585828861548d565b92508315614fac576154eb60018601828861548d565b915050935093915050565b6142b7615cad565b5f6020828403121561550e575f80fd5b81357fffffffff000000000000000000000000000000000000000000000000000000008116811461087f575f80fd5b5f81518084528060208401602086015e5f6020828601015260207fffffffffffffffffffffffffffffffffffffffffffffffffffffffffffffffe0601f83011685010191505092915050565b602081525f61087f602083018461553d565b5f602082840312156155ab575f80fd5b813567ffffffffffffffff8111156155c1575f80fd5b820160e0818503121561087f575f80fd5b5f815180845260208085019450602084015f5b83811015615601578151875295820195908201906001016155e5565b509495945050505050565b604081525f61561e60408301856155d2565b8281036020848101919091528451808352858201928201905f5b8181101561565457845183529383019391830191600101615638565b5090979650505050505050565b73ffffffffffffffffffffffffffffffffffffffff81168114615682575f80fd5b50565b5f60208284031215615695575f80fd5b813561087f81615661565b5f8083357fffffffffffffffffffffffffffffffffffffffffffffffffffffffffffffffe18436030181126156d3575f80fd5b83018035915067ffffffffffffffff8211156156ed575f80fd5b6020019150600581901b3603821315612f79575f80fd5b7f4e487b71000000000000000000000000000000000000000000000000000000005f52604160045260245ffd5b604051601f82017fffffffffffffffffffffffffffffffffffffffffffffffffffffffffffffffe016810167ffffffffffffffff8111828210171561577857615778615704565b604052919050565b5f67ffffffffffffffff82111561579957615799615704565b5060051b60200190565b5f6157b56157b084615780565b615731565b83815260208082019190600586811b8601368111156157d2575f80fd5b865b8181101561585957803567ffffffffffffffff8111156157f2575f80fd5b880136601f820112615802575f80fd5b80356158106157b082615780565b81815290851b8201860190868101903683111561582b575f80fd5b928701925b8284101561584957833582529287019290870190615830565b89525050509483019483016157d4565b5092979650505050505050565b5f8083357fffffffffffffffffffffffffffffffffffffffffffffffffffffffffffffffe1843603018112615899575f80fd5b83018035915067ffffffffffffffff8211156158b3575f80fd5b602001915036819003821315612f79575f80fd5b7f4e487b71000000000000000000000000000000000000000000000000000000005f52601260045260245ffd5b5f82615902576159026158c7565b500690565b7f4e487b71000000000000000000000000000000000000000000000000000000005f52603260045260245ffd5b7f4e487b71000000000000000000000000000000000000000000000000000000005f52601160045260245ffd5b8082018082111561017f5761017f615934565b828152604060208201525f61598c60408301846155d2565b949350505050565b5f60208083850312156159a5575f80fd5b825167ffffffffffffffff8111156159bb575f80fd5b8301601f810185136159cb575f80fd5b80516159d96157b082615780565b81815260059190911b820183019083810190878311156159f7575f80fd5b928401925b82841015612fe7578351825292840192908401906159fc565b5f60208284031215615a25575f80fd5b5051919050565b5f60208284031215615a3c575f80fd5b815161087f81615661565b5f82615a5557615a556158c7565b500490565b808202811582820484141761017f5761017f615934565b600181815b80851115615aca57817fffffffffffffffffffffffffffffffffffffffffffffffffffffffffffffffff04821115615ab057615ab0615934565b80851615615abd57918102915b93841c9390800290615a76565b509250929050565b5f82615ae05750600161017f565b81615aec57505f61017f565b8160018114615b025760028114615b0c57615b28565b600191505061017f565b60ff841115615b1d57615b1d615934565b50506001821b61017f565b5060208310610133831016604e8410600b8410161715615b4b575081810a61017f565b615b558383615a71565b807fffffffffffffffffffffffffffffffffffffffffffffffffffffffffffffffff04821115615b8757615b87615934565b029392505050565b5f61087f8383615ad2565b8181038181111561017f5761017f615934565b5f60208284031215615bbd575f80fd5b815160ff8116811461087f575f80fd5b8082018281125f831280158216821582161715615bec57615bec615934565b505092915050565b5f7f8000000000000000000000000000000000000000000000000000000000000000820361497357614973615934565b8181035f831280158383131683831282161715615c4357615c43615934565b5092915050565b8082025f82127f800000000000000000000000000000000000000000000000000000000000000084141615615c8157615c81615934565b818105831482151761017f5761017f615934565b828152604060208201525f61598c604083018461553d565b7f4e487b71000000000000000000000000000000000000000000000000000000005f52605160045260245ffdfe098509d40a160bd70c570c690c810cc30d180d2a0d3c0d4e0df30e300ffc1166125313f51544161616dc182b13f5191919481948197719a61a2e1a421b2f1b931bab1c261c3e1c561c8f1cb91cd11ce91cf61df11e131e201ed81f271f6a1f8e1f9b1fa82041208a20972116216521b422012250229f235723a623d223f424ac24ed2514256125ae25fd264a269726e427d5098509d40a160bd70c570c690c810cc30d180d2a0d3c0d4e0df30e300ffc1166125313f51544161616dc182b13f5191919481948197719a61a2e1a421b2f1b931bab1c261c3e1c561c8f1cb91cd11ce91cf61df11e131e201ed81f271f6a1f8e1f9b1fa82041208a20972116216521b422012250229f235723a623d223f424ac24ed2514256125ae25fd264a269726e427d5"
  }
}