{
  "abi": [
    {
      "type": "constructor",
      "inputs": [],
      "stateMutability": "nonpayable"
    },
    {
      "type": "function",
      "name": "buildOpcodeFunctionPointers",
      "inputs": [],
      "outputs": [
        {
          "name": "",
          "type": "bytes",
          "internalType": "bytes"
        }
      ],
      "stateMutability": "view"
    },
    {
      "type": "function",
      "name": "eval4",
      "inputs": [
        {
          "name": "eval",
          "type": "tuple",
          "internalType": "struct EvalV4",
          "components": [
            {
              "name": "store",
              "type": "address",
              "internalType": "contract IInterpreterStoreV3"
            },
            {
              "name": "namespace",
              "type": "uint256",
              "internalType": "FullyQualifiedNamespace"
            },
            {
              "name": "bytecode",
              "type": "bytes",
              "internalType": "bytes"
            },
            {
              "name": "sourceIndex",
              "type": "uint256",
              "internalType": "SourceIndexV2"
            },
            {
              "name": "context",
              "type": "bytes32[][]",
              "internalType": "bytes32[][]"
            },
            {
              "name": "inputs",
              "type": "bytes32[]",
              "internalType": "StackItem[]"
            },
            {
              "name": "stateOverlay",
              "type": "bytes32[]",
              "internalType": "bytes32[]"
            }
          ]
        }
      ],
      "outputs": [
        {
          "name": "",
          "type": "bytes32[]",
          "internalType": "StackItem[]"
        },
        {
          "name": "",
          "type": "bytes32[]",
          "internalType": "bytes32[]"
        }
      ],
      "stateMutability": "view"
    },
    {
      "type": "function",
      "name": "supportsInterface",
      "inputs": [
        {
          "name": "interfaceId",
          "type": "bytes4",
          "internalType": "bytes4"
        }
      ],
      "outputs": [
        {
          "name": "",
          "type": "bool",
          "internalType": "bool"
        }
      ],
      "stateMutability": "view"
    },
    {
      "type": "error",
      "name": "BadDynamicLength",
      "inputs": [
        {
          "name": "dynamicLength",
          "type": "uint256",
          "internalType": "uint256"
        },
        {
          "name": "standardOpsLength",
          "type": "uint256",
          "internalType": "uint256"
        }
      ]
    },
    {
      "type": "error",
      "name": "BadOutputsLength",
      "inputs": [
        {
          "name": "expectedLength",
          "type": "uint256",
          "internalType": "uint256"
        },
        {
          "name": "actualLength",
          "type": "uint256",
          "internalType": "uint256"
        }
      ]
    },
    {
      "type": "error",
      "name": "CoefficientOverflow",
      "inputs": [
        {
          "name": "signedCoefficient",
          "type": "int256",
          "internalType": "int256"
        },
        {
          "name": "exponent",
          "type": "int256",
          "internalType": "int256"
        }
      ]
    },
    {
      "type": "error",
      "name": "DivisionByZero",
      "inputs": [
        {
          "name": "signedCoefficient",
          "type": "int256",
          "internalType": "int256"
        },
        {
          "name": "exponent",
          "type": "int256",
          "internalType": "int256"
        }
      ]
    },
    {
      "type": "error",
      "name": "ExponentOverflow",
      "inputs": [
        {
          "name": "signedCoefficient",
          "type": "int256",
          "internalType": "int256"
        },
        {
          "name": "exponent",
          "type": "int256",
          "internalType": "int256"
        }
      ]
    },
    {
      "type": "error",
      "name": "ExponentUnderflow",
      "inputs": [
        {
          "name": "signedCoefficient",
          "type": "int256",
          "internalType": "int256"
        },
        {
          "name": "exponent",
          "type": "int256",
          "internalType": "int256"
        }
      ]
    },
    {
      "type": "error",
      "name": "InputsLengthMismatch",
      "inputs": [
        {
          "name": "expected",
          "type": "uint256",
          "internalType": "uint256"
        },
        {
          "name": "actual",
          "type": "uint256",
          "internalType": "uint256"
        }
      ]
    },
    {
      "type": "error",
      "name": "Log10Negative",
      "inputs": [
        {
          "name": "signedCoefficient",
          "type": "int256",
          "internalType": "int256"
        },
        {
          "name": "exponent",
          "type": "int256",
          "internalType": "int256"
        }
      ]
    },
    {
      "type": "error",
      "name": "Log10Zero",
      "inputs": []
    },
    {
      "type": "error",
      "name": "LossyConversionToFloat",
      "inputs": [
        {
          "name": "signedCoefficient",
          "type": "int256",
          "internalType": "int256"
        },
        {
          "name": "exponent",
          "type": "int256",
          "internalType": "int256"
        }
      ]
    },
    {
      "type": "error",
      "name": "MaximizeOverflow",
      "inputs": [
        {
          "name": "signedCoefficient",
          "type": "int256",
          "internalType": "int256"
        },
        {
          "name": "exponent",
          "type": "int256",
          "internalType": "int256"
        }
      ]
    },
    {
      "type": "error",
      "name": "MemoryKVOverflow",
      "inputs": [
        {
          "name": "pointer",
          "type": "uint256",
          "internalType": "uint256"
        }
      ]
    },
    {
      "type": "error",
      "name": "MulDivOverflow",
      "inputs": [
        {
          "name": "x",
          "type": "uint256",
          "internalType": "uint256"
        },
        {
          "name": "y",
          "type": "uint256",
          "internalType": "uint256"
        },
        {
          "name": "denominator",
          "type": "uint256",
          "internalType": "uint256"
        }
      ]
    },
    {
      "type": "error",
      "name": "NotAnAddress",
      "inputs": [
        {
          "name": "value",
          "type": "uint256",
          "internalType": "uint256"
        }
      ]
    },
    {
      "type": "error",
      "name": "OddSetLength",
      "inputs": [
        {
          "name": "length",
          "type": "uint256",
          "internalType": "uint256"
        }
      ]
    },
    {
      "type": "error",
      "name": "PowNegativeBase",
      "inputs": [
        {
          "name": "signedCoefficient",
          "type": "int256",
          "internalType": "int256"
        },
        {
          "name": "exponent",
          "type": "int256",
          "internalType": "int256"
        }
      ]
    },
    {
      "type": "error",
      "name": "SourceIndexOutOfBounds",
      "inputs": [
        {
          "name": "sourceIndex",
          "type": "uint256",
          "internalType": "uint256"
        },
        {
          "name": "bytecode",
          "type": "bytes",
          "internalType": "bytes"
        }
      ]
    },
    {
      "type": "error",
      "name": "TOFUTokenDecimalsNotDeployed",
      "inputs": [
        {
          "name": "expectedAddress",
          "type": "address",
          "internalType": "address"
        }
      ]
    },
    {
      "type": "error",
      "name": "WithTargetExponentOverflow",
      "inputs": [
        {
          "name": "signedCoefficient",
          "type": "int256",
          "internalType": "int256"
        },
        {
          "name": "exponent",
          "type": "int256",
          "internalType": "int256"
        },
        {
          "name": "targetExponent",
          "type": "int256",
          "internalType": "int256"
        }
      ]
    },
    {
      "type": "error",
      "name": "ZeroFunctionPointers",
      "inputs": []
    },
    {
      "type": "error",
      "name": "ZeroNegativePower",
      "inputs": [
        {
          "name": "b",
          "type": "bytes32",
          "internalType": "Float"
        }
      ]
    }
  ],
  "bytecode": {
    "object": "0x608060405234801561000f575f80fd5b5061001861003d565b515f0361003857604051632413c92160e01b815260040160405180910390fd5b61005d565b60606040518060c0016040528060928152602001615dd160929139905090565b615d678061006a5f395ff3fe608060405234801561000f575f80fd5b506004361061003f575f3560e01c806301ffc9a714610043578063514b5d4f1461006b578063d04dfe2314610080575b5f80fd5b6100566100513660046154f8565b6100a1565b60405190151581526020015b60405180910390f35b610073610185565b6040516100629190615583565b61009361008e366004615595565b610194565b604051610062929190615606565b5f7fffffffff0000000000000000000000000000000000000000000000000000000082167fd04dfe2300000000000000000000000000000000000000000000000000000000148061013357507fffffffff0000000000000000000000000000000000000000000000000000000082167f514b5d4f00000000000000000000000000000000000000000000000000000000145b8061017f57507f01ffc9a7000000000000000000000000000000000000000000000000000000007fffffffff000000000000000000000000000000000000000000000000000000008316145b92915050565b606061018f610390565b905090565b6060805f61021b84830135602086018035906101b0908861567f565b6101bd608089018961569a565b6101c69161579d565b6101ce610645565b6101db60408b018b615860565b8080601f0160208091040260200160405190810160405280939291908181526020018383808284375f920191909152509297969594939250506106659050565b9050600261022c60c086018661569a565b6102379291506158ee565b156102895761024960c085018561569a565b6040517f01c71f3d000000000000000000000000000000000000000000000000000000008152610280925060040190815260200190565b60405180910390fd5b5f5b61029860c086018661569a565b905081101561031b576060820151610304906102b760c088018861569a565b848181106102c7576102c7615901565b90506020020135878060c001906102de919061569a565b6102e986600161595b565b8181106102f8576102f8615901565b905060200201356107b0565b606083015261031460028261595b565b905061028b565b5061038661032c60a086018661569a565b808060200260200160405190810160405280939291908181526020018383602002808284375f92019190915250859392507fffffffffffffffffffffffffffffffffffffffffffffffffffffffffffffffff915050610886565b9250925050915091565b6040805161094081018252604980825261098560208301526109d492820192909252610a16606082810191909152610bd76080830152610c5760a0830152610c6960c0830152610c8160e0830152610cc3610100830152610d18610120830152610d2a610140830152610d3c610160830152610d4e610180830152610df36101a0830152610e306101c0830152610ffc6101e08301526111666102008301526112516102208301526113f361024083018190526115426102608401526116126102808401526116d66102a08401526118256102c08401526102e083015261191361030083015261194261032083018190526103408301526119716103608301526119a0610380830152611a286103a0830152611a3c6103c0830152611b296103e0830152611b8d610400830152611ba5610420830152611c20610440830152611c38610460830152611c50610480830152611c896104a0830152611cb36104c0830152611ccb6104e0830152611ce3610500830152611cf0610520830152611deb610540830152611e0d610560830152611e1a610580830152611ed26105a0830152611f216105c0830152611f646105e0830152611f88610600830152611f95610620830152611fa261064083015261203b6106608301526120846106808301526120916106a08301526121106106c083015261215f6106e08301526121ae6107008301526121fb61072083015261224a6107408301526122996107608301526123516107808301526123a06107a08301526123cc6107c08301526123ee6107e08301526124a66108008301526124e761082083015261250e61084083015261255b6108608301526125a86108808301526125f76108a08301526126446108c08301526126916108e08301526126de6109008301526127cf610920830152919081908061063c81612801565b94505050505090565b60606040518060c0016040528060928152602001615cd560929139905090565b6106c660405180610120016040528060608152602001606081526020015f81526020015f81526020015f81526020015f73ffffffffffffffffffffffffffffffffffffffff1681526020016060815260200160608152602001606081525090565b602087810180516040600191820184028b018181015182515f91821a808252948501870281019093526041808301968381019593600285020190910191908401905b8381101561074657875160f01c83015160408051600192831a8082528301602090810290910191829052908452600290990198929092019101610708565b505050506040518061012001604052808281526020018481526020018b81526020015f81526020018a81526020018973ffffffffffffffffffffffffffffffffffffffff168152602001888152602001838152602001878152509450505050509695505050505050565b5f82815260208120600f900660100284811c61ffff1690815b82156107e357825186146107e357604083015192506107c9565b821580156108315760405193506060840160405286845285602085015281604085015260028860f01c0161ffff60f01b1989168160f01b1798505061ffff831b19881684841b179750610838565b8560208501525b50505061ffff81111561087a576040517fcadaf56d00000000000000000000000000000000000000000000000000000000815260048101829052602401610280565b849150505b9392505050565b6060805f8061089d8760e001518860400151612885565b915091505f80885f01518960400151815181106108bc576108bc615901565b60200260200101519150819050838851146109105787516040517fd628439f000000000000000000000000000000000000000000000000000000008152610280918691600401918252602082015260400190565b875115610935575f60208951028203915060208901905061093381838b516128a8565b505b610945898a6040015183856128b4565b90505f8388106109555783610957565b875b90506060602083039050818152806109728c60600151612b45565b975097505050505050505b935093915050565b604083015183516020600192830181029091015161ffff8516909201029003517fffffffffffffffffffffffffffffffffffffffffffffffffffffffffffffffe0909101908152809392505050565b60208084015161ffff841660010190910201517fffffffffffffffffffffffffffffffffffffffffffffffffffffffffffffffe0909101908152809392505050565b602083015180515f9161ffff851691600f601087901c811692601488901c9091169185919085908110610a4b57610a4b615901565b602002602001015190505f80610a64839060a082901c90565b7fffffffffffffffffffffffffffffffffffffffffffffffffffffffffffffffe08a0180518882526040517f58c07152000000000000000000000000000000000000000000000000000000008152939550919350915f9073ffffffffffffffffffffffffffffffffffffffff8616906358c0715290610ae9908790879060040161596e565b5f60405180830381865afa158015610b03573d5f803e3d5ffd5b505050506040513d5f823e601f3d9081017fffffffffffffffffffffffffffffffffffffffffffffffffffffffffffffffe0168201604052610b48919081019061598e565b905080518714610b915780516040517fc3385cb0000000000000000000000000000000000000000000000000000000008152610280918991600401918252602082015260400190565b818352602088028b019a50602081016020880281015b80821015610bc45760208d039c5081518d52602082019150610ba7565b509a9d9c50505050505050505050505050565b60c083015180515f9160ff85811692600887901c90911691849184908110610c0157610c01615901565b60200260200101518281518110610c1a57610c1a615901565b60209081029190910101517fffffffffffffffffffffffffffffffffffffffffffffffffffffffffffffffe0909501948552509295945050505050565b60208101805182511681529392505050565b80515f90610c7681612db8565b835250909392505050565b80516001600884901c60ff9081169190911b7fffffffffffffffffffffffffffffffffffffffffffffffffffffffffffffffff0193161c919091168152919050565b805160209091018051600160ff600886901c81169190911b7fffffffffffffffffffffffffffffffffffffffffffffffffffffffffffffffff01941684811b199091169390921690911b919091178152919050565b60208101805182511781529392505050565b805161ffff83161b8152809392505050565b805161ffff83161c8152809392505050565b8251600161ffff841690810160209081028301515f93600f601088901c811693601489901c90911692908190850288015b80891015610d9c5760208203915088518252602089019850610d7f565b5060408a01805190879052610db38b8284866128b4565b60408c0182905260208602998a9003999092508201895b81841015610de2578351815260209384019301610dca565b50989b9a5050505050505050505050565b60109190911c600f166020028082207fffffffffffffffffffffffffffffffffffffffffffffffffffffffffffffffe09190920101908152919050565b805160208201516040909201805190925f929173ffffffffffffffffffffffffffffffffffffffff83168314610e95576040517f0255ddd800000000000000000000000000000000000000000000000000000000815260048101849052602401610280565b8173ffffffffffffffffffffffffffffffffffffffff168214610ee7576040517f0255ddd800000000000000000000000000000000000000000000000000000000815260048101839052602401610280565b8073ffffffffffffffffffffffffffffffffffffffff168114610f39576040517f0255ddd800000000000000000000000000000000000000000000000000000000815260048101829052602401610280565b6040517fdd62ed3e00000000000000000000000000000000000000000000000000000000815273ffffffffffffffffffffffffffffffffffffffff838116600483015282811660248301525f919085169063dd62ed3e90604401602060405180830381865afa158015610fae573d5f803e3d5ffd5b505050506040513d601f19601f82011682018060405250810190610fd29190615a0f565b90505f610fde85612e90565b90505f610feb8383612f39565b508852509598975050505050505050565b80516020909101805190915f9173ffffffffffffffffffffffffffffffffffffffff8216821461105b576040517f0255ddd800000000000000000000000000000000000000000000000000000000815260048101839052602401610280565b8073ffffffffffffffffffffffffffffffffffffffff1681146110ad576040517f0255ddd800000000000000000000000000000000000000000000000000000000815260048101829052602401610280565b6040517f70a0823100000000000000000000000000000000000000000000000000000000815273ffffffffffffffffffffffffffffffffffffffff82811660048301525f91908416906370a0823190602401602060405180830381865afa15801561111a573d5f803e3d5ffd5b505050506040513d601f19601f8201168201806040525081019061113e9190615a0f565b90505f61114a84612e90565b90505f6111578383612f7a565b87525094979650505050505050565b80515f9073ffffffffffffffffffffffffffffffffffffffff811681146111bc576040517f0255ddd800000000000000000000000000000000000000000000000000000000815260048101829052602401610280565b5f8173ffffffffffffffffffffffffffffffffffffffff166318160ddd6040518163ffffffff1660e01b8152600401602060405180830381865afa158015611206573d5f803e3d5ffd5b505050506040513d601f19601f8201168201806040525081019061122a9190615a0f565b90505f61123683612e90565b90505f6112438383612f7a565b865250939695505050505050565b805160208201516040909201805190925f929173ffffffffffffffffffffffffffffffffffffffff831683146112b6576040517f0255ddd800000000000000000000000000000000000000000000000000000000815260048101849052602401610280565b8173ffffffffffffffffffffffffffffffffffffffff168214611308576040517f0255ddd800000000000000000000000000000000000000000000000000000000815260048101839052602401610280565b8073ffffffffffffffffffffffffffffffffffffffff16811461135a576040517f0255ddd800000000000000000000000000000000000000000000000000000000815260048101829052602401610280565b6040517fdd62ed3e00000000000000000000000000000000000000000000000000000000815273ffffffffffffffffffffffffffffffffffffffff838116600483015282811660248301525f919085169063dd62ed3e90604401602060405180830381865afa1580156113cf573d5f803e3d5ffd5b505050506040513d601f19601f820116820180604052508101906112439190615a0f565b80516020909101805190915f9173ffffffffffffffffffffffffffffffffffffffff82168214611452576040517f0255ddd800000000000000000000000000000000000000000000000000000000815260048101839052602401610280565b8073ffffffffffffffffffffffffffffffffffffffff1681146114a4576040517f0255ddd800000000000000000000000000000000000000000000000000000000815260048101829052602401610280565b6040517f70a0823100000000000000000000000000000000000000000000000000000000815273ffffffffffffffffffffffffffffffffffffffff82811660048301525f91908416906370a0823190602401602060405180830381865afa158015611511573d5f803e3d5ffd5b505050506040513d601f19601f820116820180604052508101906115359190615a0f565b8552509295945050505050565b80515f9073ffffffffffffffffffffffffffffffffffffffff81168114611598576040517f0255ddd800000000000000000000000000000000000000000000000000000000815260048101829052602401610280565b5f8173ffffffffffffffffffffffffffffffffffffffff166318160ddd6040518163ffffffff1660e01b8152600401602060405180830381865afa1580156115e2573d5f803e3d5ffd5b505050506040513d601f19601f820116820180604052508101906116069190615a0f565b84525091949350505050565b80515f9073ffffffffffffffffffffffffffffffffffffffff81168114611668576040517f0255ddd800000000000000000000000000000000000000000000000000000000815260048101829052602401610280565b5f8173ffffffffffffffffffffffffffffffffffffffff16638da5cb5b6040518163ffffffff1660e01b8152600401602060405180830381865afa1580156116b2573d5f803e3d5ffd5b505050506040513d601f19601f820116820180604052508101906116069190615a26565b80516020909101805190915f9173ffffffffffffffffffffffffffffffffffffffff82168214611735576040517f0255ddd800000000000000000000000000000000000000000000000000000000815260048101839052602401610280565b8073ffffffffffffffffffffffffffffffffffffffff168114611787576040517f0255ddd800000000000000000000000000000000000000000000000000000000815260048101829052602401610280565b6040517f70a0823100000000000000000000000000000000000000000000000000000000815273ffffffffffffffffffffffffffffffffffffffff82811660048301525f91908416906370a0823190602401602060405180830381865afa1580156117f4573d5f803e3d5ffd5b505050506040513d601f19601f820116820180604052508101906118189190615a0f565b90505f611243825f612f7a565b80516020909101805190915f9173ffffffffffffffffffffffffffffffffffffffff82168214611884576040517f0255ddd800000000000000000000000000000000000000000000000000000000815260048101839052602401610280565b6040517f6352211e000000000000000000000000000000000000000000000000000000008152600481018290525f9073ffffffffffffffffffffffffffffffffffffffff841690636352211e90602401602060405180830381865afa1580156118ef573d5f803e3d5ffd5b505050506040513d601f19601f820116820180604052508101906115359190615a26565b437fffffffffffffffffffffffffffffffffffffffffffffffffffffffffffffffe09190910190815292915050565b427fffffffffffffffffffffffffffffffffffffffffffffffffffffffffffffffe09190910190815292915050565b467fffffffffffffffffffffffffffffffffffffffffffffffffffffffffffffffe09190910190815292915050565b7fffffffffffffffffffffffffffffffffffffffffffffffffffffffffffffffe06020600f601085901c1602828101918201925f928391905b80821015611a1c57815192507bffffffffffffffffffffffffffffffffffffffffffffffffffffffff831615611a1157828652611a1c565b8160200191506119d9565b50939695505050505050565b805160209091018051909114815292915050565b5f805f80805f80600f8960101c169350600284069250879150602083850302820190506020831502810397508215611a7357805194505b5f5b81831015611abe5750815195507bffffffffffffffffffffffffffffffffffffffffffffffffffffffff86161580611ab35760208301518952611abe565b826040019250611a75565b8015611b1a57604080518082019091525f6020820152600887901c601f88168083019190915281525b6040517f08c379a00000000000000000000000000000000000000000000000000000000081526004016102809190615583565b50969998505050505050505050565b805160208201516040909201915f91907bffffffffffffffffffffffffffffffffffffffffffffffffffffffff8216611b8357604080518082019091525f6020820152600882901c601f8316808301919091528152611ae7565b5091949350505050565b80516020909101805190915f91826115358383612f9e565b7fffffffffffffffffffffffffffffffffffffffffffffffffffffffffffffffe06020600f601085901c1602828101918201925f928391905b80821015611a1c57815192507bffffffffffffffffffffffffffffffffffffffffffffffffffffffff8316611c15575f8652611a1c565b816020019150611bde565b80516020909101805190915f91826115358383612fec565b80516020909101805190915f9182611535838361303b565b805160407bffffffffffffffffffffffffffffffffffffffffffffffffffffffff90911615156020028203810151910190815292915050565b80515f90817bffffffffffffffffffffffffffffffffffffffffffffffffffffffff821615611606565b80516020909101805190915f9182611535838361308b565b80516020909101805190915f918261153583836130da565b80515f90610c768161312a565b805160208201516040909201915f91907bffffffffffffffffffffffffffffffffffffffffffffffffffffffff808316601b90810b9160e085811d9291851690910b9084901d611d4284848484613175565b9094509250600f60108a901c1660025b81811015611da85789516020909a019996507bffffffffffffffffffffffffffffffffffffffffffffffffffffffff8716601b0b935060e087901d9250611d9b86868686613175565b9096509450600101611d52565b5050611db484846132ab565b507fffffffffffffffffffffffffffffffffffffffffffffffffffffffffffffffe098909801978852509598975050505050505050565b80516020909101805190915f916116066002611e0784846133b1565b90613413565b80515f90610c7681613458565b805160208201516040909201915f91907bffffffffffffffffffffffffffffffffffffffffffffffffffffffff808316601b90810b9160e085811d9291851690910b9084901d611e6c84848484613514565b9094509250600f60108a901c1660025b81811015611da85789516020909a019996507bffffffffffffffffffffffffffffffffffffffffffffffffffffffff8716601b0b935060e087901d9250611ec586868686613514565b9096509450600101611e7c565b7fffffffbe19cfc6ef4f44cf88f14500d013df534fcaad48fca1d5ca47bea26fcc7fffffffffffffffffffffffffffffffffffffffffffffffffffffffffffffffe09190910190815292915050565b80515f90610c767fffffffbe19cfc6ef4f44cf88f14500d013df534fcaad48fca1d5ca47bea26fcc8273c51a14251b0dcf0ae24a96b7153991378938f5f5613b2f565b80515f90610c7660028273c51a14251b0dcf0ae24a96b7153991378938f5f5613b2f565b80515f90610c7681613d89565b80515f90610c7681613e2f565b80516020909101805190915f9182611fba838261308b565b90505f611fc7838261308b565b90505f6120257fffffffff0000000000000000000000000000000000000000000000000000000573c51a14251b0dcf0ae24a96b7153991378938f5f561201e61200f8861312a565b6120188a61312a565b90613e7a565b9190613b2f565b9050811515831515146112435761115781613ebf565b80515f906120528161204c81613458565b90613ef1565b90507bffffffffffffffffffffffffffffffffffffffffffffffffffffffff811661207b575060015b82525092915050565b80515f90610c7681613f36565b805160208201516040909201915f91906120ab8282613f68565b9150600f601086901c1660025b818110156120de57855160209096019592506120d48484613f68565b93506001016120b8565b5050507fffffffffffffffffffffffffffffffffffffffffffffffffffffffffffffffe0929092019182525092915050565b7f80000000ffffffffffffffffffffffffffffffffffffffffffffffffffffffff7fffffffffffffffffffffffffffffffffffffffffffffffffffffffffffffffe09190910190815292915050565b7f7fffffff7fffffffffffffffffffffffffffffffffffffffffffffffffffffff7fffffffffffffffffffffffffffffffffffffffffffffffffffffffffffffffe09190910190815292915050565b805160208201516040909201915f91906121c88282613f84565b9150600f601086901c1660025b818110156120de57855160209096019592506121f18484613f84565b93506001016121d5565b7f7fffffff800000000000000000000000000000000000000000000000000000007fffffffffffffffffffffffffffffffffffffffffffffffffffffffffffffffe09190910190815292915050565b7f80000000000000000000000000000000000000000000000000000000000000017fffffffffffffffffffffffffffffffffffffffffffffffffffffffffffffffe09190910190815292915050565b805160208201516040909201915f91907bffffffffffffffffffffffffffffffffffffffffffffffffffffffff808316601b90810b9160e085811d9291851690910b9084901d6122eb84848484613f8f565b9094509250600f60108a901c1660025b81811015611da85789516020909a019996507bffffffffffffffffffffffffffffffffffffffffffffffffffffffff8716601b0b935060e087901d925061234486868686613f8f565b90965094506001016122fb565b7fffffffbe1dd4c9e873614f593bba9c6007d9a7ac8d03a4b6c700a65cb537a1b47fffffffffffffffffffffffffffffffffffffffffffffffffffffffffffffffe09190910190815292915050565b80516020909101805190915f91611606828273c51a14251b0dcf0ae24a96b7153991378938f5f5613b2f565b80515f90610c768173c51a14251b0dcf0ae24a96b7153991378938f5f56140ae565b805160208201516040909201915f91907bffffffffffffffffffffffffffffffffffffffffffffffffffffffff808316601b90810b9160e085811d9291851690910b9084901d612440848484846140da565b9094509250600f60108a901c1660025b81811015611da85789516020909a019996507bffffffffffffffffffffffffffffffffffffffffffffffffffffffff8716601b0b935060e087901d9250612499868686866140da565b9096509450600101612450565b805160208201516040909201805190925f92916115356124e08273c51a14251b0dcf0ae24a96b7153991378938f5f561201e8660016133b1565b8490613e7a565b805160208201516040909201805190925f92916115356125078383613e7a565b84906133b1565b805160208201516040909201915f9190612528818361595b565b9150600f601086901c1660025b818110156120de5785516020909601959250612551838561595b565b9350600101612535565b805160208201516040909201915f91906125758183615a41565b9150600f601086901c1660025b818110156120de578551602090960195925061259e8385615a41565b9350600101612582565b7fffffffffffffffffffffffffffffffffffffffffffffffffffffffffffffffff7fffffffffffffffffffffffffffffffffffffffffffffffffffffffffffffffe09190910190815292915050565b805160208201516040909201915f91906126118183615a54565b9150600f601086901c1660025b818110156120de578551602090960195925061263a8385615a54565b935060010161261e565b805160208201516040909201915f919061265e8183615b89565b9150600f601086901c1660025b818110156120de57855160209096019592506126878385615b89565b935060010161266b565b805160208201516040909201915f91906126ab8183615b94565b9150600f601086901c1660025b818110156120de57855160209096019592506126d48385615b94565b93506001016126b8565b805160608401515f9190829081906126f69084614104565b91509150815f036127c05760a087015160808801516040517f295f36d70000000000000000000000000000000000000000000000000000000081526004810191909152602481018590525f9173ffffffffffffffffffffffffffffffffffffffff169063295f36d790604401602060405180830381865afa15801561277d573d5f803e3d5ffd5b505050506040513d601f19601f820116820180604052508101906127a19190615a0f565b60608901519091506127b49085836107b0565b606089015285526127c4565b8085525b509295945050505050565b8051602082015160608501516040909301925f9291906127f09083836107b0565b606087015250829150509392505050565b60605f825160020267ffffffffffffffff811115612821576128216156fe565b6040519080825280601f01601f19166020018201604052801561284b576020820181803683370190505b50905061ffff80196020850160208651028101600285015b81831015611a1c57805183518616908516178152602090920191600201612863565b5f805f612892858561414b565b51600281901a9660039190911a95509350505050565b6020810283835e505050565b5f80856040015190505f805f805f60028b6101000151516128d59190615a41565b60e08c01516101008d0151602080830151600261ffff9b909b168b8102850160219081015160f01c5f93841a9d909d029095019b909b019384015160258086019b50600791831a9182169182900360040290950190940198509296500193509091506154f090805b86881015612abf5787519050600284825f1a060285015160f01c925062ffffff8160e01c1691506129738e838e8663ffffffff16565b9b506002848260041a060285015160f01c925062ffffff8160c01c1691506129a08e838e8663ffffffff16565b9b506002848260081a060285015160f01c925062ffffff8160a01c1691506129cd8e838e8663ffffffff16565b9b5060028482600c1a060285015160f01c925062ffffff8160801c1691506129fa8e838e8663ffffffff16565b9b506002848260101a060285015160f01c925062ffffff8160601c169150612a278e838e8663ffffffff16565b9b506002848260141a060285015160f01c925062ffffff8160401c169150612a548e838e8663ffffffff16565b9b506002848260181a060285015160f01c925062ffffff8160201c169150612a818e838e8663ffffffff16565b9b5060028482601c1a060285015160f01c925062ffffff81169150612aab8e838e8663ffffffff16565b9b50612ab860208961595b565b975061293d565b612aca601c89615b94565b9750612ad7866004615a54565b612ae1908961595b565b96505b86881015612b275750508551601c81901a83900660020284015160f01c915062ffffff811690612b138e838e86565b9b50612b2060048961595b565b9750612ae4565b612b338d8a8e8e61417a565b50999c9b505050505050505050505050565b6040805160f083901c602081810283010190925290815261ffff63ffffffff67ffffffffffffffff6fffffffffffffffffffffffffffffffff612bb1565b5f5b8215612bab57825182526020830151602083015260408301519250604082019150612b85565b50919050565b602085018660101b60901c8015612ca1578060401c8015612c1f578060201c8015612be357612be08185612b83565b93505b508086168015612c1d578060101c8015612c0457612c018186612b83565b94505b508088168015612c1b57612c188186612b83565b94505b505b505b508084168015612c9f578060201c8015612c63578060101c8015612c4a57612c478186612b83565b94505b508088168015612c6157612c5e8186612b83565b94505b505b508086168015612c9d578060101c8015612c8457612c818186612b83565b94505b508088168015612c9b57612c988186612b83565b94505b505b505b505b508682168015612dad578060401c8015612d2b578060201c8015612cef578060101c8015612cd657612cd38186612b83565b94505b508088168015612ced57612cea8186612b83565b94505b505b508086168015612d29578060101c8015612d1057612d0d8186612b83565b94505b508088168015612d2757612d248186612b83565b94505b505b505b508084168015612dab578060201c8015612d6f578060101c8015612d5657612d538186612b83565b94505b508088168015612d6d57612d6a8186612b83565b94505b505b508086168015612da9578060101c8015612d9057612d8d8186612b83565b94505b508088168015612da757612da48186612b83565b94505b505b505b505b505050505050919050565b5f7fffffffffffffffffffffffffffffffffffffffffffffffffffffffffffffffff8203612de95750610100919050565b507f0f0f0f0f0f0f0f0f0f0f0f0f0f0f0f0f0f0f0f0f0f0f0f0f0f0f0f0f0f0f0f0f7f5555555555555555555555555555555555555555555555555555555555555555600183901c16909103600281901c7f3333333333333333333333333333333333333333333333333333333333333333908116911601600481901c01167f01010101010101010101010101010101010101010101010101010101010101010260f81c90565b5f612e9961420d565b6040517ff5c36eaf00000000000000000000000000000000000000000000000000000000815273ffffffffffffffffffffffffffffffffffffffff8316600482015273200e12d10bb0c5e4a17e7018f0f1161919bb93899063f5c36eaf90602401602060405180830381865afa158015612f15573d5f803e3d5ffd5b505050506040513d601f19601f8201168201806040525081019061017f9190615ba7565b5f805f805f612f4887876142b3565b9250925092505f80612f5a85856132ab565b9150915081838015612f695750815b9650965050505050505b9250929050565b5f805f612f87858561430f565b91509150612f958282614371565b95945050505050565b5f7bffffffffffffffffffffffffffffffffffffffffffffffffffffffff838116601b90810b9160e086811d9291861690910b9085901d612fe1848484846143cb565b979650505050505050565b5f7bffffffffffffffffffffffffffffffffffffffffffffffffffffffff838116601b90810b9160e086811d9291861690910b9085901d61302f848484846143e2565b12979650505050505050565b5f7bffffffffffffffffffffffffffffffffffffffffffffffffffffffff838116601b90810b9160e086811d9291861690910b9085901d61307e848484846143e2565b1315979650505050505050565b5f7bffffffffffffffffffffffffffffffffffffffffffffffffffffffff838116601b90810b9160e086811d9291861690910b9085901d6130ce848484846143e2565b13979650505050505050565b5f7bffffffffffffffffffffffffffffffffffffffffffffffffffffffff838116601b90810b9160e086811d9291861690910b9085901d61311d848484846143e2565b1215979650505050505050565b5f7bffffffffffffffffffffffffffffffffffffffffffffffffffffffff8216601b0b60e083901d8282121561316a5761316482826144b6565b90925090505b5f612f958383614559565b5f80851584151780156131a157865f0361319557848492509250506132a2565b868692509250506132a2565b6131ab87876145b7565b90975095506131ba85856145b7565b9095509350858413156131ce579395929492935b838603604c8111156131e75787879350935050506132a2565b80600a0a86816131f9576131f96158c1565b0595505086850180881860ff90811c151589881890911c1516801561329457877f7fffffffffffffffffffffffffffffffffffffffffffffffffffffffffffffff0361327b576040517fd556b111000000000000000000000000000000000000000000000000000000008152600481018a905260248101899052604401610280565b600a968790059690980586019760019790970196613298565b8198505b5050868692509250505b94509492505050565b5f601b83900b831483838261330f577d90e40fbeea1d3a4abc8955e946fe31cdcf66f634e10000000000000000008605156132ef57620186a0860595506005850194505b8586601b0b1461330a57600a860595508460010194506132ef565b613325565b855f0361332557505f925060019150612f739050565b848560030b14613381575f85121561334557505f9250829150612f739050565b6040517fd556b1110000000000000000000000000000000000000000000000000000000081526004810183905260248101829052604401610280565b50507bffffffffffffffffffffffffffffffffffffffffffffffffffffffff841660e084901b1791509250929050565b5f7bffffffffffffffffffffffffffffffffffffffffffffffffffffffff838116601b90810b9160e086811d9291861690910b9085901d84806133f686868686613175565b915091505f6134058383614559565b9a9950505050505050505050565b5f7bffffffffffffffffffffffffffffffffffffffffffffffffffffffff838116601b90810b9160e086811d9291861690910b9085901d84806133f686868686613514565b5f7bffffffffffffffffffffffffffffffffffffffffffffffffffffffff8216601b0b60e083901d82811261348f57509192915050565b5f8061349b848461460d565b91509150805f036134b0575093949350505050565b5f8113156135095761350482847f161bcca7119915b50764b4abe86529797775a5f17195100000000000000000007fffffffffffffffffffffffffffffffffffffffffffffffffffffffffffffffb4613175565b935091505b5f612fe18385614559565b5f80835f03613559576040517f7a97930f0000000000000000000000000000000000000000000000000000000081526004810187905260248101869052604401610280565b855f0361356a57505f9050806132a2565b5f805f806135788a8a614675565b919b50995091506135898888614675565b919950975090505f61359a8b614916565b90505f6135a68a614916565b90507f161bcca7119915b50764b4abe86529797775a5f1719510000000000000000000604c818310156139c357841561360457507f0235fadd81c2822bb3f07877973d50f28bf22a31be8ee80000000000000000009050604b613982565b6f4b3b4ca85a86c47a098a22400000000083101561373057678ac7230489e80000831015613694576402540be40083101561366257620186a08310156136525750620186a09050600561390b565b506402540be4009050600a61390b565b655af3107a40008310156136815750655af3107a40009050600e61390b565b50678ac7230489e800009050601361390b565b6b204fce5e3e250261100000008310156136e65769152d02c7e14af68000008310156136cf575069152d02c7e14af68000009050601761390b565b506b204fce5e3e250261100000009050601c61390b565b6d314dc6448d9338c15b0a0000000083101561371557506d314dc6448d9338c15b0a000000009050602161390b565b506f4b3b4ca85a86c47a098a2240000000009050602661390b565b780197d4df19d605767337e9f14d3eec8920e4000000000000008310156138285773af298d050e4395d69670b12b7f410000000000008310156137c3577172cb5bd86321e38cb6ce6682e800000000008310156137a457507172cb5bd86321e38cb6ce6682e800000000009050602b61390b565b5073af298d050e4395d69670b12b7f410000000000009050603061390b565b76010b46c6cdd6e3e0828f4db456ff0c8ea0000000000000831015613804575076010b46c6cdd6e3e0828f4db456ff0c8ea00000000000009050603561390b565b50780197d4df19d605767337e9f14d3eec8920e4000000000000009050603a61390b565b7c03b58e88c75313ec9d329eaaa18fb92f75215b171000000000000000008310156138be577a026e4d30eccc3215dd8f3157d27e23acbdcfe6800000000000000083101561389657507a026e4d30eccc3215dd8f3157d27e23acbdcfe680000000000000009050603f61390b565b507c03b58e88c75313ec9d329eaaa18fb92f75215b171000000000000000009050604461390b565b7e05a8e89d75252446eb5d5d5b1cc5edf20a1a059e10ca00000000000000000083101561390b57507e05a8e89d75252446eb5d5d5b1cc5edf20a1a059e10ca000000000000000000905060495b81831161393f57600a820491507fffffffffffffffffffffffffffffffffffffffffffffffffffffffffffffffff0161390b565b815f03613982576040517f05e51ecb000000000000000000000000000000000000000000000000000000008152600481018d9052602481018c9052604401610280565b856139c3576040517f05e51ecb000000000000000000000000000000000000000000000000000000008152600481018f9052602481018e9052604401610280565b807f8000000000000000000000000000000000000000000000000000000000000000018d126139f657808d039c50613a69565b7f80000000000000000000000000000000000000000000000000000000000000009c90038c015f811315613a6957807f7fffffffffffffffffffffffffffffffffffffffffffffffffffffffffffffff038b13613a5657998a0199613a69565b5f809950995050505050505050506132a2565b5f808e128015613a7857505f8c135b15613ab5577f80000000000000000000000000000000000000000000000000000000000000008e01808d13613aad575f613ab1565b808d035b9150505b8b818f01039750613ad28f8e613acc888789614977565b8b614a5c565b90995097505f811315613b1c57604c811315613afc575f809a509a505050505050505050506132a2565b80600a0a8981613b0e57613b0e6158c1565b059850885f03613b1c575f97505b509698509496506132a295505050505050565b5f7bffffffffffffffffffffffffffffffffffffffffffffffffffffffff848116601b0b9060e086901d908516613b6c57506001915061087f9050565b5f8213613c0557815f03613bc957613b84855f61308b565b15613bbe576040517f8be8297200000000000000000000000000000000000000000000000000000000815260048101869052602401610280565b505f915061087f9050565b6040517fcceba0f10000000000000000000000000000000000000000000000000000000081526004810183905260248101829052604401610280565b613c10856001612f9e565b8015613c215750613c21865f612fec565b15613c3057859250505061087f565b613c3a855f61308b565b15613c6357613c5a613c4b87613f36565b613c5487613ebf565b86613b2f565b9250505061087f565b7bffffffffffffffffffffffffffffffffffffffffffffffffffffffff8516601b0b60e086901d5f80613c96848461460d565b915091505f613ca683855f614b63565b905060015f8080613cdd8f7bffffffffffffffffffffffffffffffffffffffffffffffffffffffff8116601b0b9160e09190911d90565b915091505b60018510613d245784600116600103613d0757613d0184848484613f8f565b90945092505b600185901c9450613d1a82828484613f8f565b9092509050613ce2565b5f80613d318f8e8e614c7a565b91509150613d4182828a8d613f8f565b9092509050613d518f8383614faf565b9092509050613d6282828888613f8f565b90925090505f613d728383614559565b9e5050505050505050505050505050509392505050565b5f7bffffffffffffffffffffffffffffffffffffffffffffffffffffffff8216601b0b60e083901d828112613dc057509192915050565b5f80613dcc848461460d565b915091505f84128015613dde57508015155b156135095761350482847f161bcca7119915b50764b4abe86529797775a5f17195100000000000000000007fffffffffffffffffffffffffffffffffffffffffffffffffffffffffffffffb46140da565b5f7bffffffffffffffffffffffffffffffffffffffffffffffffffffffff8216601b0b60e083901d82613e62838361460d565b9150505f613e708284614559565b9695505050505050565b5f7bffffffffffffffffffffffffffffffffffffffffffffffffffffffff838116601b90810b9160e086811d9291861690910b9085901d84806133f686868686613f8f565b5f7bffffffffffffffffffffffffffffffffffffffffffffffffffffffff8216601b0b60e083901d61316482826144b6565b5f7bffffffffffffffffffffffffffffffffffffffffffffffffffffffff838116601b90810b9160e086811d9291861690910b9085901d84806133f6868686866140da565b5f7bffffffffffffffffffffffffffffffffffffffffffffffffffffffff8216601b0b60e083901d6131648282615120565b5f613f738383612fec565b613f7d578161087f565b5090919050565b5f613f73838361308b565b5f8085158415178015613fa7575f92505f91506140a4565b613fb18487615bc7565b91505f613fbd88614916565b90505f613fc987614916565b90505f613fd68383615179565b5090505f6f0785ee10d5da46d900f436a00000000082111561400b576f0785ee10d5da46d900f436a000000000820491506025015b670de0b6b3a764000082111561402c57670de0b6b3a7640000820491506012015b633b9aca0082111561404557633b9aca00820491506009015b61271082111561405a57612710820491506004015b811561406e57600a8204915060010161405a565b6140788187615bc7565b955061409a8b8a614094878761408f87600a615b89565b614977565b89614a5c565b9097509550505050505b5094509492505050565b5f61087f837fffffffff0000000000000000000000000000000000000000000000000000000584613b2f565b5f806140e684846144b6565b90945092506140f786868686613175565b9150915094509492505050565b5f80825f526010600f60205f20060261ffff85821c165b80156141425780518503614139576001935060208101519250614142565b6040015161411b565b50509250929050565b5f80614156846151b4565b60020260010190505f61416985856151ce565b949091019093016020019392505050565b7fffffffffffffffffffffffffffffffffffffffffffffffffffffffffffffffe08201805163ffff0000601087901b1661ffff86161782527f312f5ae588c6ff62cd3f006af06cd48c98d7321649db7d8b2c396a81a204655591905f808686036004017ffffffffffffffffffffffffffffffffffffffffffffffffffffffffffffffffc8801865afa5090525050505050565b73200e12d10bb0c5e4a17e7018f0f1161919bb93893b1580614264575073200e12d10bb0c5e4a17e7018f0f1161919bb93893f7f1de7d717526cba131d684e312dedbf0852adef9cced9e36798ae4937f7145d4114155b156142b1576040517f73e6d7b300000000000000000000000000000000000000000000000000000000815273200e12d10bb0c5e4a17e7018f0f1161919bb93896004820152602401610280565b565b5f808060ff841681037f7fffffffffffffffffffffffffffffffffffffffffffffffffffffffffffffff8611156142fe57600a860460018201600a88065f1493509350935050614308565b8593509150600190505b9250925092565b5f805f805f61431e87876142b3565b92509250925080614365576040517fc47179660000000000000000000000000000000000000000000000000000000081526004810184905260248101839052604401610280565b50909590945092505050565b5f805f61437e85856132ab565b91509150806143c3576040517f22c9f7bb0000000000000000000000000000000000000000000000000000000081526004810186905260248101859052604401610280565b509392505050565b5f6143d8858585856143e2565b1495945050505050565b5f808515841517818712828612181785841417801561440757868592509250506132a2565b505f8584131561441b575092949193919260015b8386035f8112604c821317801561444e578215614440575f89945094505050506132a2565b885f945094505050506132a2565b600a82900a8981028a828281614466576144666158c1565b0514614492578415614482575f8b9650965050505050506132a2565b8a5f9650965050505050506132a2565b84156144a75788965094506132a29350505050565b95508794506132a29350505050565b5f807f8000000000000000000000000000000000000000000000000000000000000000840361454f577f7fffffffffffffffffffffffffffffffffffffffffffffffffffffffffffffff8303614542576040517fd556b1110000000000000000000000000000000000000000000000000000000081526004810185905260248101849052604401610280565b600a840593508260010192505b50505f9190910391565b5f805f61456685856132ab565b9150915080158015614576575081155b156143c3576040517f8eba4d070000000000000000000000000000000000000000000000000000000081526004810186905260248101859052604401610280565b5f805f805f6145c68787614675565b92509250925080614365576040517f05e51ecb0000000000000000000000000000000000000000000000000000000081526004810188905260248101879052604401610280565b5f805f831261462057508290505f612f73565b7fffffffffffffffffffffffffffffffffffffffffffffffffffffffffffffffb483121561465257505f905082612f73565b5f839003600a0a808581614668576146686158c1565b0794859003959350505050565b5f805f845f0361468d57505f91508190506001614308565b7f0235fadd81c2822bb3f07877973d50f28bf22a31be8ee800000000000000000085055f036148a1576f4b3b4ca85a86c47a098a22400000000085051580156146f657507f80000000000000000000000000000000000000000000000000000000000000268412155b15614717576f4b3b4ca85a86c47a098a224000000000850294506026840393505b7728c87cb5c89a2571ebfdcb54864ada834a00000000000000850515801561475f57507f80000000000000000000000000000000000000000000000000000000000000138412155b1561477857678ac7230489e80000850294506013840393505b7b097edd871cfda3a5697758bf0e3cbb5ac5741c64000000000000000085051580156147c457507f800000000000000000000000000000000000000000000000000000000000000a8412155b156147da576402540be40085029450600a840393505b7e3899162693736ac531a5a58f1fbb4b746504382ca7e4000000000000000000850515801561482957507f80000000000000000000000000000000000000000000000000000000000000028412155b1561483f576064850294506002840393506147da565b7f0235fadd81c2822bb3f07877973d50f28bf22a31be8ee8000000000000000000850515801561488f57507f80000000000000000000000000000000000000000000000000000000000000018412155b156148a157600a850294506001840393505b600a808602908105861480156148d757507f80000000000000000000000000000000000000000000000000000000000000018512155b156148e6578095506001850394505b50939492935050507f0235fadd81c2822bb3f07877973d50f28bf22a31be8ee80000000000000000008305151590565b5f80821215614973577f8000000000000000000000000000000000000000000000000000000000000000820361496d57507f8000000000000000000000000000000000000000000000000000000000000000919050565b505f0390565b5090565b5f805f6149848686615179565b91509150815f036149a85783818161499e5761499e6158c1565b049250505061087f565b8382106149f2576040517f6c59da12000000000000000000000000000000000000000000000000000000008152600481018790526024810186905260448101859052606401610280565b5f84868809600186198101871696879004966002600389028118808a02820302808a02820302808a02820302808a02820302808a02820302808a02909103025f82900382900490920185841190960395909502919093039390930492909217029150509392505050565b5f805f8587181215614b26577f7fffffffffffffffffffffffffffffffffffffffffffffffffffffffffffffff841115614b1357614abb7f7fffffffffffffffffffffffffffffffffffffffffffffffffffffffffffffff600161595b565b8403614aeb57507f80000000000000000000000000000000000000000000000000000000000000009050816132a2565b614af6600a85615a41565b614aff90615bee565b614b0a846001615bc7565b915091506132a2565b614b1c84615bee565b83915091506132a2565b7f7fffffffffffffffffffffffffffffffffffffffffffffffffffffffffffffff841115614b5957614aff600a85615a41565b50829050816132a2565b5f818303614b7257508261087f565b82821315614bb557828203604c811380614b8c57505f8113155b15614b9a575f91505061087f565b80600a0a8581614bac57614bac6158c1565b0591505061087f565b818303604c811380614bc757505f8113155b15614c0f576040517f1d5d6d10000000000000000000000000000000000000000000000000000000008152600481018690526024810185905260448101849052606401610280565b600a81900a85810286828281614c2757614c276158c1565b0514614c70576040517f1d5d6d10000000000000000000000000000000000000000000000000000000008152600481018890526024810187905260448101869052606401610280565b925061087f915050565b5f808383614c8882826145b7565b90965094505f8613614d0957855f03614ccd576040517f561fc7b500000000000000000000000000000000000000000000000000000000815260040160405180910390fd5b6040517f5d3fd4db0000000000000000000000000000000000000000000000000000000081526004810183905260248101829052604401610280565b5050837f161bcca7119915b50764b4abe86529797775a5f171951000000000000000000003614d4757614d3d83604c615bc7565b5f9150915061097d565b7f161bcca7119915b50764b4abe86529797775a5f171951000000000000000000084121580614d96577fffffffffffffffffffffffffffffffffffffffffffffffffffffffffffffffb5614db8565b7fffffffffffffffffffffffffffffffffffffffffffffffffffffffffffffffb45b5f0b8412614f73575f805f805f85614dd157604b614dd4565b604c5b614dde908a615bc7565b90505f8087614e0b577d90e40fbeea1d3a4abc8955e946fe31cdcf66f634e1000000000000000000614e2c565b7e05a8e89d75252446eb5d5d5b1cc5edf20a1a059e10ca0000000000000000005b7effffffffffffffffffffffffffffffffffffffffffffffffffffffffffffff169050808c81614e5e57614e5e6158c1565b05818102955090850193507ffffffffffffffffffffffffffffffffffffffffffffffffffffffffffffffc18019050614e978c82615224565b7d90e40fbeea1d3a4abc8955e946fe31cdcf66f634e10000000000000000000295508594508a8414614f23576123278114614efe57614ed98c82600101615224565b7d90e40fbeea1d3a4abc8955e946fe31cdcf66f634e100000000000000000002614f20565b7f161bcca7119915b50764b4abe86529797775a5f17195100000000000000000005b94505b50614f53838b848c89897fffffffffffffffffffffffffffffffffffffffffffffffffffffffffffffffb46152ab565b909a509850614f648a8a835f613175565b9750975050505050505061097d565b614f7d8585615120565b9095509350614f8d868686614c7a565b9095509350614f9c85856144b6565b925092505061097d565b50935093915050565b5f805f841215614feb57614fc384846144b6565b9094509250614fd3858585614faf565b9094509250614fe28484615120565b9150915061097d565b5f80614ff7868661460d565b9092509050845f808061500a8585615348565b9194509250905061270d612710615022600182615c1e565b8514615039576150338d8686615437565b90925090505b83156150c4575f61504b866001615bc7565b90505b808485830281615060576150606158c1565b051461507757600a84059350600a8805975061504e565b6150b86150848588615c44565b8961508f8785615c44565b8f87877ffffffffffffffffffffffffffffffffffffffffffffffffffffffffffffffffc6152ab565b909d509b506150eb9050565b819b507ffffffffffffffffffffffffffffffffffffffffffffffffffffffffffffffffc9a505b5050505050866150fc84835f614b63565b615107886001615bc7565b6151119190615bc7565b94509450505050935093915050565b5f8061516e7f161bcca7119915b50764b4abe86529797775a5f17195100000000000000000007fffffffffffffffffffffffffffffffffffffffffffffffffffffffffffffffb48686613514565b915091509250929050565b5f807fffffffffffffffffffffffffffffffffffffffffffffffffffffffffffffffff83850993909202808410938190039390930393915050565b5f81515f036151c457505f919050565b50602001515f1a90565b5f6151d8836151b4565b82106152145781836040517ffcfaeff1000000000000000000000000000000000000000000000000000000008152600401610280929190615c8f565b50600202016003015161ffff1690565b5f80615233600a612328615a41565b61523e906002615a54565b61524990600161595b565b90505f615259600a612328615a41565b90506002600a8504026001015f8052600281601e883c505f51617fff8116935061800081161561528857918101915b505f80526001600a8506600a6064870402018301601f873c50505f510192915050565b5f808888036152be57508390508161533c565b5f805f806152ce8c8b8f8d6140da565b915091505f806152e08a8a8d8c6140da565b915091506152f084848484613f8f565b8096508197505050505050505f8061530a8b8b8f8d6140da565b915091505f8061531c86868686613514565b915091505f8061532e84848f8e613175565b909a50985050505050505050505b97509795505050505050565b5f805f837ffffffffffffffffffffffffffffffffffffffffffffffffffffffffffffffffc0361538057508391505f90506001614308565b7ffffffffffffffffffffffffffffffffffffffffffffffffffffffffffffffffc84121561540e577fffffffffffffffffffffffffffffffffffffffffffffffffffffffffffffffb08412156153df57505f9150508215156001614308565b5f846004015f03600a0a90505f8187816153fb576153fb6158c1565b0594505080840286141592509050614308565b5f841261542357505f91508190506001614308565b50505060048101600a0a82025f6001614308565b5f80806064615449600a612328615a41565b615456600a612328615a41565b615461906002615a54565b61546c90600161595b565b615476919061595b565b615480919061595b565b90506154c4565b5f8052600280600a8504028301601e833c5f80516107d0840193505f80526001600a8606600a6064880402018501601f853c5f5101949350505050565b6154cf858288615487565b92508315614fa6576154e5600186018288615487565b915050935093915050565b6142b1615ca7565b5f60208284031215615508575f80fd5b81357fffffffff000000000000000000000000000000000000000000000000000000008116811461087f575f80fd5b5f81518084528060208401602086015e5f6020828601015260207fffffffffffffffffffffffffffffffffffffffffffffffffffffffffffffffe0601f83011685010191505092915050565b602081525f61087f6020830184615537565b5f602082840312156155a5575f80fd5b813567ffffffffffffffff8111156155bb575f80fd5b820160e0818503121561087f575f80fd5b5f815180845260208085019450602084015f5b838110156155fb578151875295820195908201906001016155df565b509495945050505050565b604081525f61561860408301856155cc565b8281036020848101919091528451808352858201928201905f5b8181101561564e57845183529383019391830191600101615632565b5090979650505050505050565b73ffffffffffffffffffffffffffffffffffffffff8116811461567c575f80fd5b50565b5f6020828403121561568f575f80fd5b813561087f8161565b565b5f8083357fffffffffffffffffffffffffffffffffffffffffffffffffffffffffffffffe18436030181126156cd575f80fd5b83018035915067ffffffffffffffff8211156156e7575f80fd5b6020019150600581901b3603821315612f73575f80fd5b7f4e487b71000000000000000000000000000000000000000000000000000000005f52604160045260245ffd5b604051601f82017fffffffffffffffffffffffffffffffffffffffffffffffffffffffffffffffe016810167ffffffffffffffff81118282101715615772576157726156fe565b604052919050565b5f67ffffffffffffffff821115615793576157936156fe565b5060051b60200190565b5f6157af6157aa8461577a565b61572b565b83815260208082019190600586811b8601368111156157cc575f80fd5b865b8181101561585357803567ffffffffffffffff8111156157ec575f80fd5b880136601f8201126157fc575f80fd5b803561580a6157aa8261577a565b81815290851b82018601908681019036831115615825575f80fd5b928701925b828410156158435783358252928701929087019061582a565b89525050509483019483016157ce565b5092979650505050505050565b5f8083357fffffffffffffffffffffffffffffffffffffffffffffffffffffffffffffffe1843603018112615893575f80fd5b83018035915067ffffffffffffffff8211156158ad575f80fd5b602001915036819003821315612f73575f80fd5b7f4e487b71000000000000000000000000000000000000000000000000000000005f52601260045260245ffd5b5f826158fc576158fc6158c1565b500690565b7f4e487b71000000000000000000000000000000000000000000000000000000005f52603260045260245ffd5b7f4e487b71000000000000000000000000000000000000000000000000000000005f52601160045260245ffd5b8082018082111561017f5761017f61592e565b828152604060208201525f61598660408301846155cc565b949350505050565b5f602080838503121561599f575f80fd5b825167ffffffffffffffff8111156159b5575f80fd5b8301601f810185136159c5575f80fd5b80516159d36157aa8261577a565b81815260059190911b820183019083810190878311156159f1575f80fd5b928401925b82841015612fe1578351825292840192908401906159f6565b5f60208284031215615a1f575f80fd5b5051919050565b5f60208284031215615a36575f80fd5b815161087f8161565b565b5f82615a4f57615a4f6158c1565b500490565b808202811582820484141761017f5761017f61592e565b600181815b80851115615ac457817fffffffffffffffffffffffffffffffffffffffffffffffffffffffffffffffff04821115615aaa57615aaa61592e565b80851615615ab757918102915b93841c9390800290615a70565b509250929050565b5f82615ada5750600161017f565b81615ae657505f61017f565b8160018114615afc5760028114615b0657615b22565b600191505061017f565b60ff841115615b1757615b1761592e565b50506001821b61017f565b5060208310610133831016604e8410600b8410161715615b45575081810a61017f565b615b4f8383615a6b565b807fffffffffffffffffffffffffffffffffffffffffffffffffffffffffffffffff04821115615b8157615b8161592e565b029392505050565b5f61087f8383615acc565b8181038181111561017f5761017f61592e565b5f60208284031215615bb7575f80fd5b815160ff8116811461087f575f80fd5b8082018281125f831280158216821582161715615be657615be661592e565b505092915050565b5f7f8000000000000000000000000000000000000000000000000000000000000000820361496d5761496d61592e565b8181035f831280158383131683831282161715615c3d57615c3d61592e565b5092915050565b8082025f82127f800000000000000000000000000000000000000000000000000000000000000084141615615c7b57615c7b61592e565b818105831482151761017f5761017f61592e565b828152604060208201525f6159866040830184615537565b7f4e487b71000000000000000000000000000000000000000000000000000000005f52605160045260245ffdfe098509d40a160bd70c570c690c810cc30d180d2a0d3c0d4e0df30e300ffc1166125113f31542161216d6182513f3191319421942197119a01a281a3c1b291b8d1ba51c201c381c501c891cb31ccb1ce31cf01deb1e0d1e1a1ed21f211f641f881f951fa2203b208420912110215f21ae21fb224a2299235123a023cc23ee24a624e7250e255b25a825f72644269126de27cf098509d40a160bd70c570c690c810cc30d180d2a0d3c0d4e0df30e300ffc1166125113f31542161216d6182513f3191319421942197119a01a281a3c1b291b8d1ba51c201c381c501c891cb31ccb1ce31cf01deb1e0d1e1a1ed21f211f641f881f951fa2203b208420912110215f21ae21fb224a2299235123a023cc23ee24a624e7250e255b25a825f72644269126de27cf"
  }
}