{
  "abi": [
    {
      "type": "function",
      "name": "expressionDeployerAddress",
      "inputs": [],
      "outputs": [
        {
          "name": "",
          "type": "address",
          "internalType": "address"
        }
      ],
      "stateMutability": "pure"
    },
    {
      "type": "function",
      "name": "interpreterAddress",
      "inputs": [],
      "outputs": [
        {
          "name": "",
          "type": "address",
          "internalType": "address"
        }
      ],
      "stateMutability": "pure"
    },
    {
      "type": "function",
      "name": "parserAddress",
      "inputs": [],
      "outputs": [
        {
          "name": "",
          "type": "address",
          "internalType": "address"
        }
      ],
      "stateMutability": "pure"
    },
    {
      "type": "function",
      "name": "storeAddress",
      "inputs": [],
      "outputs": [
        {
          "name": "",
          "type": "address",
          "internalType": "address"
        }
      ],
      "stateMutability": "pure"
    },
    {
      "type": "function",
      "name": "supportsInterface",
      "inputs": [
        {
          "name": "interfaceId",
          "type": "bytes4",
          "internalType": "bytes4"
        }
      ],
      "outputs": [
        {
          "name": "",
          "type": "bool",
          "internalType": "bool"
        }
      ],
      "stateMutability": "view"
    }
  ],
  "bytecode": {
    "object": "0x6080604052348015600e575f80fd5b506101f78061001c5f395ff3fe608060405234801561000f575f80fd5b5060043610610064575f3560e01c8063107628021161004d57806310762802146100cb5780634501e517146100e5578063f2c4da93146100ff575f80fd5b806301ffc9a7146100685780630c1916a414610090575b5f80fd5b61007b6100763660046101b1565b610119565b60405190151581526020015b60405180910390f35b739179445a637e6ae72bb38273944fab96834488dd5b60405173ffffffffffffffffffffffffffffffffffffffff9091168152602001610087565b73c9e1d673ed122193b28376016ac506de2fa20bee6100a6565b734c52eee7fb6aed0f1a30130d96d02409d9d886cf6100a6565b731aa775533e28b1d843e1a589034984e3a62005dc6100a6565b5f7fffffffff0000000000000000000000000000000000000000000000000000000082167fabaa01220000000000000000000000000000000000000000000000000000000014806101ab57507f01ffc9a7000000000000000000000000000000000000000000000000000000007fffffffff000000000000000000000000000000000000000000000000000000008316145b92915050565b5f602082840312156101c1575f80fd5b81357fffffffff00000000000000000000000000000000000000000000000000000000811681146101f0575f80fd5b939250505056"
  }
}