{
  "abi": [
    {
      "type": "function",
      "name": "buildLiteralParserFunctionPointers",
      "inputs": [],
      "outputs": [
        {
          "name": "",
          "type": "bytes",
          "internalType": "bytes"
        }
      ],
      "stateMutability": "pure"
    },
    {
      "type": "function",
      "name": "buildOperandHandlerFunctionPointers",
      "inputs": [],
      "outputs": [
        {
          "name": "",
          "type": "bytes",
          "internalType": "bytes"
        }
      ],
      "stateMutability": "pure"
    },
    {
      "type": "function",
      "name": "parsePragma1",
      "inputs": [
        {
          "name": "data",
          "type": "bytes",
          "internalType": "bytes"
        }
      ],
      "outputs": [
        {
          "name": "",
          "type": "tuple",
          "internalType": "struct PragmaV1",
          "components": [
            {
              "name": "usingWordsFrom",
              "type": "address[]",
              "internalType": "address[]"
            }
          ]
        }
      ],
      "stateMutability": "view"
    },
    {
      "type": "function",
      "name": "supportsInterface",
      "inputs": [
        {
          "name": "interfaceId",
          "type": "bytes4",
          "internalType": "bytes4"
        }
      ],
      "outputs": [
        {
          "name": "",
          "type": "bool",
          "internalType": "bool"
        }
      ],
      "stateMutability": "view"
    },
    {
      "type": "function",
      "name": "unsafeParse",
      "inputs": [
        {
          "name": "data",
          "type": "bytes",
          "internalType": "bytes"
        }
      ],
      "outputs": [
        {
          "name": "",
          "type": "bytes",
          "internalType": "bytes"
        },
        {
          "name": "",
          "type": "bytes32[]",
          "internalType": "bytes32[]"
        }
      ],
      "stateMutability": "view"
    },
    {
      "type": "error",
      "name": "BadDynamicLength",
      "inputs": [
        {
          "name": "dynamicLength",
          "type": "uint256",
          "internalType": "uint256"
        },
        {
          "name": "standardOpsLength",
          "type": "uint256",
          "internalType": "uint256"
        }
      ]
    },
    {
      "type": "error",
      "name": "BadSubParserResult",
      "inputs": [
        {
          "name": "bytecode",
          "type": "bytes",
          "internalType": "bytes"
        }
      ]
    },
    {
      "type": "error",
      "name": "CoefficientOverflow",
      "inputs": [
        {
          "name": "signedCoefficient",
          "type": "int256",
          "internalType": "int256"
        },
        {
          "name": "exponent",
          "type": "int256",
          "internalType": "int256"
        }
      ]
    },
    {
      "type": "error",
      "name": "DanglingSource",
      "inputs": []
    },
    {
      "type": "error",
      "name": "DuplicateLHSItem",
      "inputs": [
        {
          "name": "offset",
          "type": "uint256",
          "internalType": "uint256"
        }
      ]
    },
    {
      "type": "error",
      "name": "ExcessLHSItems",
      "inputs": [
        {
          "name": "offset",
          "type": "uint256",
          "internalType": "uint256"
        }
      ]
    },
    {
      "type": "error",
      "name": "ExcessRHSItems",
      "inputs": [
        {
          "name": "offset",
          "type": "uint256",
          "internalType": "uint256"
        }
      ]
    },
    {
      "type": "error",
      "name": "ExpectedLeftParen",
      "inputs": [
        {
          "name": "offset",
          "type": "uint256",
          "internalType": "uint256"
        }
      ]
    },
    {
      "type": "error",
      "name": "ExpectedOperand",
      "inputs": []
    },
    {
      "type": "error",
      "name": "ExponentOverflow",
      "inputs": [
        {
          "name": "signedCoefficient",
          "type": "int256",
          "internalType": "int256"
        },
        {
          "name": "exponent",
          "type": "int256",
          "internalType": "int256"
        }
      ]
    },
    {
      "type": "error",
      "name": "FixedDecimalOverflow",
      "inputs": [
        {
          "name": "signedCoefficient",
          "type": "int256",
          "internalType": "int256"
        },
        {
          "name": "exponent",
          "type": "int256",
          "internalType": "int256"
        },
        {
          "name": "decimals",
          "type": "uint8",
          "internalType": "uint8"
        }
      ]
    },
    {
      "type": "error",
      "name": "HexLiteralOverflow",
      "inputs": [
        {
          "name": "offset",
          "type": "uint256",
          "internalType": "uint256"
        }
      ]
    },
    {
      "type": "error",
      "name": "InvalidSubParser",
      "inputs": [
        {
          "name": "offset",
          "type": "uint256",
          "internalType": "uint256"
        }
      ]
    },
    {
      "type": "error",
      "name": "LHSItemCountOverflow",
      "inputs": [
        {
          "name": "offset",
          "type": "uint256",
          "internalType": "uint256"
        }
      ]
    },
    {
      "type": "error",
      "name": "LineRHSItemsOverflow",
      "inputs": []
    },
    {
      "type": "error",
      "name": "LossyConversionFromFloat",
      "inputs": [
        {
          "name": "signedCoefficient",
          "type": "int256",
          "internalType": "int256"
        },
        {
          "name": "exponent",
          "type": "int256",
          "internalType": "int256"
        }
      ]
    },
    {
      "type": "error",
      "name": "MalformedCommentStart",
      "inputs": [
        {
          "name": "offset",
          "type": "uint256",
          "internalType": "uint256"
        }
      ]
    },
    {
      "type": "error",
      "name": "MalformedHexLiteral",
      "inputs": [
        {
          "name": "offset",
          "type": "uint256",
          "internalType": "uint256"
        }
      ]
    },
    {
      "type": "error",
      "name": "MaxSources",
      "inputs": []
    },
    {
      "type": "error",
      "name": "MissingFinalSemi",
      "inputs": [
        {
          "name": "offset",
          "type": "uint256",
          "internalType": "uint256"
        }
      ]
    },
    {
      "type": "error",
      "name": "NegativeFixedDecimalConversion",
      "inputs": [
        {
          "name": "signedCoefficient",
          "type": "int256",
          "internalType": "int256"
        },
        {
          "name": "exponent",
          "type": "int256",
          "internalType": "int256"
        }
      ]
    },
    {
      "type": "error",
      "name": "NoWhitespaceAfterUsingWordsFrom",
      "inputs": [
        {
          "name": "offset",
          "type": "uint256",
          "internalType": "uint256"
        }
      ]
    },
    {
      "type": "error",
      "name": "NotAcceptingInputs",
      "inputs": [
        {
          "name": "offset",
          "type": "uint256",
          "internalType": "uint256"
        }
      ]
    },
    {
      "type": "error",
      "name": "OddLengthHexLiteral",
      "inputs": [
        {
          "name": "offset",
          "type": "uint256",
          "internalType": "uint256"
        }
      ]
    },
    {
      "type": "error",
      "name": "OpcodeIOOverflow",
      "inputs": [
        {
          "name": "offset",
          "type": "uint256",
          "internalType": "uint256"
        }
      ]
    },
    {
      "type": "error",
      "name": "OperandOverflow",
      "inputs": []
    },
    {
      "type": "error",
      "name": "OperandValuesOverflow",
      "inputs": [
        {
          "name": "offset",
          "type": "uint256",
          "internalType": "uint256"
        }
      ]
    },
    {
      "type": "error",
      "name": "ParenInputOverflow",
      "inputs": []
    },
    {
      "type": "error",
      "name": "ParenOverflow",
      "inputs": []
    },
    {
      "type": "error",
      "name": "ParseMemoryOverflow",
      "inputs": [
        {
          "name": "freeMemoryPointer",
          "type": "uint256",
          "internalType": "uint256"
        }
      ]
    },
    {
      "type": "error",
      "name": "ParseStackOverflow",
      "inputs": []
    },
    {
      "type": "error",
      "name": "ParseStackUnderflow",
      "inputs": []
    },
    {
      "type": "error",
      "name": "ParserOutOfBounds",
      "inputs": []
    },
    {
      "type": "error",
      "name": "SourceIndexOutOfBounds",
      "inputs": [
        {
          "name": "sourceIndex",
          "type": "uint256",
          "internalType": "uint256"
        },
        {
          "name": "bytecode",
          "type": "bytes",
          "internalType": "bytes"
        }
      ]
    },
    {
      "type": "error",
      "name": "SourceItemOpsOverflow",
      "inputs": []
    },
    {
      "type": "error",
      "name": "SourceTotalOpsOverflow",
      "inputs": []
    },
    {
      "type": "error",
      "name": "StringTooLong",
      "inputs": [
        {
          "name": "offset",
          "type": "uint256",
          "internalType": "uint256"
        }
      ]
    },
    {
      "type": "error",
      "name": "SubParseLiteralDispatchLengthOverflow",
      "inputs": [
        {
          "name": "dispatchLength",
          "type": "uint256",
          "internalType": "uint256"
        }
      ]
    },
    {
      "type": "error",
      "name": "SubParseableMissingDispatch",
      "inputs": [
        {
          "name": "offset",
          "type": "uint256",
          "internalType": "uint256"
        }
      ]
    },
    {
      "type": "error",
      "name": "UnclosedComment",
      "inputs": [
        {
          "name": "offset",
          "type": "uint256",
          "internalType": "uint256"
        }
      ]
    },
    {
      "type": "error",
      "name": "UnclosedLeftParen",
      "inputs": [
        {
          "name": "offset",
          "type": "uint256",
          "internalType": "uint256"
        }
      ]
    },
    {
      "type": "error",
      "name": "UnclosedOperand",
      "inputs": [
        {
          "name": "offset",
          "type": "uint256",
          "internalType": "uint256"
        }
      ]
    },
    {
      "type": "error",
      "name": "UnclosedStringLiteral",
      "inputs": [
        {
          "name": "offset",
          "type": "uint256",
          "internalType": "uint256"
        }
      ]
    },
    {
      "type": "error",
      "name": "UnclosedSubParseableLiteral",
      "inputs": [
        {
          "name": "offset",
          "type": "uint256",
          "internalType": "uint256"
        }
      ]
    },
    {
      "type": "error",
      "name": "UnexpectedComment",
      "inputs": [
        {
          "name": "offset",
          "type": "uint256",
          "internalType": "uint256"
        }
      ]
    },
    {
      "type": "error",
      "name": "UnexpectedLHSChar",
      "inputs": [
        {
          "name": "offset",
          "type": "uint256",
          "internalType": "uint256"
        }
      ]
    },
    {
      "type": "error",
      "name": "UnexpectedOperand",
      "inputs": []
    },
    {
      "type": "error",
      "name": "UnexpectedOperandValue",
      "inputs": []
    },
    {
      "type": "error",
      "name": "UnexpectedRHSChar",
      "inputs": [
        {
          "name": "offset",
          "type": "uint256",
          "internalType": "uint256"
        }
      ]
    },
    {
      "type": "error",
      "name": "UnexpectedRightParen",
      "inputs": [
        {
          "name": "offset",
          "type": "uint256",
          "internalType": "uint256"
        }
      ]
    },
    {
      "type": "error",
      "name": "UnknownWord",
      "inputs": [
        {
          "name": "word",
          "type": "string",
          "internalType": "string"
        }
      ]
    },
    {
      "type": "error",
      "name": "UnsupportedLiteralType",
      "inputs": [
        {
          "name": "offset",
          "type": "uint256",
          "internalType": "uint256"
        }
      ]
    },
    {
      "type": "error",
      "name": "UppercaseHexPrefix",
      "inputs": [
        {
          "name": "offset",
          "type": "uint256",
          "internalType": "uint256"
        }
      ]
    },
    {
      "type": "error",
      "name": "WordSize",
      "inputs": [
        {
          "name": "word",
          "type": "string",
          "internalType": "string"
        }
      ]
    },
    {
      "type": "error",
      "name": "ZeroLengthHexLiteral",
      "inputs": [
        {
          "name": "offset",
          "type": "uint256",
          "internalType": "uint256"
        }
      ]
    },
    {
      "type": "error",
      "name": "ZeroStringStartPointer",
      "inputs": []
    }
  ],
  "bytecode": {
    "object": "0x6080604052348015600e575f80fd5b5061549d8061001c5f395ff3fe608060405234801561000f575f80fd5b5060043610610064575f3560e01c80637764fd9c1161004d5780637764fd9c146100b0578063ccf44775146100d1578063d6d8c9a8146100e6575f80fd5b806301ffc9a7146100685780635514ca2014610090575b5f80fd5b61007b610076366004614d0e565b6100ee565b60405190151581526020015b60405180910390f35b6100a361009e366004614e0e565b610186565b6040516100879190614e88565b6100c36100be366004614e0e565b61023e565b604051610087929190614f39565b6100d961025e565b6040516100879190614f8e565b6100d961026d565b5f7fffffffff0000000000000000000000000000000000000000000000000000000082167f1a2c8edd00000000000000000000000000000000000000000000000000000000148061018057507f01ffc9a7000000000000000000000000000000000000000000000000000000007fffffffff000000000000000000000000000000000000000000000000000000008316145b92915050565b6040805160208101909152606081525f6101e3836101a2610277565b6101aa61029a565b60408051808201909152600881527f1c991fe52025208200000000000000000000000000000000000000000000000060208201526102ba565b90505f6020840190505f6101fa8580510160200190565b90506102078383836104ac565b915061021483838361050e565b9150604051806020016040528061022a856106db565b90529350505050610239610739565b919050565b606080610255610250846101a2610277565b61077e565b91509150915091565b60606102686108fb565b905090565b6060610268610948565b6060604051806101a0016040528061016381526020016152aa6101639139905090565b60606040518060c001604052806090815260200161540d60909139905090565b6103476040518061026001604052805f81526020015f81526020015f81526020015f81526020015f81526020015f81526020015f80191681526020015f81526020015f81526020015f81526020015f81526020015f81526020015f80191681526020016060815260200160608152602001606081526020015f815260200160608152602001606081525090565b5f6040518061026001604052805f81526020015f81526020015f81526020015f81526020015f81526020015f81526020015f801b81526020015f8152602001600481526020015f81526020015f81526020015f81526020015f801b8152602001848152602001858152602001600467ffffffffffffffff8111156103cd576103cd614d4d565b6040519080825280602002602001820160405280156103f6578160200160208202803683370190505b5081525f602080830182905260408084018b905260609384018a90528051601f017fffffffffffffffffffffffffffffffffffffffffffffffffffffffffffffffe016828152808301825283517fffffffffffffffffffffffffffffffffffffffffffffffffffffffffffff00001681178452855290840182905283018190529082018190526080820181905260a082018190526101208201819052610140820181905261020082015290505b95945050505050565b5f5b8183101561050457825160015f9190911a1b6401000026008116156104df576104d8858585610c09565b93506104fe565b658000000000008116156104f8576104d8858585610c4d565b50610504565b506104ae565b50815b9392505050565b815160408051808201909152601081527f7573696e672d776f7264732d66726f6d0000000000000000000000000000000060208201525f919061055090614fa0565b7fffffffffffffffffffffffffffffffff000000000000000000000000000000008216146105815783915050610507565b5060108301925081831061061a5761022084015183037fffffffffffffffffffffffffffffffffffffffffffffffffffffffffffffffe0017f53c102422473590ce12511beab7637e1c33b596a7d58a80ea98463ad78950000175b6040517fe3e4992d00000000000000000000000000000000000000000000000000000000815260040161061191815260200190565b60405180910390fd5b825160015f91821a1b90640100002600821690036106835761022085015184037fffffffffffffffffffffffffffffffffffffffffffffffffffffffffffffffe0017f53c102422473590ce12511beab7637e1c33b596a7d58a80ea98463ad78950000176105dc565b836001019350505b818310156105045761069e8484846104ac565b925081831015610504575f806106b5868686610e7b565b9096509092509050816106c9575050610504565b6106d486868361102d565b505061068b565b60c08101516040516060919073ffffffffffffffffffffffffffffffffffffffff602082015f5b841561072357848316825260a09490941c5193602090910190600101610702565b8352604052610731826110ec565b509392505050565b60405162010000811061077b576040517f766c065f00000000000000000000000000000000000000000000000000000000815260048101829052602401610611565b50565b6060805f8361022001515111156108d0575f61079f84610220015160200190565b90505f6107b485610220015180510160200190565b90506107c18583836104ac565b91506107ce85838361050e565b91505b80821015610805576107e48583836104ac565b91506107f185838361113a565b91506107fe85838361153d565b91506107d1565b80821461083e576040517f7d565df600000000000000000000000000000000000000000000000000000000815260040160405180910390fd5b610100850151600816156108cd5761022085015182037fffffffffffffffffffffffffffffffffffffffffffffffffffffffffffffffe0017f53c102422473590ce12511beab7637e1c33b596a7d58a80ea98463ad78950000176040517ff06f54cf00000000000000000000000000000000000000000000000000000000815260040161061191815260200190565b50505b5f806108e56108de86611afc565b8690611c31565b915091506108f1610739565b9094909350915050565b6040805160a0810182526004808252611c996020830152611fe592820192909252612025606082810191909152612082608083015291908190805b61093f8161226b565b94505050505090565b6060614d045f604890508091505f6040518061092001604052808467ffffffffffffffff1667ffffffffffffffff1681526020016122fb81526020016122fb81526020016122fb81526020016123c781526020016124db81526020016124db81526020016123c781526020016123c781526020016124db81526020016122fb81526020016122fb81526020016122fb81526020016124db81526020016124db81526020016124db81526020016124db81526020016124db81526020016124db81526020016124db81526020016124db81526020016124db81526020016124db81526020016124db81526020016124db81526020016124db81526020016124db81526020016124db81526020016124db81526020016124db81526020016124db81526020016124db81526020016124db81526020016124db81526020016124db81526020016124db81526020016124db81526020016124db81526020016124db81526020016124db81526020016124db81526020016124db81526020016124db81526020016124db81526020016124db81526020016124db81526020016124db81526020016124db81526020016124db81526020016124db81526020016124db81526020016124db81526020016124db81526020016124db81526020016124db81526020016124db81526020016124db81526020016124db81526020016124db81526020016124db81526020016124db81526020016124db81526020016124db81526020016124db81526020016124db81526020016124db81526020016124db81526020016124db81526020016124db81526020016124db81526020016124db81526020016124db81526020016124db8152509050606081905060488151146109365780516040517fc8b56901000000000000000000000000000000000000000000000000000000008152600481019190915260248101849052604401610611565b610100830180517ffffffffffffffffffffffffffffffffffffffffffffffffffffffffffffffffe1690525f610c45838364010000260061251d565b949350505050565b6101008301805160011790525f60048301821015610ce75761022084015183037fffffffffffffffffffffffffffffffffffffffffffffffffffffffffffffffe0017f53c102422473590ce12511beab7637e1c33b596a7d58a80ea98463ad78950000175b6040517f25a7646800000000000000000000000000000000000000000000000000000000815260040161061191815260200190565b825160f01c612f2a8114610d765761022085015184037fffffffffffffffffffffffffffffffffffffffffffffffffffffffffffffffe0017f53c102422473590ce12511beab7637e1c33b596a7d58a80ea98463ad78950000176040517f3e47169c00000000000000000000000000000000000000000000000000000000815260040161061191815260200190565b6003840193505f5b83851015610e1b5784515f1a7fffffffffffffffffffffffffffffffffffffffffffffffffffffffffffffffd18101610e0f577fffffffffffffffffffffffffffffffffffffffffffffffffffffffffffffffff86015160f01c7fffffffffffffffffffffffffffffffffffffffffffffffffffffffffffffd5d18101610e0d57505050600193840193610e1b565b505b85600101955050610d7e565b80610e715761022086015185037fffffffffffffffffffffffffffffffffffffffffffffffffffffffffffffffe0017f53c102422473590ce12511beab7637e1c33b596a7d58a80ea98463ad7895000017610cb2565b5092949350505050565b81515f90819081908190600181831a1b6703ff200000000000811615610fa25786610ea7896001615012565b1015610f9957600182811a1b7ffffffffffffffffffffffffffffffffffeffffffffffffffffff00000000000082821701610ee4575f9350610f93565b7ffffffffffffffffffffffffffffffffffffffffffeffffffffff00000000000082821701610f8e576102208a015189037fffffffffffffffffffffffffffffffffffffffffffffffffffffffffffffffe0017f53c102422473590ce12511beab7637e1c33b596a7d58a80ea98463ad78950000176040517f75c28ff900000000000000000000000000000000000000000000000000000000815260040161061191815260200190565b600193505b50610fe7565b60019250610fe7565b640400000000811615610fb85760029250610fe7565b6b080000000000000000000000811615610fd55760039250610fe7565b505f9450869350849250611024915050565b505f905061101588888861100d83876101a09190910151600291820201015161ffff1690565b63ffffffff16565b90975060019550879450925050505b93509350939050565b73ffffffffffffffffffffffffffffffffffffffff8111156110ca5761022083015182037fffffffffffffffffffffffffffffffffffffffffffffffffffffffffffffffe0017f53c102422473590ce12511beab7637e1c33b596a7d58a80ea98463ad78950000176040517f9d7e517e00000000000000000000000000000000000000000000000000000000815260040161061191815260200190565b60c09092018051604080516020810190915290815260a01b9290921790915250565b60208101602082510282015b808210156111355781518151835281526020909101907fffffffffffffffffffffffffffffffffffffffffffffffffffffffffffffffe0016110f8565b505050565b5f5b818310156105045782515f90600190821a1b6f07fffffe8000000000000000000000008116156113b757610100860151600116156111f65761022086015185037fffffffffffffffffffffffffffffffffffffffffffffffffffffffffffffffe0017f53c102422473590ce12511beab7637e1c33b596a7d58a80ea98463ad78950000175b6040517f5520a51700000000000000000000000000000000000000000000000000000000815260040161061191815260200190565b6f07fffffe0000000000000000000000008116156112c95761122985856f07fffffe0000000003ff200000000000612546565b90955091505f6112398784612615565b50905080156112c35761022087015186037fffffffffffffffffffffffffffffffffffffffffffffffffffffffffffffffe0017f53c102422473590ce12511beab7637e1c33b596a7d58a80ea98463ad78950000176040517f53e6feba00000000000000000000000000000000000000000000000000000000815260040161061191815260200190565b506112ea565b6112e760018601856f07fffffe0000000003ff20000000000061251d565b94505b856040015160ff1660ff148061130757508560a0015160ff1660ff145b1561138d5761022086015185037fffffffffffffffffffffffffffffffffffffffffffffffffffffffffffffffe0017f53c102422473590ce12511beab7637e1c33b596a7d58a80ea98463ad78950000176040517f3820634100000000000000000000000000000000000000000000000000000000815260040161061191815260200190565b604086018051600190810190915260a0870180519091019052610100860180516009179052611536565b640100002600811615611409576113d7600186018564010000260061251d565b610100870180517ffffffffffffffffffffffffffffffffffffffffffffffffffffffffffffffffe1690529450611536565b670400000000000000811615611455575050610100840180516008177ffffffffffffffffffffffffffffffffffffffffffffffffffffffffffffffffe16905260019290920191610504565b658000000000008116156114e55761022086015185037fffffffffffffffffffffffffffffffffffffffffffffffffffffffffffffffe0017f53c102422473590ce12511beab7637e1c33b596a7d58a80ea98463ad78950000175b6040517fedad0c5800000000000000000000000000000000000000000000000000000000815260040161061191815260200190565b61022086015185037fffffffffffffffffffffffffffffffffffffffffffffffffffffffffffffffe0017f53c102422473590ce12511beab7637e1c33b596a7d58a80ea98463ad78950000176111c1565b505061113c565b5f5b818310156105045782515f90600190821a1b6f07fffffe00000000000000000000000081161561175d57610100860151600116156115f95761022086015185037fffffffffffffffffffffffffffffffffffffffffffffffffffffffffffffffe0017f53c102422473590ce12511beab7637e1c33b596a7d58a80ea98463ad78950000175b6040517f4e803df600000000000000000000000000000000000000000000000000000000815260040161061191815260200190565b8461161581866f07fffffe0000000003ff200000000000612546565b80945081975050505f8061162e89610240015186612690565b91509150811561166f57611643898989612764565b97505f6116508a836129ef565b905061165d8a8383612a15565b50610100890180516002179052611749565b6116798986612bfa565b9092509050811561169d5761168f895f83612a15565b61169889612c74565b611749565b5f6060848a03600581016116b28d8d8d612764565b9b508c6101e0015151602002602001810190505f60059050604051935060208201840160405282818501528184528394506116fa8860056116f38760200190565b0185612cda565b5050506101e08b015180516001019061172d906117278361171e8680510160200190565b90602002900390565b83612ce3565b5061173a8b60ff84612a15565b50506101008901805160021790525b505050610100860180516001179052611af5565b6101008601516002161561187f576501000000000081165f036117fb5761022086015185037fffffffffffffffffffffffffffffffffffffffffffffffffffffffffffffffe0017f53c102422473590ce12511beab7637e1c33b596a7d58a80ea98463ad78950000176040517f23b5c6ea00000000000000000000000000000000000000000000000000000000815260040161061191815260200190565b606086810180515f1a6003019190829053603b821115611847576040517f6232f2d900000000000000000000000000000000000000000000000000000000815260040160405180910390fd5b5050610100860180517ffffffffffffffffffffffffffffffffffffffffffffffffffffffffffffffffc169052600190940193611af5565b6502000000000081161561195b576060868101515f90811a91908290036119215761022088015187037fffffffffffffffffffffffffffffffffffffffffffffffffffffffffffffffe0017f53c102422473590ce12511beab7637e1c33b596a7d58a80ea98463ad78950000176040517f7f9db54200000000000000000000000000000000000000000000000000000000815260040161061191815260200190565b808801600383039250828153826004820101515f1a8360028301015160f01c600101535061194e88612c74565b5050600190940193611af5565b6401000026008116156119ad5761197b600186018564010000260061251d565b610100870180517ffffffffffffffffffffffffffffffffffffffffffffffffffffffffffffffffe1690529450611af5565b6b0800000003ff2004000000008116156119e8576119cc868686612cef565b94506119d786612c74565b610100860180516001179052611af5565b65100000000000811615611a0d57611a008686612e19565b5050600190920191610504565b670800000000000000811615611a4557611a278686612e19565b611a3086613271565b50506004610100850152600190920191610504565b65800000000000811615611aa45761022086015185037fffffffffffffffffffffffffffffffffffffffffffffffffffffffffffffffe0017f53c102422473590ce12511beab7637e1c33b596a7d58a80ea98463ad78950000176114b0565b61022086015185037fffffffffffffffffffffffffffffffffffffffffffffffffffffffffffffffe0017f53c102422473590ce12511beab7637e1c33b596a7d58a80ea98463ad78950000176115c4565b505061153f565b60e08101518151516060919060f082901c9060208114611b48576040517f858f2dcf00000000000000000000000000000000000000000000000000000000815260040160405180910390fd5b604051935060208401601083045f8183535060016008850483018101928391015f80805b88811015611ba55789811c61ffff81165163ffff0000601092831b16811760e01b8786015284019360f08390031b929092179101611b6c565b50825117909152878203017fffffffffffffffffffffffffffffffffffffffffffffffffffffffffffffffe08181018952908801601f01166040525f5b82811015611c25576002810288016003015161ffff90811683018051602060f082901c019260e09190911c1690611c1a838284612cda565b505050600101611be2565b50505050505050919050565b6060805f611c3e8461359f565b90505f5b81811015611c81575f611c5586836135b9565b60040190505f611c6587846135e8565b60040282019050611c778883836135ff565b5050600101611c42565b5083611c8c866138bf565b92509250505b9250929050565b5f80808080611ca9888888613934565b985090925090508181036040811115611d3d5761022089015183037fffffffffffffffffffffffffffffffffffffffffffffffffffffffffffffffe0017f53c102422473590ce12511beab7637e1c33b596a7d58a80ea98463ad78950000176040517fff2f594900000000000000000000000000000000000000000000000000000000815260040161061191815260200190565b805f03611dc55761022089015183037fffffffffffffffffffffffffffffffffffffffffffffffffffffffffffffffe0017f53c102422473590ce12511beab7637e1c33b596a7d58a80ea98463ad78950000176040517fc75cd50900000000000000000000000000000000000000000000000000000000815260040161061191815260200190565b60028106600103611e515761022089015183037fffffffffffffffffffffffffffffffffffffffffffffffffffffffffffffffe0017f53c102422473590ce12511beab7637e1c33b596a7d58a80ea98463ad78950000176040517fd76d9b5700000000000000000000000000000000000000000000000000000000815260040161061191815260200190565b6001820397505f5b838910611fd45788515f90811a906001821b906703ff000000000000821615611ea557507fffffffffffffffffffffffffffffffffffffffffffffffffffffffffffffffd08201611f9e565b6c7e000000000000000000000000821615611ee357507fffffffffffffffffffffffffffffffffffffffffffffffffffffffffffffffa98201611f9e565b687e0000000000000000821615611f1d57507fffffffffffffffffffffffffffffffffffffffffffffffffffffffffffffffc98201611f9e565b6102208d01518c037fffffffffffffffffffffffffffffffffffffffffffffffffffffffffffffffe0017f53c102422473590ce12511beab7637e1c33b596a7d58a80ea98463ad78950000176040517f69f1e3e600000000000000000000000000000000000000000000000000000000815260040161061191815260200190565b7fffffffffffffffffffffffffffffffffffffffffffffffffffffffffffffffff909b019a831b96909617955050600401611e59565b50509350909150505b935093915050565b5f805f805f80611ff58888613984565b9296509094509250905061200a898486613e23565b826120158383613ea7565b9550955050505050935093915050565b5f808080612034878787613ef9565b7fffffffffffffffffffffffffffffffffffffffffffffffffffffffffffffffe08301805184840382529199509294509092505f91612072816140b3565b9190529698969750505050505050565b6001909101905f80836120a681856fffffffffdffffffffffffffeffffd9ff61251d565b9450848181036121315761022087015186037fffffffffffffffffffffffffffffffffffffffffffffffffffffffffffffffe0017f53c102422473590ce12511beab7637e1c33b596a7d58a80ea98463ad78950000176040517ff73a1aa800000000000000000000000000000000000000000000000000000000815260040161061191815260200190565b61213c878787610c09565b95508561215a81876fffffffffdfffffffffffffffffffffff61251d565b9650868681106121e65761022089015188037fffffffffffffffffffffffffffffffffffffffffffffffffffffffffffffffe0017f53c102422473590ce12511beab7637e1c33b596a7d58a80ea98463ad78950000175b6040517fc4b1913500000000000000000000000000000000000000000000000000000000815260040161061191815260200190565b875160015f91821a1b906b20000000000000000000000082169003612256576102208a015189037fffffffffffffffffffffffffffffffffffffffffffffffffffffffffffffffe0017f53c102422473590ce12511beab7637e1c33b596a7d58a80ea98463ad78950000176121b1565b50600190970196876120158a868686866140df565b60605f825160020267ffffffffffffffff81111561228b5761228b614d4d565b6040519080825280601f01601f1916602001820160405280156122b5576020820181803683370190505b50905061ffff80196020850160208651028101600285015b818310156122ef578051835186169085161781526020909201916002016122cd565b50939695505050505050565b5f8151600103612386575060208101517bffffffffffffffffffffffffffffffffffffffffffffffffffffffff8116601b0b60e082901d5f61233e8383836142a3565b905061ffff81111561237c576040517f7938075c00000000000000000000000000000000000000000000000000000000815260040160405180910390fd5b9250610239915050565b81515f0361239557505f919050565b6040517f1ac6690800000000000000000000000000000000000000000000000000000000815260040160405180910390fd5b5f815160020361249f57602082015160408301517bffffffffffffffffffffffffffffffffffffffffffffffffffffffff8216601b0b60e083901d5f61240e8383836142a3565b7bffffffffffffffffffffffffffffffffffffffffffffffffffffffff8516601b0b935060e085901d925090505f6124478484836142a3565b905060ff821180612458575060ff81115b1561248f576040517f7938075c00000000000000000000000000000000000000000000000000000000815260040160405180910390fd5b60081b1794506102399350505050565b600282511015612395576040517ff16066b000000000000000000000000000000000000000000000000000000000815260040160405180910390fd5b5f81515f14612516576040517f9f16b02000000000000000000000000000000000000000000000000000000000815260040160405180910390fd5b505f919050565b5f5b5f82600186515f1a1b1611838510161561253e5760018401935061251f565b509192915050565b5f80806001818787036020811161255d5780612560565b60205b915050875192505b8519600184841a1b1615818310161561258657600182019150612568565b9681019660208290036008810293841c90931b9261260857604080516020810185905201604080517fffffffffffffffffffffffffffffffffffffffffffffffffffffffffffffffe0818403018152908290527fe47fe8b700000000000000000000000000000000000000000000000000000000825261061191600401614f8e565b5095969095509350505050565b5f806126218484612bfa565b909250905081611c925750610120830180515f93845260209384902060408051928352948201855293909401517fffffffffffffffffffffffffffffffffffffffffffffffffffffffff00000000909316601084901b62ff00001617909317909252909160ff90911660010190565b600182810180515f928392600560ff93909316602102870192830192909101835b818310156127555760018301516021909301805190935f90819060ff1681806126da838e6142ff565b915091508186165f036126fc575f809b509b5050505050505050505050611c92565b5f8761270c60018503891661432a565b016004028b015195505062ffffff90811693508416830391506127409050575060019750601c1a9550611c92945050505050565b6127498361432a565b840193505050506126b1565b505f9788975095505050505050565b81516101e08401515f80825291600190831a1b907ffffffffffffffffffffffffffffffffffffffffffffffffff0000000000000008201610e71576127a885615052565b610100870180517ffffffffffffffffffffffffffffffffffffffffffffffffffffffffffffffffe169052805190955060015f91821a1b9250805b8587101561298d57865160015f9190911a1b93506401000026008416156128165761280f888888610c09565b96506127e3565b67400000000000000084161561283a5761282f87615052565b96506001905061298d565b6001886101000151165f0361290b57600482036128d25761022088015187037fffffffffffffffffffffffffffffffffffffffffffffffffffffffffffffffe0017f53c102422473590ce12511beab7637e1c33b596a7d58a80ea98463ad78950000176040517f8c9fdbb300000000000000000000000000000000000000000000000000000000815260040161061191815260200190565b5f6128de898989614402565b60208581028701018190526101008b0180516001179052909850905061290383615052565b9250506127e3565b61022088015187037fffffffffffffffffffffffffffffffffffffffffffffffffffffffffffffffe0017f53c102422473590ce12511beab7637e1c33b596a7d58a80ea98463ad78950000175b6040517f722cd24a00000000000000000000000000000000000000000000000000000000815260040161061191815260200190565b806129e35761022088015187037fffffffffffffffffffffffffffffffffffffffffffffffffffffffffffffffe0017f53c102422473590ce12511beab7637e1c33b596a7d58a80ea98463ad7895000017612958565b50905250919392505050565b6101c08201516002828102820101516101e08401515f9261ffff90921691906104a39083565b612a1e8361442a565b610100830180517ffffffffffffffffffffffffffffffffffffffffffffffffffffffffffffffffb1660081790526020808401515f90811a8501602101805190911a60ff811492919060018101825350508115612aa7576040517f8092d1ea00000000000000000000000000000000000000000000000000000000815260040160405180910390fd5b5050825180516060808601515f90811a87016061018051939461ffff8616949093921a60ff81149291600886048503601c0191600181018253505f60038201537fffffffffffffffffffffffffffffffffffffffffffffffffffffffffffffffe30180517fffffffffffffffffffffffffffffffffffffffffffffffffffffffffffff00001690911790528115612b6a576040517f3abd0c5e00000000000000000000000000000000000000000000000000000000815260040160405180910390fd5b5050602090920183821b176018820185901b178083529160e0829003612bf25760408051601083901b6020908117601f9092017fffffffffffffffffffffffffffffffffffffffffffffffffffffffffffffffe016918252810190915281517fffffffffffffffffffffffffffffffffffffffffffffffffffffffffffff0000168117825286525b505050505050565b6101208201516101408301515f8381526020808220919384939290911c91600160ff84161b80821615612c5f5761ffff83165b8015612c5d578360201c8503612c50576001965061ffff8460101c169550612c5d565b51925061ffff8316612c2d565b505b17610140909601959095525090939092509050565b6060818101515f90811a919082900361113557602083810180515f1a600101919082815350603e8210612cd3576040517fe826b5f600000000000000000000000000000000000000000000000000000000815260040160405180910390fd5b5050505050565b8083835e505050565b6020810283835e505050565b5f8080612cfd868686610e7b565b9096509250905080612d8b5761022086015185037fffffffffffffffffffffffffffffffffffffffffffffffffffffffffffffffe0017f53c102422473590ce12511beab7637e1c33b596a7d58a80ea98463ad78950000175b6040517fb0e4e5b300000000000000000000000000000000000000000000000000000000815260040161061191815260200190565b5f80612d96846144b6565b6101808901511615612dd75761016088015160101c5b8015801590612db9575082155b15612dd557602081015190519085149250600190910190612dac565b505b61016088015161ffff16612dfd600184612df15782612df5565b8383035b8b9190612a15565b5081612e0d57612e0d88856144cd565b50949695505050505050565b6060828101515f1a908115612ea95761022084015183037fffffffffffffffffffffffffffffffffffffffffffffffffffffffffffffffe0017f53c102422473590ce12511beab7637e1c33b596a7d58a80ea98463ad78950000176040517f6fb11cdc00000000000000000000000000000000000000000000000000000000815260040161061191815260200190565b5050612eb48261442a565b61010082018051600416600890811790915260a0830151602084015160ff8083169360f89290921c9290911c1681035f819003612fde576004856101000151165f03612f7b5761022085015184037fffffffffffffffffffffffffffffffffffffffffffffffffffffffffffffffe0017f53c102422473590ce12511beab7637e1c33b596a7d58a80ea98463ad78950000176040517fab1d3ea700000000000000000000000000000000000000000000000000000000815260040161061191815260200190565b90820190603e8210612fb9576040517fe826b5f600000000000000000000000000000000000000000000000000000000815260040160405180910390fd5b60f882901b6020860152610200850151612fd3908461451f565b6102008601526130f9565b60018111156130f957808310156130705761022085015184037fffffffffffffffffffffffffffffffffffffffffffffffffffffffffffffffe0017f53c102422473590ce12511beab7637e1c33b596a7d58a80ea98463ad78950000176040517f78ef278200000000000000000000000000000000000000000000000000000000815260040161061191815260200190565b808311156130f95761022085015184037fffffffffffffffffffffffffffffffffffffffffffffffffffffffffffffffe0017f53c102422473590ce12511beab7637e1c33b596a7d58a80ea98463ad78950000176040517f43168e6800000000000000000000000000000000000000000000000000000000815260040161061191815260200190565b8082036001016020601083028101905b8181101561325d5760a08801516020848a0181015191831c61ffff16915f1a9060015b82811161324b5760208406601c0361314557925160f01c925b83516102008d015160019190911a9061315e90826145a3565b6102008e01525f82851480156131745750896001145b61317f576001613181565b8b5b6102008f015190915061319490826145e9565b6102008f0152600f8111806131a95750600f82115b1561322f576102208e01518d037fffffffffffffffffffffffffffffffffffffffffffffffffffffffffffffffe0017f53c102422473590ce12511beab7637e1c33b596a7d58a80ea98463ad78950000176040517f7ea1869f00000000000000000000000000000000000000000000000000000000815260040161061191815260200190565b818160041b17600187015350506004939093019260010161312c565b50506001909401935050601001613109565b5050505060081b60a0909301929092525050565b60e081015160208083015160f083811c925f9290921a60010191908390036132c5576040517fa806284100000000000000000000000000000000000000000000000000000000815260040160405180910390fd5b610200850151855180515f928392909160219060101c61ffff165b80156132f757805190925060101c61ffff166132e0565b506040518a82018051919650601c8401939160049160248901915f90811a805b8d8310156133dc5760048202860195506004878a03045b8082111561334c57965161ffff16601c81019950969003600761332e565b506004810298899003805186529894909401938103865b60078211156133a8575160101c61ffff1680518652601c909501947ffffffffffffffffffffffffffffffffffffffffffffffffffffffffffffffff990910190613363565b81156133c3575160101c61ffff168051865260048202909501945b50505060019182018051909291909101905f1a80613317565b50505082895250600488810180517fffffffffffffffffffffffffffffffffffffffffffffffffffffffff00000000167fffffffffffffffffffffffffffffffffffffffffffffffffffffffffffffffff9290940491909101601881901b8817939093179052601f017fffffffffffffffffffffffffffffffffffffffffffffffffffffffffffffffe01660405260ff1094505083156134a8576040517fe972437e00000000000000000000000000000000000000000000000000000000815260040160405180910390fd5b6134b56001808a1b615089565b891685891b60f06134c78b6010615012565b901b171760e08b01526101008a0180517ffffffffffffffffffffffffffffffffffffffffffffffffffffffffffffffff7169052604080516020601f9091017fffffffffffffffffffffffffffffffffffffffffffffffffffffffffffffffe01681815280820183525f80517fffffffffffffffffffffffffffffffffffffffffffffffffffffffffffff00001682178152908d52908c01819052908b0181905260608b0181905260808b0181905260a08b018190526101208b018190526101408b018190526102008b015250505050505050505050565b5f81515f036135af57505f919050565b50602001515f1a90565b5f806135c48461359f565b60020260010190505f6135d7858561465c565b949091019093016020019392505050565b5f806135f484846135b9565b515f1a949350505050565b808210156111355781517fffffffffffffffffffffffffffffffffffffffffffffffffffffffffffffff0160f882901c016138395760c08401515b80156138375760a081901c5161016086015161ffff60e085901c1660208101805160089390931b62ffff0016600187901a1760e81b7cffffffffffffffffffffffffffffffffffffffffffffffffffffffffff909316929092179091526040517f570c7a630000000000000000000000000000000000000000000000000000000081529192915f908190819073ffffffffffffffffffffffffffffffffffffffff86169063570c7a63906136f2908790600401614f8e565b5f60405180830381865afa15801561370c573d5f803e3d5ffd5b505050506040513d5f823e601f3d9081017fffffffffffffffffffffffffffffffffffffffffffffffffffffffffffffffe01682016040526137519190810190615128565b925092509250821561382d57815160041461379a57816040517fbe2d187d0000000000000000000000000000000000000000000000000000000081526004016106119190614f8e565b60208201517fffffffff00000000000000000000000000000000000000000000000000000000167bffffffffffffffffffffffffffffffffffffffffffffffffffffffff88161789525f5b81518110156138225761381a828281518110613803576138036151d5565b60200260200101518c6144cd90919063ffffffff16565b6001016137e5565b505050505050613837565b505050505061363a565b505b5081517fffffffffffffffffffffffffffffffffffffffffffffffffffffffffffffff0160f882901c016138b357606061ffff8260e01c1690505f6003820152600581019050806040517faedfba2f0000000000000000000000000000000000000000000000000000000081526004016106119190614f8e565b506004820191506135ff565b6101608101516040805161ffff8316808252602080820283019081019093529092909160109190911c90835b8082111561392b5760208301518252915161ffff16917fffffffffffffffffffffffffffffffffffffffffffffffffffffffffffffffe0909101906138eb565b50505050919050565b5f808080613943866002615012565b9050806c7e0000007e03ff0000000000005b86821081600184515f1a1b161515161561397457600182019150613955565b5090979096508695509350505050565b5f82818061399983866520000000000061251d565b925085831415836139b381886703ff00000000000061251d565b94508085036139ed57507f34bd20690000000000000000000000000000000000000000000000000000000094505f9250829150613e1a9050565b5f806139f98a886146b2565b90925090507fffffffff00000000000000000000000000000000000000000000000000000000821615613a37575095505f9350839250613e1a915050565b86519095506540000000000060015f9290921a9190911b161515888710169150508015613cc657506001909301925f84613a7a81896703ff00000000000061251d565b9550808603613ab557507f7bfa48af0000000000000000000000000000000000000000000000000000000095505f9350839250613e1a915050565b855b7fffffffffffffffffffffffffffffffffffffffffffffffffffffffffffffffff81018051908a1160015f9290921a9190911b660100000000000016151516600103613b24577fffffffffffffffffffffffffffffffffffffffffffffffffffffffffffffffff01613ab7565b818114613b7b575f80613b3784846146b2565b90925090507fffffffff00000000000000000000000000000000000000000000000000000000821615613b77575097505f9550859450613e1a9350505050565b9350505b5f831215613bb657507f7bfa48af0000000000000000000000000000000000000000000000000000000096505f9450849350613e1a92505050565b8315613bc257825f0392505b80820394505f851315613c0257507f013b2aaa0000000000000000000000000000000000000000000000000000000096505f9450849350613e1a92505050565b855f03613c1157829550613cc3565b5f8590036043811115613c5257507f32b8b8be0000000000000000000000000000000000000000000000000000000097505f9550859450613e1a9350505050565b600a0a8681025f88838381613c6957613c69615025565b0514159050601b82900b8214158180613c7f5750805b15613cbb57507f32b8b8be000000000000000000000000000000000000000000000000000000009a505f9850889750613e1a9650505050505050565b505084019650505b50505b84516c2000000020000000000000000060015f9290921a9190911b161515878610168015613e0b5760019095019485613d06818a6520000000000061251d565b965086613d1c818b6703ff00000000000061251d565b9750808803613d5957507f013b2aaa0000000000000000000000000000000000000000000000000000000097505f9550859450613e1a9350505050565b505f80613d66838a6146b2565b90925090507fffffffff00000000000000000000000000000000000000000000000000000000821615613da6575097505f9550859450613e1a9350505050565b9250508482015f83138015613dba57508581125b80613dce57505f83128015613dce57508581135b15613e0757507fd556b1110000000000000000000000000000000000000000000000000000000097505f9550859450613e1a9350505050565b9450505b845f03613e16575f93505b5050505b92959194509250565b7fffffffff00000000000000000000000000000000000000000000000000000000811615611135576102208301515f9083037fffffffffffffffffffffffffffffffffffffffffffffffffffffffffffffffe0017f53c102422473590ce12511beab7637e1c33b596a7d58a80ea98463ad78950000179050815f528060045260245ffd5b5f805f613eb485856147dc565b9150915080610731576040517f22c9f7bb0000000000000000000000000000000000000000000000000000000081526004810186905260248101859052604401610611565b5f80806001850181806f7ffffffffffffffffffffffb0000000081807fffffffffffffffffffffffffffffffffffffffffffffffffffffffffffffffff8b8b0301602080821015613f475750805b875193505b84600185851a1b1615158184101615613f6a57600183019250613f4c565b505080602003613ff5576102208c01518b037fffffffffffffffffffffffffffffffffffffffffffffffffffffffffffffffe0017f53c102422473590ce12511beab7637e1c33b596a7d58a80ea98463ad78950000176040517f30515bda00000000000000000000000000000000000000000000000000000000815260040161061191815260200190565b85810180519095505f1a6001811b6404000000001615806140155750858b145b1561409b576102208d015186037fffffffffffffffffffffffffffffffffffffffffffffffffffffffffffffffe0017f53c102422473590ce12511beab7637e1c33b596a7d58a80ea98463ad78950000176040517f04022fbf00000000000000000000000000000000000000000000000000000000815260040161061191815260200190565b50949b939a505060018a019850919650505050505050565b5f80601f90505f60e09050818451168082175f528060208601600183016020035e50505f519392505050565b5f60608186860361ffff811115614125576040517fb6da789c00000000000000000000000000000000000000000000000000000000815260048101829052602401610611565b604080516041888803848101838101929092017fffffffffffffffffffffffffffffffffffffffffffffffffffffffffffffffe0169093526002828101859052018152935060228401925061417b898484612cda565b6141888783850183612cda565b50505060c08701515b80156142525760a081901c516040517fc6c0cbb60000000000000000000000000000000000000000000000000000000081529091905f90819073ffffffffffffffffffffffffffffffffffffffff84169063c6c0cbb6906141f6908890600401614f8e565b6040805180830381865afa158015614210573d5f803e3d5ffd5b505050506040513d601f19601f820116820180604052508101906142349190615202565b91509150811561424a5794506104a39350505050565b505050614191565b61022088015187037fffffffffffffffffffffffffffffffffffffffffffffffffffffffffffffffe0017f53c102422473590ce12511beab7637e1c33b596a7d58a80ea98463ad7895000017612d56565b5f805f6142b18686866148e2565b91509150806142f6576040517f05e476780000000000000000000000000000000000000000000000000000000081526004810187905260248101869052604401610611565b50949350505050565b5f80825f528360205360215f2090506001815f1a1b915062ffffff8116611c92575060019250929050565b5f7fffffffffffffffffffffffffffffffffffffffffffffffffffffffffffffffff820361435b5750610100919050565b507f0f0f0f0f0f0f0f0f0f0f0f0f0f0f0f0f0f0f0f0f0f0f0f0f0f0f0f0f0f0f0f0f7f5555555555555555555555555555555555555555555555555555555555555555600183901c16909103600281901c7f3333333333333333333333333333333333333333333333333333333333333333908116911601600481901c01167f01010101010101010101010101010101010101010101010101010101010101010260f81c90565b5f805f805f614412888888610e7b565b9250925092508215614252579093509150611fdd9050565b8051602080830180515f90811a8086016021015160a0939190831a61447c5785518488018051600861ffff909316929092046020038801601e83901a840360010160100290811b909217905260f01092505b50508015612cd3576040517f5b1a42d600000000000000000000000000000000000000000000000000000000815260040160405180910390fd5b5f6144c36101008361522c565b6001901b92915050565b6101608201805160408051808201909152601091821c808252602082018590528351600161ffff909116019282901b9290921790925261450c836144b6565b6101809094018051909417909352505050565b5f61452a83836145e9565b925060ff600884901c8116830190811115614571576040517fe826b5f600000000000000000000000000000000000000000000000000000000815260040160405180910390fd5b7fffffffffffffffffffffffffffffffffffffffffffffffffffffffffffff00ff841660089190911b17905092915050565b5f60ff8316828110156145e2576040517f23b49a2a00000000000000000000000000000000000000000000000000000000815260040160405180910390fd5b5050900390565b5f60ff808416830190600885901c811690601086901c90831115614639576040517fe826b5f600000000000000000000000000000000000000000000000000000000815260040160405180910390fd5b808311156146445750815b601081901b600883901b841717935050505092915050565b5f6146668361359f565b82106146a25781836040517ffcfaeff1000000000000000000000000000000000000000000000000000000008152600401610611929190615264565b50600202016003015161ffff1690565b81515f90819065200000000000600191831a9190911b161515838510168085019082806146df8488614ae9565b90925090507fffffffff0000000000000000000000000000000000000000000000000000000082161561471a575093505f9250611c92915050565b825f0361477d577f7fffffffffffffffffffffffffffffffffffffffffffffffffffffffffffffff811161474e575f614770565b7f0fdc2635000000000000000000000000000000000000000000000000000000005b95509350611c9292505050565b7f800000000000000000000000000000000000000000000000000000000000000081116147aa575f6147cc565b7f0fdc2635000000000000000000000000000000000000000000000000000000005b95505f0393505050509250929050565b5f601b83900b8314838382614840577d90e40fbeea1d3a4abc8955e946fe31cdcf66f634e100000000000000000086051561482057620186a0860595506005850194505b8586601b0b1461483b57600a86059550846001019450614820565b614856565b855f0361485657505f925060019150611c929050565b848560030b146148b2575f85121561487657505f9250829150611c929050565b6040517fd556b1110000000000000000000000000000000000000000000000000000000081526004810183905260248101829052604401610611565b50507bffffffffffffffffffffffffffffffffffffffffffffffffffffffff841660e084901b1791509250929050565b5f805f851215614928576040517f4a7d166b0000000000000000000000000000000000000000000000000000000081526004810186905260248101859052604401610611565b845f0361493a57505f90506001611fdd565b8460ff8416850185811215614985576040517fd556b1110000000000000000000000000000000000000000000000000000000081526004810188905260248101879052604401610611565b5f805f8312156149ef577fffffffffffffffffffffffffffffffffffffffffffffffffffffffffffffffb38312156149c6575f809550955050505050611fdd565b825f03600a0a91508184816149dd576149dd615025565b0495505084029091149150611fdd9050565b5f831315614ad957604d831315614a45576040517fc849483b000000000000000000000000000000000000000000000000000000008152600481018a90526024810189905260ff88166044820152606401610611565b82600a0a9150817fffffffffffffffffffffffffffffffffffffffffffffffffffffffffffffffff81614a7a57614a7a615025565b04841115614ac7576040517fc849483b000000000000000000000000000000000000000000000000000000008152600481018a90526024810189905260ff88166044820152606401610611565b5091909102925060019150611fdd9050565b8360019550955050505050611fdd565b5f80828410614b1c57507f34bd20690000000000000000000000000000000000000000000000000000000090505f611c92565b835f03614b55576040517fda6966d400000000000000000000000000000000000000000000000000000000815260040160405180910390fd5b60305f7fffffffffffffffffffffffffffffffffffffffffffffffffffffffffffffffff8501815b878210158015614b8d5750604d83105b15614bd057815160018401937fffffffffffffffffffffffffffffffffffffffffffffffffffffffffffffffff90930192600a0a5f9190911a8590030201614b7d565b878210614cf65781515f1a8490036001811115614c1857507f0fdc26350000000000000000000000000000000000000000000000000000000095505f9450611c929350505050565b600a84900a8102828101831115614c5b57507f0fdc26350000000000000000000000000000000000000000000000000000000096505f9550611c92945050505050565b9190910190507fffffffffffffffffffffffffffffffffffffffffffffffffffffffffffffffff909101905b878210614cf65781515f1a60308114614ccb57507f0fdc26350000000000000000000000000000000000000000000000000000000095505f9450611c929350505050565b507fffffffffffffffffffffffffffffffffffffffffffffffffffffffffffffffff90910190614c87565b5f9890975095505050505050565b614d0c61527c565b565b5f60208284031215614d1e575f80fd5b81357fffffffff0000000000000000000000000000000000000000000000000000000081168114610507575f80fd5b7f4e487b71000000000000000000000000000000000000000000000000000000005f52604160045260245ffd5b604051601f82017fffffffffffffffffffffffffffffffffffffffffffffffffffffffffffffffe016810167ffffffffffffffff81118282101715614dc157614dc1614d4d565b604052919050565b5f67ffffffffffffffff821115614de257614de2614d4d565b50601f017fffffffffffffffffffffffffffffffffffffffffffffffffffffffffffffffe01660200190565b5f60208284031215614e1e575f80fd5b813567ffffffffffffffff811115614e34575f80fd5b8201601f81018413614e44575f80fd5b8035614e57614e5282614dc9565b614d7a565b818152856020838501011115614e6b575f80fd5b816020840160208301375f91810160200191909152949350505050565b602080825282518282018290528051604084018190525f9291820190839060608601905b80831015614ee257835173ffffffffffffffffffffffffffffffffffffffff168252928401926001929092019190840190614eac565b509695505050505050565b5f81518084528060208401602086015e5f6020828601015260207fffffffffffffffffffffffffffffffffffffffffffffffffffffffffffffffe0601f83011685010191505092915050565b604081525f614f4b6040830185614eed565b8281036020848101919091528451808352858201928201905f5b81811015614f8157845183529383019391830191600101614f65565b5090979650505050505050565b602081525f6105076020830184614eed565b80516020808301519190811015614fdf577fffffffffffffffffffffffffffffffffffffffffffffffffffffffffffffffff8160200360031b1b821691505b50919050565b7f4e487b71000000000000000000000000000000000000000000000000000000005f52601160045260245ffd5b8082018082111561018057610180614fe5565b7f4e487b71000000000000000000000000000000000000000000000000000000005f52601260045260245ffd5b5f7fffffffffffffffffffffffffffffffffffffffffffffffffffffffffffffffff820361508257615082614fe5565b5060010190565b8181038181111561018057610180614fe5565b80518015158114610239575f80fd5b5f82601f8301126150ba575f80fd5b8151602067ffffffffffffffff8211156150d6576150d6614d4d565b8160051b6150e5828201614d7a565b92835284810182019282810190878511156150fe575f80fd5b83870192505b8483101561511d57825182529183019190830190615104565b979650505050505050565b5f805f6060848603121561513a575f80fd5b6151438461509c565b9250602084015167ffffffffffffffff8082111561515f575f80fd5b818601915086601f830112615172575f80fd5b8151615180614e5282614dc9565b818152886020838601011115615194575f80fd5b8160208501602083015e5f60208383010152809550505060408601519150808211156151be575f80fd5b506151cb868287016150ab565b9150509250925092565b7f4e487b71000000000000000000000000000000000000000000000000000000005f52603260045260245ffd5b5f8060408385031215615213575f80fd5b61521c8361509c565b9150602083015190509250929050565b5f8261525f577f4e487b71000000000000000000000000000000000000000000000000000000005f52601260045260245ffd5b500690565b828152604060208201525f610c456040830184614eed565b7f4e487b71000000000000000000000000000000000000000000000000000000005f52605160045260245ffdfe0288400100420b0280046b0641220186adb8a044003012020f2a880521281ac8811a000000000000000000080000000000100000000000000002000000000000000000290ea98a3a10f9c53927bda61c6395ad0e9fb4a8075dbeaf2d313e9e09b06d681dfe49062ce21ac13e83a6cc2ad2d2123422c3e0052f369e1f27267220a0a68d2f357696465d217b131120880f24f4a8242f1af53f41f7290afa3e8638acf3d13397e9fd00443a453b406bb547b9059d25a3cd1e11d0c3260b15eb4d16fc94274427bc412baf2cc2321b8f630dca9efe403ce35f1400684845c291e3425d68b13d5f9a151eb98c15239cd9c10c1f698235c8d3843c08d579273459d41a2c9ff617a5b2cd15c0031810f621af127ba34c26bb6c4137b2ad3d1b73563d0210215f36aa563921098e690457fb180376e752066a470128f11de101fcc60522de7ddd183d3d6d4196c37031cba2872e7b3af5304eee7219a8093543082b5f0801f5a522fb22fb22fb23c724db24db23c723c724db22fb22fb22fb24db24db24db24db24db24db24db24db24db24db24db24db24db24db24db24db24db24db24db24db24db24db24db24db24db24db24db24db24db24db24db24db24db24db24db24db24db24db24db24db24db24db24db24db24db24db24db24db24db24db24db24db24db24db24db24db24db24db24db24db"
  }
}